:020000040800F2
:10000000B8100020110C0008170A0008190A00088F
:100010001D0A0008210A0008250A00080000000047
:10002000000000000000000000000000290A000895
:100030002B0A0008000000002D0A0008150A00081D
:100040002B0C00082B0C00082B0C00082B0C0008B4
:100050002B0C00082B0C00088F3D0008A93D000860
:100060002B0C00082B0C00082B0C00082B0C000894
:100070002B0C00082B0C00082B0C00082B0C000884
:100080002B0C00082B0C00082B0C00082B0C000874
:100090002B0C00082B0C00082B0C00082B0C000864
:1000A0002B0C00082B0C00082B0C00082B0C000854
:1000B00013350008E13800084F3600082B0C000803
:1000C0002B0C00082B0C00082B0C00082B0C000834
:1000D0002B0C00082931000833390008E53A0008E4
:1000E000DD3D00082B0C00082B0C00082B0C000831
:1000F0002B0C00082B0C00082B0C00082B0C000804
:100100002B0C00082B0C00082B0C00082B0C0008F3
:100110002B0C00082B0C00082B0C00082B0C0008E3
:100120002B0C00082B0C00082B0C00082B0C0008D3
:1001300000F002F800F090F80AA090E8000C824469
:100140008344AAF10107DA4501D100F085F8AFF246
:10015000090EBAE80F0013F0010F18BFFB1A43F0A5
:10016000010318476C5500008C550000103A24BF5D
:1001700078C878C1FAD8520724BF30C830C144BF0C
:1001800004680C607047000000230024002500264E
:10019000103A28BF78C1FBD8520728BF30C148BFEA
:1001A0000B6070476E2904F0F180702904F04582DD
:1001B000662905F01F82652905F01C82672905F074
:1001C00019826129AFF3008003681B0A28BF41F040
:1001D0008001692903F0FC86642903F0F9867529FA
:1001E00003F0F6866F2904F0D381782904F0118298
:1001F000E92904F06D81E42904F06A81F52904F00D
:100200006781EF2904F0D081F82904F01082036897
:10021000DB0928BF41F08001632904F0758473294C
:1002200004F07A84E32904F08584F32904F08A84B5
:10023000002070471FB504F0DBFC04000020002103
:1002400005F0C2F9401C60600020002105F0A6F90D
:10025000E0601FBD10B510BD04F09CFC1146FFF717
:10026000E9FF00F029FA04F075FD03B4FFF7F2FF8F
:1002700003BC02F0F3FE000038B504460D46082D1D
:1002800072D12078FE2801D1012000E000206178A1
:10029000052901D1012100E00021084000282BD0D0
:1002A000A07808B9012000E00020E17809B9012117
:1002B00000E000210840217909B9012100E0002176
:1002C0000840617909B9012100E000210840A179C5
:1002D000D92901D1012100E000210840E179C52997
:1002E00001D1012100E00021084030B10020FE4989
:1002F0000860FEA003F060FEDDE1A07808B90120EF
:1003000000E00020E17809B9012100E00021084067
:100310002179FF2901D1012100E000210840617904
:1003200009B9012100E000210840A179982901D1F3
:10033000012100E000210840E179352901D10121A6
:1003400000E00021084030B10120E7490860ECA03E
:1003500003F032FEAFE1A07808B9012000E00020F0
:10036000E178012901D101E052E000210840217922
:1003700009B9012100E000210840617909B9012192
:1003800000E000210840A179882901D1012100E085
:1003900000210840E179052901D1012100E0002177
:1003A000084030B10120DB490860DBA003F004FE07
:1003B00081E1A07808B9012000E00020E17801295E
:1003C00000D100E0002108402179FF2901D101215D
:1003D00000E000210840617909B9012100E0002115
:1003E0000840A179C92901D1012100E0002108407C
:1003F000E179F52901D1012100E000210840002820
:10040000A8D00020C3490860C8A003F0D5FD52E180
:10041000062D70D12078552801D1012000E0002060
:100420006178012900D100E000210840002863D054
:100430002079C82801D1012000E000206179C92974
:1004400001D1012100E0002108400028B0D0A078AF
:1004500030B1012813D0022820D003283CD12CE051
:10046000E078A178B64A22F81100E0788100B5481A
:1004700002F060F8E178B4A003F09EFD30E0E0788F
:10048000A178AF4A22F81100E0788100AD4802F06F
:1004900053F8E178B5A003F08FFD21E0E078A17872
:1004A000A74A22F81100E0788100A64802F03EF841
:1004B000E178B7A003F080FD12E0E078A178A04ACF
:1004C00022F81100E07881009E4802F031F8E178CE
:1004D000B8A003F071FD03E0BFA003F06DFD00BF05
:1004E00000BFA078042892DA0120C24908700020D9
:1004F000C1490880DFE0A8E02078552801D101201B
:1005000000E000206178022901D1012100E00021F2
:1005100008400028EED0E07808B9012000E0002073
:100520002179C32901D1012100E00021084061792E
:10053000C42901D1012100E00021084048B3A0787E
:1005400030B101280CD0022812D0032820D117E0A6
:1005500000217C4801F0EEFFA8A003F02DFD17E07C
:100560000021784801F0E8FFA5A003F025FD0FE089
:100570000021744801F0DAFFA4A003F01DFD07E09C
:100580000021704801F0D4FFA3A003F015FD00BFC7
:1005900091E0E078FF2801D1012000E000202179DE
:1005A000C32901D1012100E0002108406179C4295B
:1005B00001D1012100E00021084000287BD0A07873
:1005C00030B1012813D0022820D003283CD12CE0E0
:1005D000A0785B4A32F810004FF6FF7202EA800101
:1005E000584801F0A7FF88A003F0E6FC2CE0A078B3
:1005F000534A32F810004FF6FF7202EA8001514868
:1006000001F09AFF87A003F0D7FC1DE0A0784C4AC8
:1006100032F810004FF6FF7202EA8001494801F0FB
:1006200085FF83A003F0C8FC0EE0A078444A32F8AE
:1006300010004FF6FF7202EA8001424801F078FF95
:100640007EA003F0B9FC00BF35E0032D32D1207845
:10065000552801D1012000E000206178552901D101
:10066000012100E000210840A178552901D1012194
:1006700000E000210840F0B13148C08800903048C7
:1006800083884288018870A003F096FC164884385D
:10069000006800907648D0F800311E48006808B91C
:1006A000012000E0002002460F48016871A003F01D
:1006B00083FC00E000BF38BD00BF02F05FFC02F029
:1006C000C7FC02F065FD02F0BBFD03F0DBFA03F0AE
:1006D0000CFB4FF4E13003F09FF803F017FA002110
:1006E00040F2E730DCE0000088012342636C6F7366
:1006F000652072656C6179206F6B2121210A0000F1
:100700006F70656E2072656C6179206F6B2121219D
:100710000A00000094812142636C6F7365204E5083
:100720004E206F6B202121210A0000006F70656E42
:10073000204E504E206F6B202121210A0000000026
:100740000A0000200008004073657474696E672019
:100750006368302076616C7565206973206F6B204B
:1007600076616C7565203D25640D0A0073657474AF
:10077000696E67206368312076616C7565206973E6
:10078000206F6B2076616C7565203D25640D0A0035
:1007900073657474696E67206368322076616C7566
:1007A00065206973206F6B2076616C7565203D252F
:1007B000640D0A0073657474696E67206368332082
:1007C00076616C7565206973206F6B2076616C753E
:1007D00065203D25640D0A0073657474696E672099
:1007E0006368616E6E656C206C6172676572212151
:1007F000210D0A001200002014000020300D0A0014
:10080000636C6F7365206368310D0A00636C6F73EE
:1008100065206368320D0A00636C6F73652063683E
:10082000330D0A006F70656E206368310D0A000099
:100830006F70656E206368320D0A00006F70656E20
:10084000206368330D0A00000D0A6368303D2025DF
:1008500064203B6368313D202564203B6368323D62
:10086000202564203B6368333D2025640D0A000089
:10087000000023424352544C313D25643B204352F7
:10088000544C323D25643B20696E707574313D25B2
:10089000643B20696E707574323D25640D0A00005A
:1008A00002F0E4FE41F61F4140F2E73002F089FD1C
:1008B00000204D49088004224C494D4803F0DCFAE1
:1008C0004A4800884FF6FF7202EA8001494801F069
:1008D00031FE464840884FF6FF7202EA80014548E3
:1008E00001F02AFE414880884FF6FF7202EA80013B
:1008F000404801F01BFE3D48C0884FF6FF7202EAF7
:1009000080013C4801F014FE6CE000213A48007878
:1009100003F093F9022002F06EFB3448364909785F
:1009200030F81100642190FBF1F0C4B2012120469F
:1009300003F083F9022002F05EFB2C482E4909786F
:1009400030F81100642190FBF1F201FB12000A2142
:1009500090FBF1F0C4B20221204603F06EF90220B0
:1009600002F049FB21482449097830F811000A2196
:1009700090FBF1F201FB1200C4B20321204603F008
:100980005CF9022002F037FB1C480078022809D1EC
:1009900004221649164803F080FA0020174908700F
:1009A000174908801048008800F4004038B10E480C
:1009B00001781448FFF760FC00200B4908800221F1
:1009C000114800F05EFC68B9012002F014FB02211E
:1009D0000D4800F056FC28B901200C4908600C496C
:1009E000C1F8880191E700004C0000200A000020B7
:1009F00000FF01080008004008000020120000204D
:100A00001400002098010020001801409481214228
:100A1000000023427047704700BFFEE700BFFEE7BB
:100A200000BFFEE700BFFEE7704770477047000059
:100A30000CB50020019000906C48006840F48030B4
:100A40006A49086000BF6948006800F400300090FF
:100A50000198401C0190009818B90198B0F5A06F5A
:100A6000F1D16248006800F4003010B1012000901C
:100A700001E0002000900098012843D15C48006804
:100A800040F010005A4908600846006820F0030052
:100A900008600846006840F002000860534840685B
:100AA000524948600846406848600846406840F43B
:100AB000806048600846406820F47C104860084622
:100AC000406840F4E81048600846006840F08070D4
:100AD000086000BF4548006800F000700028F9D0A9
:100AE0004248406820F0030040494860084640689A
:100AF00040F00200486000BF3C48406800F00C0035
:100B00000828F9D10CBD10B5FFF792FF10BD10B544
:100B10003648006840F001003449086008464068E3
:100B20003449084031494860084600683249084065
:100B30002E4908600846006820F4802008600846B6
:100B4000406820F4FE0048604FF41F008860FFF703
:100B5000DAFF4FF000602949086010BD10B5002190
:100B600000200022214B5B6803F00C0121B1042915
:100B700006D0082928D107E0214B224C236027E02A
:100B80001F4B204C236023E0184B5B6803F470106C
:100B9000164B5B6803F48032022303EB904022B9CA
:100BA000194B4343174C23600DE0104B5B6803F473
:100BB000003323B1144B4343124C236003E0104B2A
:100BC0004343104C236003E00D4B0E4C236000BFE9
:100BD00000BF064B5B68C3F303130C4CE15C094B8D
:100BE0001B68CB40074C236010BD00000010024082
:100BF000002002400000FFF8FFFFF6FE08ED00E0D5
:100C000000127A001800002000093D001C0000209E
:100C10000948804709480047FEE7FEE7FEE7FEE790
:100C2000FEE7FEE7FEE7FEE7FEE7FEE704480549CC
:100C3000054A064B704700000F0B00083101000801
:100C4000B80A0020B8100020B80C0020B80C002012
:100C500031490143314A1160704770B500210023CA
:100C60000F22C47804B32D4C246804F4E064C4F566
:100C7000E064210AC1F10403CA40447804FA03F194
:100C80008478144021430901254C0678A155047845
:100C900004F01F050124AC4005786D11AD0005F18D
:100CA000E025C5F8004109E0047804F01F0501249F
:100CB000AC401C4D0678761145F8264070BD1A4AA6
:100CC0000A400243154B1B1F1A60704739B1134A83
:100CD000121D12680243114B1B1D1A6006E00F4AD9
:100CE000121D126882430D4B1B1D1A6070470428A9
:100CF00008D14FF0E021096941F004014FF0E022F2
:100D0000116107E04FF0E021096921F004014FF083
:100D1000E0221161704700000000FA050CED00E0D0
:100D200000E400E080E100E080FFFF1F01684FF673
:100D3000FE72114001600021016041608160C1606C
:100D40008D49884208D18C490839496841F00F0122
:100D5000894A083A51608AE087491431884208D1AB
:100D600085490839496841F0F001834A083A5160E1
:100D70007DE081492831884208D17F490839496896
:100D800041F470617C4A083A516070E07A493C3124
:100D9000884208D178490839496841F47041764A57
:100DA000083A516063E074495031884208D1724971
:100DB0000839496841F470216F4A083A516056E099
:100DC0006D496431884208D16B490839496841F45A
:100DD0007001694A083A516049E0674978318842B0
:100DE00008D165490839496841F07061624A083A9A
:100DF00051603CE06149884206D1011F096841F019
:100E00000F01021F116032E05C491431884208D1A1
:100E10005A49091F096841F0F001584A121F116030
:100E200025E056492831884208D15449091F0968EC
:100E300041F47061514A121F116018E04F493C3172
:100E4000884208D14D49091F096841F470414B4A55
:100E5000121F11600BE049495031884207D14749C0
:100E6000091F096841F47021444A121F116070473C
:100E700010B50022026847F6F0739A430C6A8B683B
:100E800023430C6923434C6923438C692343CC6976
:100E900023434C6A23438C6A23431A430260CB6882
:100EA00043600B6883604B68C36010BD0021016024
:100EB00041608160C160016141618161C161016224
:100EC00041628162704721B1026842F00102026012
:100ED00004E002684FF6FE731A40026070471AB1D0
:100EE00003680B43036002E003688B4303607047B1
:100EF000416070470146486880B270470146002053
:100F0000002201F080531BB11C4B083B1A6802E021
:100F1000194B083B1A6802EA01030BB1012000E0FB
:100F20000020704700F0805119B11449091F086072
:100F300002E011490839486070470146002000224C
:100F400001F080531BB10D4B083B1A6802E00A4BBD
:100F5000083B1A6802EA01030BB1012000E00020FF
:100F6000704700F0805119B10449091F086002E080
:100F700001490839486070470800024008040240EF
:100F8000002044490860091D0860091D0860091D0A
:100F9000086041483F4914310860704700213D49CD
:100FA0008279002A3AD00A46126803689A430B46AF
:100FB0001A600A1D126803689A430B1D1A600279B1
:100FC00011440A6803681A430A60324A08321268F8
:100FD00003689A432F4B08331A601A1D126803687E
:100FE0009A432C4B0C331A604279102A0ED11A1FE7
:100FF000126803681A43274B08331A601A1D1268D7
:1010000003681A43234B0C331A600DE021494279DF
:1010100011440A6803681A430A6005E00279114422
:101020000A6803689A430A607047002101600171F1
:101030000C214171002181717047164910310968F6
:101040000143144A10321160704701460020114AD2
:10105000143212680A400AB1012000E000207047F3
:101060000C49143108607047014600200022094BEA
:101070001B6803EA0102074B14331B680B4013B1D2
:101080000AB1012000E000207047024914310860D5
:101090007047000000040140FFFF0F0010B5044638
:1010A000CC48844208D10121042000F02DFB00210E
:1010B000042000F029FB46E0C748844208D1012102
:1010C000082000F021FB0021082000F01DFB3AE081
:1010D000C248844208D10121102000F015FB0021F4
:1010E000102000F011FB2EE0BD48844208D1012100
:1010F000202000F009FB0021202000F005FB22E069
:10110000B848844208D10121402000F0FDFA0021B6
:10111000402000F0F9FA16E0B348844208D10121DA
:10112000802000F0F1FA0021802000F0EDFA0AE0C2
:10113000AE48844207D10121801500F0E5FA002174
:10114000A01500F0E1FA10BD10B50121084600F02D
:10115000DBFA0021012000F0D7FA10BD2DE9F041A3
:10116000024600250026002000230024002791F8D5
:1011700003C00CF00F0591F803C00CF0100CBCF18B
:10118000000F03D091F802C04CEA050591F800C0A9
:10119000BCF1000F31D0146800202BE04FF0010C9F
:1011A0000CFA00F3B1F800C00CEA03069E4220D10D
:1011B00083004FF00F0C0CFA03F7BC4305FA03FC55
:1011C0004CEA040491F803C0BCF1280F06D14FF09B
:1011D000010C0CFA00FCC2F814C00AE091F803C03C
:1011E000BCF1480F05D14FF0010C0CFA00FCC2F81D
:1011F00010C0401C0828D1D31460B1F800C0BCF165
:10120000FF0F34DD546800202EE000F1080C4FF091
:10121000010808FA0CF3B1F800C00CEA03069E427C
:1012200021D183004FF00F0C0CFA03F7BC4305FAF1
:1012300003FC4CEA040491F803C0BCF1280F05D16B
:1012400000F1080C08FA0CF8C2F8148091F803C0F9
:10125000BCF1480F07D100F1080C4FF0010808FA63
:101260000CF8C2F81080401C0828CED35460BDE8AA
:10127000F0814FF6FF710180022181700421C1705D
:1012800070470246002093680B400BB1012000E03C
:10129000002070470146886880B2704702460020EF
:1012A000D3680B400BB1012000E0002070470146DD
:1012B000C86880B2704701617047416170470AB1E8
:1012C000016100E041617047C16070474FF48032B6
:1012D0000A43826181618261826982697047024644
:1012E0000020434B18684FF68073184040EA021004
:1012F00008433F4B186070473E49C8617047F0B5DE
:101300000A46002300240021002500F00046B6F123
:10131000004F02D1364EF16901E0354E7168C0F3DD
:10132000034583B200F44016B6F5401F08D121F002
:1013300070612F4E766826F070662D4F7E6012E049
:1013400000F48016B6F5801F06D1032606FA05F4D0
:10135000A14341F0706106E0460D360103FA06F63E
:10136000B14341F0706122B1460D360103FA06F631
:10137000314300F00046B6F1004F02D11C4EF1613E
:1013800001E01B4E7160F0BD30B500228B071C0FD1
:101390000F2303FA04F2164B08338C1053F8243051
:1013A0009343134C08348D1044F8253023468C1099
:1013B00053F824308C07240F00FA04F423430C4C18
:1013C00008348D1044F8253030BD0A49DC310860FE
:1013D0007047000000080140000C0140001001406F
:1013E0000014014000180140001C01400020014091
:1013F0000000014000002042DF48006840F001008A
:10140000DD49086008464068DC490840DA49486020
:1014100008460068DA490840D7490860084600686D
:1014200020F4802008600846406820F4FE004860F0
:101430004FF41F0088607047CF49096821F480315C
:10144000CD4A11601146096821F480211160B0F580
:10145000803F03D0B0F5802F0ED106E0C649096861
:1014600041F48031C44A116007E0C349096841F47E
:10147000A021C14A116000E000BF00BF704710B555
:1014800001460022002300204A11012A02D1BA4C51
:10149000236806E0022A02D1B74C236A01E0B64C69
:1014A000636A01F01F02012494401C400CB101202A
:1014B00000E0002010BD38B5002000900024002579
:1014C00000BF3120FFF7DBFF05460098401C00906D
:1014D0000098B0F5A06F01D0002DF2D03120FFF7B9
:1014E000CEFF08B1012400E00024204638BD0146AB
:1014F0000020A14A106820F0F80040EAC100106006
:101500007047A04908607047024600209A4B58680F
:1015100020F47C1042EA01031843974B586070474F
:1015200098490866704701460020934A506820F0A9
:1015300003000843506070478F48406800F00C007B
:101540007047014600208C4A506820F0F0000843A4
:101550005060704701460020874A506820F4E060E0
:1015600008435060704701460020834A506820F4C9
:10157000605040EAC1005060704729B17E4A527AFB
:1015800002437D4B5A7204E07B4A527A82437A4B83
:101590005A7270477B49D831086070470146002075
:1015A000754A506820F4404008435060704700215D
:1015B000714A20321170704A82F82010012802D03E
:1015C00004280AD104E001216B4A2032117005E0A1
:1015D0000521694A2032117000E000BF00BF70474A
:1015E0006949086070476449096A0143624A1162A7
:1015F0007047654944390860704730B500210022C2
:10160000002400235C4D6D6805F00C0121B1042914
:1016100005D0082923D105E05C4D056022E05B4D33
:1016200005601FE0544D6D6805F47012524D6D68F1
:1016300005F48034022505EB92421CB9544D554304
:1016400005600BE04C4D6D6805F400351DB1504D43
:101650005543056002E04D4D5543056002E04B4D9A
:10166000056000BF00BF444D6D6805F0F001090939
:10167000484D6B5C0568DD4045603F4D6D6805F485
:10168000E061090A434D6B5C4568DD4085603A4D79
:101690006D6805F46051C90A3E4D6B5C4568DD40DC
:1016A000C560354D6D6805F44041890B3A4D6B5C62
:1016B000C568B5FBF3F5056130BD29B12E4A526905
:1016C00002432D4B5A6104E02B4A526982432A4B54
:1016D0005A61704729B1284A92690243264B9A61A0
:1016E00004E0254A92698243234B9A61704729B1ED
:1016F000214AD2690243204BDA6104E01E4AD269D2
:1017000082431D4BDA61704729B11B4AD2680243FC
:10171000194BDA6004E0184AD2688243164BDA604B
:10172000704729B1144A12690243134B1A6104E04D
:10173000114A12698243104B1A61704712494039AD
:10174000086070470F49C86470470B49C8717047FB
:101750000948406A40F08070074948627047014676
:101760000020054A92680A400AB1012000E00020EA
:101770007047014988727047001002400000FFF86E
:10178000FFFFF6FE000042428004424200127A004F
:1017900000093D002C0000203C00002010B504464C
:1017A000FE48844208D10121C014FFF7ADFF00219B
:1017B000E014FFF7A9FFC4E0B4F1804F08D1012184
:1017C0000846FFF7AEFF00210120FFF7AAFFB8E0AF
:1017D000F348844208D101210220FFF7A2FF002133
:1017E0000220FFF79EFFACE0EE48844208D10121C1
:1017F0000420FFF796FF00210420FFF792FFA0E0EE
:10180000E948844208D101210820FFF78AFF00211E
:101810000820FFF786FF94E0E448844208D10121C4
:101820001020FFF77EFF00211020FFF77AFF88E0ED
:10183000DF48844208D101212020FFF772FF0021F8
:101840002020FFF76EFF7CE0DA48844208D10121B6
:101850004014FFF759FF00216014FFF755FF70E0B7
:10186000D548844209D10121C804FFF74DFF00216A
:101870004FF40020FFF748FF63E0D048844209D1CD
:1018800001210805FFF740FF00214FF48010FFF70A
:101890003BFF56E0CA48844209D101214805FFF7C1
:1018A00033FF00214FF40010FFF72EFF49E0C54839
:1018B000844208D101214020FFF733FF002140205E
:1018C000FFF72FFF3DE0C048844208D1012180206E
:1018D000FFF727FF00218020FFF723FF31E0BB48FF
:1018E000844208D101218015FFF71BFF0021A015BC
:1018F000FFF717FF25E0B648844209D1012108040B
:10190000FFF702FF00214FF48030FFF7FDFE18E0E3
:10191000B048844209D101214804FFF7F5FE0021B7
:101920004FF40030FFF7F0FE0BE0AB48844208D1E3
:1019300001218804FFF7E8FE00214FF48020FFF723
:10194000E3FE10BD00220288944B98420ED0994BC2
:1019500098420BD0B0F1804F08D0914B984205D0FF
:10196000904B984202D0904B984204D14FF68F731F
:101970001A404B881A438D4B984207D08C4B9842A3
:1019800004D04FF6FF431A40CB881A4302808B885D
:1019900083850B880385814B98420BD0854B9842F9
:1019A00008D08B4B984205D08A4B984202D08A4B84
:1019B000984201D10B7A038601238382704770B568
:1019C000002400220023058C4FF6FE763540058466
:1019D000028C8388048B4FF68F752C40B51E2C40EB
:1019E0000D882C43751E2A400D892A434D882A43B1
:1019F0006A4DA8420BD06F4DA84208D0744DA84242
:101A000005D0744DA84202D0734DA84213D14FF6B1
:101A1000F7752A404D892A434FF6FB752A408D8879
:101A20002A434FF6FF652B404FF6FF552B408D891B
:101A30002B43CD892B4383800483CD888586028404
:101A400070BD70B5002400220023058C4FF6EF76A0
:101A500035400584028C8388048B48F6FF752C4042
:101A60004FF6FF452C400D884FF6FF7606EA052518
:101A70002C434FF6DF752A400D8906EA05152A43E7
:101A80004D8806EA05152A43444DA84202D0494D27
:101A9000A8421DD14FF67F752A404D894FF6FF763B
:101AA00006EA05152A434FF6BF752A408D8806EAD7
:101AB00005152A434FF6FF352B404FF2FF752B409B
:101AC0008D8906EA85052B43CD8906EA85052B43DA
:101AD00083800483CD880587028470BD70B500249F
:101AE00000220023058C4FF6FF6635400584028CEA
:101AF0008388848B4FF68F752C404FF6FC752C40F5
:101B00000D882C434FF6FF552A400D894FF6FF767E
:101B100006EA05252A434D8806EA05252A431F4D76
:101B2000A84202D0234DA8421DD14FF2FF752A4092
:101B30004D894FF6FF7606EA05252A434FF6FF3515
:101B40002A408D8806EA05252A434EF6FF752B406C
:101B50004DF6FF752B408D8906EA05152B43CD897F
:101B600006EA05152B4383808483CD88858702840C
:101B700070BD70B5002200230024058C4EF6FF7660
:101B800035400584038C8488828B48F6FF752A4093
:101B90004FF6FF452A400D8820E00000002C014050
:101BA0000004004000080040000C0040001000400D
:101BB0000014004000340140004C0140005001403E
:101BC0000054014000180040001C0040002000406C
:101BD0000040014000440140004801404FF6FF76BC
:101BE00006EA05252A434DF6FF752B400D8906EAC6
:101BF00005352B434D8806EA05352B43FA4DA8429F
:101C000002D0FA4DA84208D14BF6FF752C408D89C1
:101C10004FF6FF7606EA85152C4384808283CD88B3
:101C2000A0F84050038470BD828B4FF2FF331A40FE
:101C30008283828B4FF6FF7303EA01231A43828368
:101C40007047F0B50C461546002200210026078C8F
:101C50004EF6FF7C07EA0C070784828B018C4FF657
:101C6000FF7707EA043640F6FF473A404FF6FF7722
:101C700007EA05273A434FF6FF7707EA03373A4367
:101C8000D94FB8420ED0D94FB8420BD0B0F1804FE7
:101C900008D0D74FB84205D0D64FB84202D0D64F61
:101CA000B84206D14DF6FF77394046F480573943A4
:101CB00005E047F6FF57394044F4805739438283A3
:101CC0000184F0BD828B4FF6F3731A408283828BBE
:101CD0000A4382837047F0B50C4615460022002166
:101CE0000026078C4FF6FF6C07EA0C070784828BEF
:101CF000018C4FF6FF7707EA04264FF60C773A403F
:101D00004FF6FF7707EA03172F433A43B64FB8421F
:101D10000ED0B64FB8420BD0B0F1804F08D0B44FC0
:101D2000B84205D0B34FB84202D0B34FB84206D143
:101D30004FF6FF57394046F48077394305E04FF2BC
:101D4000FF57394044F48077394382830184F0BDE2
:101D5000028B4FF2FF331A400283028B4FF6FF7360
:101D600003EA01231A4302837047F0B50C46154677
:101D7000002200210026078C4FF6EF7C07EA0C07B3
:101D80000784028B018C4FF6FF7707EA041640F6B2
:101D9000FF473A404FF6FF7707EA03373A434FF6DB
:101DA000FF7707EA05273A438F4FB8420ED08F4F8F
:101DB000B8420BD0B0F1804F08D08D4FB84205D05B
:101DC0008C4FB84202D08C4FB84206D14FF6DF7725
:101DD000394046F01007394305E04FF65F77394048
:101DE00044F01007394302830184F0BD028B4FF6A3
:101DF000F3731A400283028B0A4302837047F0B5E3
:101E00000C46154600220021068C4FF6FE773E4018
:101E10000684028B018C4FF60C7632407E1C06EA5B
:101E200003162E433243704EB0420ED06F4EB04276
:101E30000BD0B0F1804F08D06D4EB04205D06D4E42
:101E4000B04202D06C4EB04206D14FF6FD76314022
:101E500044F00106314305E04FF6F576314044F099
:101E60000106314302830184F0BD70B505460C467E
:101E70005D4885420ED05D4885420BD0B5F1804F5C
:101E800008D05B48854205D05A48854202D05A485E
:101E9000854200D100E000BF208850B92389A28884
:101EA00061882846FFF7ABFFE1882846FFF79EFFD1
:101EB00025E0208804280AD12389A2886188284641
:101EC000FFF753FFE1882846FFF742FF17E020881D
:101ED00008280AD12389A28861882846FFF7FBFEDB
:101EE000E1882846FFF7EEFE09E02389A288618891
:101EF0002846FFF7A6FEE1882846FFF795FE70BD4D
:101F00002DE9F04105460C4600260127608808B9F6
:101F1000022600E00026A088012801D1022700E067
:101F200001272088A0B92389A28861882846FFF765
:101F300066FFE1882846FFF759FF23893A46314674
:101F40002846FFF712FFE1882846FFF701FF13E05C
:101F50002389A28861882846FFF707FFE188284681
:101F6000FFF7F6FE23893A4631462846FFF747FF3A
:101F7000E1882846FFF73AFFBDE8F0810A884B88E0
:101F80001A438B881A43CB881A430B891A434B890F
:101F90001A438B891A43A0F8442070474FF6FF710B
:101FA000818000210180C180418001727047002141
:101FB000018041808180C180018141818181C18115
:101FC0007047002101804180012181800021C18072
:101FD000018170470021018041808180C1800181A1
:101FE0004181818170470000002C01400034014094
:101FF0000004004000080040000C004021B10288AD
:1020000042F00102028004E002884FF6FE731A409B
:102010000280704731B1B0F8442042F40042A0F889
:10202000442005E0B0F84420C2F30E02A0F844209A
:1020300070471AB183890B43838102E083898B4304
:10204000838170478182704741EA0203A0F84830DB
:1020500070471AB183890B43838102E083898B43E4
:102060008381704701894FF6F872114001817047F2
:102070000A46002101894FF68F73194011430181EF
:10208000704730B504460D4629462046FFF7F0FF5D
:10209000208940F00700208130BD2DE9F041044641
:1020A0000D4616461F46602D06D13B46012231469D
:1020B0002046FFF75AFE05E03B4601223146204606
:1020C000FFF79DFE29462046FFF7D2FF208940F00A
:1020D00007002081BDE8F08130B50C460021018960
:1020E000C9B24FF6FF7505EA032515432543294379
:1020F000018130BD2DE9F04105460E461746984650
:10210000002443463A4631462846FFF7E5FF2C892E
:102110004FF6F870044044F007044FF68F70044007
:1021200044F070042C81BDE8F081F0B504460D4602
:1021300016461F463B46324629462046FFF7CCFF4F
:10214000208940F480402081F0BD01858282704763
:102150000A46002101884FF68F7319401143018010
:102160007047F0B50C4615461E460021002200239C
:102170000189028B038C4FF6F877394021434FF6E3
:10218000FC473A4040F201173A434FF6DD773B40B7
:102190004FF6FF7707EA06172F433B43018102837F
:1021A0000384F0BD0A460021018B4FF68F7319405E
:1021B0001143018370470A460021018B48F6FF73E3
:1021C00019404FF6FF7303EA022319430183704756
:1021D0000A460021818B4FF68F731940114381838A
:1021E00070470A460021818B48F6FF7319404FF66D
:1021F000FF7303EA022319438183704721B10288E8
:1022000042F08002028004E002884FF67F731A4099
:102210000280704721B1828842F00402828004E08B
:1022200082884FF6FB731A408280704721B1828802
:1022300042F00802828004E082884FF6F7731A4069
:102240008280704721B1828842F00102828004E0DE
:1022500082884FF6FE731A40828070470A4600213A
:10226000018B4FF6F77319401143018370470A46FB
:102270000021018B4FF2FF7319404FF6FF7303EA01
:1022800002231943018370470A460021818B4FF6D0
:10229000F77319401143818370470A460021818BEF
:1022A0004FF2FF7319404FF6FF7303EA02231943FD
:1022B000818370470A460021018B4FF6FB7319405A
:1022C0001143018370470A460021018B4FF6FF330B
:1022D00019404FF6FF7303EA022319430183704745
:1022E0000A460021818B4FF6FB731940114381830D
:1022F00070470A460021818B4FF6FF3319404FF695
:10230000FF7303EA02231943818370470A460021C1
:10231000018B4FF67F7319401143018370470A46C2
:102320000021018BC1F30E014FF6FF7303EA022374
:102330001943018370470A460021818B4FF67F7352
:1023400019401143818370470A460021818BC1F3F4
:102350000E014FF6FF7303EA02231943818370478E
:102360000A460021018C4FF6FD7319401143018488
:1023700070470A460021018C4FF6F773194011434C
:10238000018470470A460021018C4FF6DF73194023
:102390004FF6FF7303EA02131943018470470A469C
:1023A0000021018C4FF67F7319404FF6FF7303EA4B
:1023B00002131943018470470A460021018C4FF62D
:1023C000FF5319404FF6FF7303EA022319430184B8
:1023D00070470A460021018C4FF2FF7319404FF6F7
:1023E000FF7303EA02231943018470470A46002160
:1023F000018C4DF6FF7319404FF6FF7303EA023369
:1024000019430184704730B5002301248C40A3B2E6
:10241000048C9C430484048C02FA01F5ADB22C4375
:10242000048430BD30B5002304248C40A3B2048C56
:102430009C430484048C02FA01F5ADB22C4304845D
:1024400030BD70B503460020002418461830012521
:102450008D40ACB21D8CA5431D8409B1082909D15A
:1024600000EB6100056825F07005056005681543FF
:1024700005600EE00D1FC5F34E052844056825F4E0
:10248000E045056005684FF6FF7606EA022635430B
:10249000056070BD21B1028842F00202028004E0B2
:1024A00002884FF6FD731A400280704721B10288FE
:1024B00042F00402028004E002884FF6FB731A40E7
:1024C0000280704721B1828842F08002828004E05D
:1024D00082884FF67F731A408280704702884FF6D9
:1024E000F7731A40028002880A430280704782888C
:1024F0004FF68F731A40828082880A438280704729
:1025000002894FF6F8731A40028102890A43028158
:10251000704702894FF67F731A40028102890A438D
:10252000028170478184704781857047818670473A
:102530000187704781877047A0F840107047028874
:102540004FF6FF431A40028002880A430280704718
:102550000146888E70470146088F70470146888F74
:1025600070470146B1F8400070470146888C7047BB
:102570000146088D704702460020138A0B400BB1BC
:10258000012000E000207047CA430282704730B546
:102590000246002000230024158A05EA01039589DC
:1025A00005EA010413B10CB1012000E0002030BDA8
:1025B000CA4302827047000010B50446FB488442BB
:1025C00009D101218803FFF79FF800214FF48040D3
:1025D000FFF79AF832E0F648844209D10121480415
:1025E000FFF79FF800214FF40030FFF79AF825E03D
:1025F000F048844209D101218804FFF792F80021B4
:102600004FF48020FFF78DF818E0EB48844209D1A1
:102610000121C804FFF785F800214FF40020FFF7DF
:1026200080F80BE0E548844208D101210805FFF756
:1026300078F800214FF48010FFF773F810BD2DE9F2
:10264000F04786B005460E460024A24600BFA146CC
:102650000027B08900B100BF2F462C8A4CF6FF70CE
:102660000440F08804432C82AC894EF6F3100440F9
:10267000B08831890843718908430443AC81AC8A2E
:102680004FF6FF400440B0890443AC8201A8FEF736
:10269000B4FFC648874202D1DDF810A001E0DDF8A2
:1026A0000CA0A88900F4004040B10AEBCA0000EB7E
:1026B0000A1031684900B0FBF1F807E00AEBCA00E4
:1026C00000EB0A1031688900B0FBF1F86420B8FB18
:1026D000F0F004012009642101FB1089A88900F4AD
:1026E000004040B1322000EBC900B0FBF1F000F037
:1026F0000700044308E0322000EB09106421B0FB1E
:10270000F1F000F00F0004432C8106B0BDE8F08723
:102710004FF41651016000218180C18001810C219C
:10272000418100218181704710B502460020108A46
:102730004FF2FF0318400B884C8823438C882343B7
:10274000CC8823431843108210BD002101804180B2
:102750008180C180704721B1828942F40052828118
:1027600004E082894DF6FF731A4082817047F0B50C
:102770000346002400260025002040F66A17B942CF
:1027800000D100BF1846C1F3421401F01F06012713
:1027900007FA06F5012C01D10C3004E0022C01D11E
:1027A000103000E014301AB107682F43076002E0D0
:1027B0000768AF430760F0BD1AB1838A0B43838279
:1027C00002E0838A8B4383827047028A4FF6F0735C
:1027D0001A400282028A0A430282704782894FF2BB
:1027E000FF731A40828182890A438281704721B136
:1027F000828942F00202828104E082894FF6FD73F1
:102800001A4082817047028A4FF6DF731A400282B3
:10281000028A0A430282704721B1028A42F480424E
:10282000028204E0028A4BF6FF731A40028270476C
:10283000C1F308028280704701468888C0F308000F
:102840007047818941F0010181817047028BD2B2CA
:102850000283028B42EA012202837047028B02F458
:102860007F420283028B0A430283704721B1828A2E
:1028700042F02002828204E0828A4FF6DF731A401F
:102880008282704721B1828A42F01002828204E083
:10289000828A4FF6EF731A408282704721B1828A92
:1028A00042F00802828204E0828A4FF6F7731A40EF
:1028B0008282704721B1828942F40042828103E022
:1028C0008289C2F30E028281704721B1828A42F46A
:1028D0000062828204E0828A4FF2FF731A40828291
:1028E0007047828A4FF6FB731A408282828A0A43BB
:1028F0008282704721B1828A42F00202828204E021
:10290000828A4FF6FD731A40828270470246002089
:10291000B1F5007F00D100BF13880B400BB101203F
:1029200000E00020704701F40072B2F5007F00D192
:1029300000BFCA430280704770B5024600240023DE
:102940000025002040F66A16B14200D100BFC1F355
:10295000421501F01F03012606FA03F3012D02D1EF
:102960009689334006E0022D02D1168A334001E0F9
:10297000968A33400C12012606FA04F41688344075
:1029800013B10CB1012000E0002070BD10B5002291
:10299000002340F66A14A14200D100BF0A120124AC
:1029A0009440A3B2DC43048010BD00000038014015
:1029B0000044004000480040004C004000500040EF
:1029C00001460020FE4A106800F0380008431060FD
:1029D0007047FB49096821F00801F94A1160114666
:1029E0000968014311607047F549096821F0100139
:1029F000F34A116011460968014311607047F148BC
:102A0000EF494860F04848607047EE48EC4948603C
:102A1000ED4848607047EA48006940F08000E849A6
:102A200008617047E648006940F08000E4490861A9
:102A300070470420E249C96801F0010109B1012091
:102A40000EE0DF49C96801F0040109B1022007E086
:102A5000DB49C96801F0100109B1032000E004203E
:102A6000704700B502460423FFF7E3FF034603E087
:102A7000FFF7DFFF0346521E012B01D1002AF7D1D9
:102A800002B90523184600BD30B5044604254FF4AD
:102A90003020FFF7E6FF0546042D17D1C84800692E
:102AA00040F00200C649086108464461006940F0F0
:102AB000400008614FF43020FFF7D3FF0546C048BF
:102AC000006941F6FD710840BD490861284630BDE6
:102AD00010B504244FF43020FFF7C3FF0446042C44
:102AE00016D1B748006940F00400B54908610846AE
:102AF000006940F0400008614FF43020FFF7B1FF5B
:102B00000446AF48006941F6FB710840AC490861D2
:102B1000204610BD00B502460423FFF78AFF034696
:102B200003E0FFF786FF0346521E012B01D1002A66
:102B3000F7D102B90523184600BD10B504244FF49F
:102B40003020FFF7E7FF0446042C16D19C480069AB
:102B500040F004009A4908610846006940F04000CE
:102B600008614FF43020FFF7D5FF04469448006910
:102B700041F6FB71084092490861204610BD0020D3
:102B80008F49C96901F0020109B1012000E000206C
:102B9000704730B5A5250424FFF7F1FF00B10025EB
:102BA0004FF43020FFF75DFF0446042C3AD18548EE
:102BB00083498860844888600846006940F02000A6
:102BC00008610846006940F0400008614FF4302079
:102BD000FFF747FF0446042C1BD17948006941F6F2
:102BE000DF710840764908610846006940F010002E
:102BF000086176480580E002FFF733FF0446052CA4
:102C000010D06F48006941F6EF7108406C490861C7
:102C100008E0052C06D06A48006941F6EF710840CB
:102C200067490861204630BD78B506460C46042544
:102C300000200090E802FFF714FF0546042D24D180
:102C40005F48006940F001005D4908613480E80296
:102C5000FFF707FF0546042D10D1B01C0090200C93
:102C600000990880E802FFF7FCFE05465448006919
:102C700041F6FE7108405249086106E0504800697B
:102C800041F6FE7108404E490861284678BD70B58E
:102C900004460D460426F002FFF7E3FE0646042E26
:102CA00011D14748006940F001004549086125807D
:102CB000F002FFF7D6FE06464148006941F6FE7174
:102CC00008403F490861304670BD70B505460E4664
:102CD0000424E002FFF7C5FE0446042C17D139484E
:102CE00037498860384888600846006940F010001D
:102CF00008612E80E002FFF7B4FE0446052C06D0E2
:102D00002F48006941F6EF7108402D4908612046BF
:102D100070BD2DE9F04304464FF6FF763746B046C6
:102D2000B1460425E443E6B2C4F30727C4F30748D9
:102D30004FEA1469E802FFF794FE0546042D49D1D5
:102D400020481F498860204888600846006940F094
:102D500010000861FF2E06D01C4808300680E802EB
:102D6000FFF77FFE0546042D08D1FF2F06D0174838
:102D70000A300780E802FFF774FE0546042D0AD1E9
:102D8000B8F1FF0F07D011480C30A0F80080E8021E
:102D9000FFF767FE0546042D0AD1B9F1FF0F07D0F2
:102DA0000A480E30A0F80090E802FFF75AFE0546E8
:102DB000052D0FD00248006941F6EF71084007E089
:102DC0000020024023016745AB89EFCD00F8FF1FCB
:102DD000664908612846BDE8F08330B505460424FD
:102DE0004FF43020FFF73DFE0446042C41D16048EB
:102DF0005E4988605F4888600846006940F02000AE
:102E000008610846006940F0400008614FF4302036
:102E1000FFF727FE0446042C22D15448006941F6EE
:102E2000DF710840514908610846006940F0100010
:102E300008611DB100205049088002E0A5204E49DC
:102E400008804FF43020FFF70CFE0446052C10D00C
:102E50004648006941F6EF7108404449086108E0BE
:102E6000052C06D04148006941F6DF7108403F4912
:102E70000861204630BDF0B505460E4617460424CD
:102E80003B483A4988603B488860E002FFF7E9FD2B
:102E90000446042C19D13548006940F0100033492C
:102EA000086147F0F800304328433349891C088003
:102EB000E002FFF7D6FD0446052C06D02B4800693A
:102EC00041F6EF710840294908612046F0BD2748C6
:102ED000C069800870472548006A70470020234970
:102EE000096801F0200109B1012000E000207047CD
:102EF00029B11E4A126902431C4B1A6104E01B4AA5
:102F000012698243194B1A6170470146002001295A
:102F100008D1164AD26902F001020AB1012008E084
:102F2000002006E0114AD2680A400AB1012000E000
:102F3000002070470D49C860704704200B49C968DC
:102F400001F0010109B101200EE00849C96801F052
:102F5000040109B1022007E00449C96801F0100129
:102F600009B1032000E00420704700000020024067
:102F700023016745AB89EFCD00F8FF1F10B56FF057
:102F80000400FDF7B4FE2E4800682E49B0FBF1F0B6
:102F90002D4908700846007800EB4001C1EBC010D5
:102FA0004FF6FF7101EAC0002849088010BD0146B4
:102FB000254A12784A434FF0E0235A6100229A6171
:102FC0001A46126942F001021A6100BF4FF0E02276
:102FD000106900F001021AB100F48032002AF5D025
:102FE0004FF0E022126922F001024FF0E0231A6153
:102FF00000229A6170470146144A12884A434FF0F2
:10300000E0235A6100229A611A46126942F00102D5
:103010001A6100BF4FF0E022106900F001021AB1FE
:1030200000F48032002AF5D04FF0E022126922F03D
:1030300001024FF0E0231A6100229A6170470000FC
:103040001800002000127A004000002042000020FA
:1030500010B54FF4A060FDF7FBFD10BD014600BFA9
:10306000704700BF454A128802F04002002AF9D09A
:10307000C2B2424B1B1D1A80704700BF40490988ED
:1030800001F040010029F9D03D49091D0880704731
:1030900010B586B00446012144F20400FEF71AFB85
:1030A0004FF40070ADF8140003208DF816001820BE
:1030B0008DF8170005A93348FEF750F84FF48060EB
:1030C000ADF8140004208DF8170005A92D48FEF76F
:1030D00045F825208DF8000003208DF801008DF8BB
:1030E000020001208DF803006846FDF7B6FD01944B
:1030F0000020ADF80800ADF80A00ADF80C00ADF8FE
:1031000010000C20ADF80E0001A91D48FFF797FA3A
:10311000012240F225511A48FFF729FB01211848E6
:10312000FFF719FB06B010BD10B540F22551144849
:10313000FFF702FC08B31248FFF77EFBC4B2542C21
:103140001BD0532C03D100200F49088015E0302CF0
:1031500013DB0E480C49098844540B480088401C76
:10316000094908800846007800F00F00022804DBB7
:103170000846008840F40040088010BD004400402C
:103180000038014000080140480000206400002091
:1031900008B501216C20FEF79DFAF020ADF8000083
:1031A00010208DF8030003208DF8020069462048A6
:1031B000FDF7D4FFF0211E48FEF77FF84FF4707042
:1031C000ADF8000010208DF8030003208DF80200F8
:1031D00069461848FDF7C2FF4FF470711548FEF7B5
:1031E0006AF87B20ADF8000010208DF80300032062
:1031F0008DF8020069461048FDF7B0FF78210E48AF
:10320000FEF75BF803210C48FEF755F87020ADF887
:10321000000010208DF8030003208DF8020069469D
:103220000648FDF79BFF70210448FEF746F808BDED
:1032300000080140000C014000140140001801404A
:1032400008B501210820FEF745FA4FF44040ADF8DB
:10325000000028208DF8030069461548FDF77EFF21
:1032600008BD10B54FF480411148FEF70AF850B977
:103270000120FFF7C0FE4FF480410D48FEF701F832
:10328000A0B9022010BD4FF400410948FDF7F9FF35
:1032900050B90120FFF7AFFE4FF400410448FDF79D
:1032A000F0FF18B90320EDE70020EBE700BFE9E7E6
:1032B000000C01402DE9F04107460D4616461C461C
:1032C00001210846FEF7F9F93846FDF72FFD2F4892
:1032D00004802F480560466010202D49886008460C
:1032E000C460002008618020486100208861C861B6
:1032F00008624FF480504862002088623846FDF72B
:10330000B7FDBDE8F08110B5044600212046FDF769
:10331000DAFD1E4801881F48FDF7EAFD012120461D
:10332000FDF7D1FD10BD70B504460E4615461A488E
:10333000406940F00100184948610520FFF737FE59
:10334000A660E56000202060206840F0100020604A
:103350002068206020682060206840F080002060A5
:103360002068206020682060206840F48050206041
:103370002068206070BD026822F001020260416096
:10338000026842F001020260704700004A0000201B
:103390002C010020800002400010024050B14FF08C
:1033A0008041098841F001014FF0804211800021E5
:1033B000918405E0DB49098821F00101D94A118097
:1033C00070477FB505460C4601210846FEF78FF988
:1033D000ADF80850ADF804400020ADF80A00ADF893
:1033E000060001A94FF08040FEF7ACFA0122114619
:1033F0009007FEF71EFE1C208DF8000003208DF8BC
:1034000001008DF8020001208DF803006846FDF7E9
:1034100024FC01218807FEF7F1FD0120FFF7BEFF24
:103420007FBD7FB505460C4601210220FEF75FF9FE
:10343000ADF80850ADF804400020ADF80A00ADF832
:10344000060001A9B748FEF77DFA01221146B548EA
:10345000FEF7EFFD1D208DF8000002208DF8010021
:1034600003208DF8020001208DF803006846FDF767
:10347000F4FB0121AB48FEF7C1FD7FBD50B1A94966
:10348000098841F00101A74A11800021A54A243290
:10349000118005E0A349098821F00101A14A1180AA
:1034A000704710B5A048007848B9A04800884FF68A
:1034B000FF7202EA80019E48FFF73CF828E09A4834
:1034C0000078012809D1994840884FF6FF7202EA36
:1034D00080019748FFF730F81AE0934800780228F7
:1034E00009D1924880884FF6FF7202EA8001904825
:1034F000FFF71CF80CE08C480078032808D18B48B3
:10350000C0884FF6FF7202EA80018948FFF710F881
:1035100010BD10B58748007801280DD18648008875
:10352000401C8549088008460088C82804D100202E
:10353000088002207F49087001218807FFF727F8DB
:10354000002844D001218807FFF732F8FFF789FEF1
:10355000022821D175487449097830F81100FA28F9
:1035600010DA7249704A127801EB42000188491C56
:103570000180FFF796FF01206E49087000206E4918
:10358000088024E0FA206949674A127821F812007D
:103590000020694908801AE0FFF763FE032816D16E
:1035A00062486149097830F8110000280FDD5F4951
:1035B0005D4A127801EB42000188491E0180FFF745
:1035C00070FF01205B49087000205B49088010BD36
:1035D0007FB505460C4601210420FEF788F8ADF8BA
:1035E0000850ADF804400020ADF80A00ADF8060020
:1035F00001A94F48FEF7A6F9012211464C48FEF7F3
:1036000018FD1E208DF8000003208DF80100012018
:103610008DF802008DF803006846FDF71EFB0121BE
:103620004348FEF7EBFC7FBD50B14149098841F0AA
:1036300001013F4A118000213D4A2432118005E0FA
:103640003B49098821F00101394A11807047384807
:103650001030008800F0010038B135481030008883
:1036600020F00100324910310880704730B589B030
:1036700005460C4601210420FEF739F801210920F6
:10368000FEF728F84FF47070ADF8200018208DF880
:10369000230003208DF8220008A92848FDF75EFDCD
:1036A0004FF470712548FDF706FEADF81850ADF8DF
:1036B00014400020ADF81A00ADF8160005A91C480A
:1036C000FEF740F97020ADF804000120ADF80600C7
:1036D0000020ADF80C0001A91548FEF770F901A90A
:1036E0001348FEF7AEF901A91148FEF7F7F901A951
:1036F0000F48FEF73EFA08210D48FEF7AFFD0821FE
:103700000B48FEF7B4FD08210948FEF7BDFD08216E
:103710000748FEF7C2FD01210548FEF76FFC09B01E
:1037200030BD000000040040080000200A00002016
:10373000000800401200002014000020000C01408E
:10374000002004E00021884A1154411C88B240281E
:10375000F8DB0021854A11807047002004E0002139
:10376000834A1154411C88B24028F8DB70470FB4DB
:1037700008B503A800907E48009A029900F00AFC60
:103780000020009002217B48FDF795FD0A20FFF7FD
:1037900032FC774800F01CFD774908800846008815
:1037A000402801DD40200880012280217348FFF776
:1037B00003F87348FFF7A7FD00BF4FF00070FDF757
:1037C0009DFB0028F9D04FF00070FDF7ABFBFFF731
:1037D000C4FF0A20FFF70FFC02216648FDF76DFDCC
:1037E00001B05DF814FB10B50246002010E000BFE8
:1037F000624B1B8803F04003002BF9D00346441CA6
:10380000A0B2D35C5D4C241D2380884200DB01E024
:103810008842ECDB00BF10BD10B586B00446012124
:103820004804FDF764FF01210420FDF753FF022047
:10383000ADF8140003208DF8160010208DF8170045
:1038400005A94C48FDF78AFC02214A48FDF735FDE1
:103850000420ADF8140003208DF8160018208DF810
:10386000170005A94348FDF779FC0820ADF81400BE
:1038700004208DF8170005A93E48FDF76FFC2620AF
:103880008DF8000001208DF8010002208DF8020063
:1038900001208DF803006846FDF7DFF90194002050
:1038A000ADF80800ADF80A00ADF80C00ADF8100056
:1038B0000C20ADF80E0001A93048FEF7C0FE012231
:1038C00040F225512D48FEF752FF01212B48FEF70B
:1038D00042FF41F61F416320FFF7A3FD06B010BD74
:1038E00010B52848008800F0010008B3254800887A
:1038F00020F001002349088023480088022805D1D0
:1039000021480088401E2049088011E01E48008898
:1039100001280DD11C480088401E1B49088013480F
:10392000008840F40040114908800020FFF7A6FD00
:1039300010BD10B50120FFF7A1FD40F225510F4841
:10394000FEF7FAFF78B102200F4908800B48FEF716
:1039500073FFC4B2044805490988445403480088E9
:10396000401C0249088010BD980100204C00002036
:1039700058010020000801404A0000200044004097
:1039800080000240100400404E000020002004E0AF
:103990000021594A1154411C88B24028F8DB00210B
:1039A000564A11807047002004E00021544A115407
:1039B000411C88B24028F8DB70470FB438B505A821
:1039C00000904F48009A049900F0E4FA002000901B
:1039D0004B4800F0FDFB85B2002411E000BF4948D0
:1039E000008800F040000028F9D02046611C8CB20D
:1039F0004349085C4349091D0880402C00DB01E075
:103A0000AC42EBDB00BFFFF7CEFF38BC5DF814FB28
:103A100000BF3C49098801F040010029F9D039492B
:103A2000091D0880704710B586B00446012188043E
:103A3000FDF75DFE01210820FDF74CFE4FF480608C
:103A4000ADF8140003208DF8160018208DF817002B
:103A500005A92D48FDF782FB4FF40060ADF8140076
:103A600004208DF8170005A92748FDF777FB2720CC
:103A70008DF8000002208DF801008DF80200012071
:103A80008DF803006846FDF7E8F801944FF4805084
:103A9000ADF808000020ADF80A004FF48060ADF8E2
:103AA0000C000020ADF810000C20ADF80E0001A9AC
:103AB0001448FEF7C4FD012240F225511148FEF7DB
:103AC00056FE01210F48FEF746FE4FF4E1514FF438
:103AD0007A70FFF77DFD0020FFF7A6FDFFF756FF88
:103AE00006B010BD0749098801F0200119B1054948
:103AF000091D0988C8B27047180200205000002034
:103B0000D801002000480040000C014008B5012108
:103B10007C20FDF7DFFD7C20ADF8000010208DF843
:103B2000030003208DF8020069464F48FDF716FB9D
:103B30007C214D48FDF7C1FB0F20ADF8000010209F
:103B40008DF8030003208DF8020069464748FDF711
:103B500005FB0F214548FDF7B0FB2020ADF8000024
:103B600010208DF8030003208DF8020069464048BC
:103B7000FDF7F4FA20213E48FDF79DFB01203D4969
:103B8000086008BD70B5044600203A49091F086066
:103B9000002521E000203749091D08600120FFF7BA
:103BA00006FA04F08000802804D101203149083150
:103BB000086003E000202F49083108600120FFF76A
:103BC000F6F901202B49091D08606006040E01204A
:103BD000FFF7EDF9681CC5B2082DDBDB0120254994
:103BE000091F086070BD0021234A1160234AC2F8F2
:103BF0009411214A083A1160204AC2F88C1130B160
:103C0000012808D002280BD0032813D10DE0012190
:103C1000194A11600FE00121174A121F11600AE0D2
:103C20000121154A083A116005E00121124A0C3AB7
:103C3000116000E000BF00BF704770B504460D463C
:103C40002846FFF7D0FF04F0800040B104F07F0168
:103C50000B4A515C41F08000FFF794FF03E00849F4
:103C6000085DFFF78FFF70BD001801400010014094
:103C7000000C0140840122429801234200002342AB
:103C8000520000201FB501210920FDF723FD4FF44C
:103C90000050ADF8000004208DF8030069465C4830
:103CA000FDF75CFA0D210120FDF76EFB4FF400508B
:103CB000029000208DF80C000C208DF80D000120E2
:103CC0008DF80E0002A8FDF769F928208DF8040090
:103CD00001208DF8050002208DF8060001208DF8E6
:103CE000070001A8FCF7B9FF1FBD1FB50121412046
:103CF000FDF7F0FC0320ADF8000004208DF8030070
:103D000069464448FDF72AFA00210420FDF73CFBF0
:103D10000120029000208DF80C000C208DF80D0081
:103D200001208DF80E0002A8FDF738F901210420CA
:103D3000FDF72AFB0220029000208DF80C000820DD
:103D40008DF80D0001208DF80E0002A8FDF726F970
:103D500006208DF8040001208DF8050002208DF862
:103D6000060001208DF8070001A8FCF776FF072068
:103D70008DF8040001208DF8050002208DF8060062
:103D800001208DF8070001A8FCF767FF1FBD10B5E3
:103D90000120FFF730F90120FDF777F91E4801688F
:103DA0001EA000F009F910BD10B50220FDF76DF955
:103DB00002211848FDF765FA01280BD1FFF71BF91E
:103DC00002211448FDF75DFA012806D11CA000F07D
:103DD000F3F802E01BA000F0EFF810BD10B50120D1
:103DE000FFF709F94FF40050FDF74FF94FF4005178
:103DF0000748FDF746FA50B913480078401C1249AD
:103E0000087008460078042801DB0020087010BD07
:103E1000000C0140001801400401234274726967DC
:103E200067657220696E707574312076616C756596
:103E3000206E6F772069732025640D0A0000000052
:103E4000310D0A00300D0A000800002001460888E4
:103E500070472DE9F04105460E461746002407E05D
:103E600036F814102846FEF712FFAD1C601C84B211
:103E7000BC42F5DBBDE8F08130B503460C46154683
:103E8000002207E01846FFF7E1FF24F812009B1C10
:103E9000501C82B2AA42F5DB30BD2DE9F05F8046AE
:103EA0008A461746B8F1006F02D33748804501D3E0
:103EB000BDE8F09FFEF7A3FDA8F1006B4FEADB25FC
:103EC000CBF34909C9F58064A74200DC3C464DE0CC
:103ED0004FF0006101EBC5204A142C49FFF7CCFFDD
:103EE00000260BE009EB0600284931F810004FF6D8
:103EF000FF71884200D003E0701C86B2A642F1DB5D
:103F000000BFA6421BDA4FF0006101EBC520FEF7AF
:103F1000BBFD002608E03AF8160006EB09011B4A33
:103F200022F81100701C86B2A642F4DB4FF000614B
:103F300001EBC5204A141549FFF78BFF04E0224628
:103F400051464046FFF785FFA74200D10FE06D1CA8
:103F50004FF000090AEB440AA044381B87B2B7F5BA
:103F6000806F02DD4FF4806400E03C46B0E700BFA4
:103F7000FEF751FD00BF9BE713B50446012201A9DE
:103F80002046FFF78AFF1CBD0000080858020020E9
:103F9000704700001CB50C46064B7B4469460090F8
:103FA000204600F00CFA04460020694600F01AFA98
:103FB00020461CBD470400000FB4044910B503AAF5
:103FC000029800F015FA10BC5DF814FB44000020C4
:103FD0002DE9F0410646002410687529314616A5E2
:103FE00010D000F03FF9002802DA404213A507E0A4
:103FF00031688A0701D512A502E0490704D511A549
:10400000012401E000F037F900210A2206F124071B
:1040100009E0B0FBF2FCB0FBF2F302FB1C00303015
:1040200078541846491C0028F3D123462A463046C6
:10403000BDE8F04100F051B9000000002D00000083
:104040002B000000200000002DE9F05F89460446A7
:104050004FF0000ADFF874B1FB44C0F820A02046FE
:10406000E1688847002874D0252806D0D4E90121CA
:104070009047206A401C2062F1E700265F462046F8
:10408000E16888472028054607DB312D05D27819DD
:1040900010F8200C08B10643F1E7B00701D526F06F
:1040A0000406C4F81CA00027C4F818A02A2D09D0C3
:1040B000284601F06CFA38B304EB8708303DC8F8A5
:1040C000185019E059F8041B204604EB870291614F
:1040D000E1688847012F054618D1E069002820DAF9
:1040E00026F020061DE0D8F8180000EB800005EB54
:1040F00040003038C8F818002046E1688847054677
:1041000001F045FA0028EED1012F0AD02E2D08D15A
:104110002046E16888477F1C0546022F46F02006AE
:10412000C4DBA069002803DA404246F00106A06122
:10413000F00701D026F010066C2D0BD0682D09D0A9
:104140004C2D39D06A2D35D0742D35D07A2D33D001
:1041500016E038E0E1682F4620468847B842054619
:1041600009D16C2F26D04FF48060E16806432046C9
:104170008847054604E06C2F1AD04FF48070064340
:104180000DB3A5F14100192802D8203546F4006688
:104190004A462946204626604E46FCF703F880B181
:1041A00001280BD0F61D26F0070000F1080956E79C
:1041B0004020E4E78020D8E70020D6E706F1040994
:1041C0004DE7284652E7206ABDE8F09F9C150000A5
:1041D00010B5431C02E010F8011B71B18107FAD140
:1041E0004FF0013202C88C1A8C4314EAC211F9D084
:1041F000C01A0A0603D0C01E10BDC01A10BD0A04A2
:1042000001D0801E10BD0902FCD0401E10BD7047B9
:1042100070477047704770B5044685690068C106ED
:1042200001D5302600E02026C00707D070BDD4E9B4
:10423000012130469047206A401C20626D1EF6D551
:1042400070BD70B5044685690078C00707D170BDA0
:10425000D4E9012120209047206A401C20626D1E75
:10426000F6D570BD09684A0501D540B27047C90549
:10427000FCD500B2704709684A0501D5C0B2704745
:10428000C905FCD580B2704770B50C460546012AB9
:1042900005D02878800600D5EA69002302E00123D2
:1042A00005E05B1C934202D2E05C0028F9D1A869CA
:1042B000E618C01AA861286A184428622846FFF741
:1042C000AAFF04E0D5E9012114F8010B9047B4429C
:1042D000F8D32846FFF7B5FF70BD2DE9F0470D462E
:1042E00099469246044600F124080168880604D5E0
:1042F000E06921F01001216000E00120A84201DD09
:10430000471B00E00027A1697A1902EB0900081A8F
:10431000A0612078C00602D42046FFF77CFF00266B
:1043200008E0D4E901211AF806009047206A401CF1
:10433000761C20624E45F4DB2078C0060AD5204664
:10434000FFF769FF06E0D4E9012130209047206A99
:10435000401C2062381EA7F10107F4DC07E0D4E915
:10436000012118F805009047206A401C2062281E91
:10437000A5F10105F3DC2046FFF763FF2078000676
:1043800002D50220BDE8F0870120FBE71168026832
:10439000006A530501D508700AE0D30501D50880ED
:1043A00006E0130603D5C217C1E9000200E0086069
:1043B0000120704701694A1C02610878704700B506
:1043C0008FB0CDE901310021059105497944CDE94E
:1043D000031011466846FFF737FE0FB000BD00001E
:1043E000E5FFFFFF0A6802F8010B0A607047000052
:1043F000074B70B50D467B44FFF7E1FF04462846A6
:1044000000F0A4FB10B14FF0FF3070BD204670BD2E
:1044100069ECFFFF2DE9FF5F15468A460446DFF889
:10442000AC80F8440027D8E900103E46CDE90010E2
:1044300010E03AF816106A4602A800F08BFB411C07
:1044400007D02178890603D5E269391891420DD841
:104450000744761C2078800602D5E069B84205DD65
:10446000AE42E6DB3AF816000028E2D1A069C01B94
:10447000A0612046FFF7CFFED8E90010CDE900107B
:10448000002017E03AF818106A4602A800F062FB14
:10449000B0F1FF3F81460BD000250DF1080B05E080
:1044A000D4E901211BF8050090476D1C4D45F7D359
:1044B00008F10100B0428046E4DB206A3844206203
:1044C0002046FFF7BEFEBDE8FF9F0000E61100009A
:1044D0002DE9F0418046D21D22F007020025D2E9E5
:1044E0000002F52915A614D0011E72F1000106DAAA
:1044F0000023D0EB030063EB020211A608E0D8F81A
:1045000000108B0701D50FA602E0490701D50EA6C2
:1045100001251146002408F1240704E000F098F872
:1045200030323A55641C50EA0102F7D12B4632462C
:1045300021464046BDE8F041FFF7CFBE0000000035
:104540002D0000002B0000002000000030B40021EE
:1045500000F1240408E002F00705D208303542EAF1
:104560004372DB086554491C52EA0305F3D1046821
:10457000002310A2250708D504F020040C4304D022
:10458000C46901230CA2641EC46130BCFFF7A5BE40
:1045900010B5044621461068FFF76DFE024620461E
:1045A000BDE810400023D1E7D21D22F00701D1E978
:1045B0000023CBE70000000030000000F0B40D46FF
:1045C0000188090502D5214C7C4402E01F4C7C4443
:1045D0000E34002100F1240608E002F00F07120952
:1045E000E75D42EA03721B097754491C52EA03074C
:1045F000F3D102780023120704D5702D06D009B13B
:10460000022311342246F0BCFFF767BE01231034A9
:10461000F8E770B504460D4621461068FFF72BFEFB
:10462000024629462046BDE870400023C6E7D21D59
:1046300022F00703D3E90023C0E70368126843F0C0
:10464000200303600823C3610023B7E7481000007C
:1046500030B5B0F10A024FEA900E71F100034EEA54
:10466000817EB0EB0E0061EB91014FEA101E4EEA25
:10467000017E10EB0E0041EB11114FEA102E4EEAB5
:10468000016E10EB0E0041EB11214FEA104E4EEA85
:10469000014E10EB0E0041EB1141401841F10001B9
:1046A0004FEAD00040EA41704FEAD10110EB80059B
:1046B0004FEA810444EA907444EB01046D1944EB21
:1046C0000404521BA3414FF0000348BF0A3200D537
:1046D00030BD401C41F1000130BD70472DE9FF4F56
:1046E0000C461E464FF0FF378BB0D2E90001DDF8D3
:1046F00060800A908A46C1F30A5505B93D460021FB
:1047000008464FF00000BAF1000F00F4400005DA4F
:1047100000EB80004FF4400101EA50004FEA90594D
:10472000B9F1010F00DDB9460A9850EA4A000ED0EF
:1047300044F61050A5F2FF3545432F14B8F1000F91
:104740001ED07542291E1EDDC9F100021CE0B8F121
:10475000010F4FF0000001D0302103E0F24305E0EB
:104760002154401CB042FBDB304600220021215482
:104770000B99C1F80880C1E900200FB0BDE8F08FA7
:10478000BD1B6D1CDEE74A4600DA694206A800F050
:1047900073FA06AB93E8070003AB83E807005046C3
:1047A0000A9900F025FB8DE80700A0F500501F389E
:1047B00000900398002D09DD42F21F014A4608448B
:1047C00003A90390684600F084FD08E0A0F50050BE
:1047D0004A461F3803A90390684600F08EFD8DE815
:1047E00007000004000C03D04FF0FF30410800E048
:1047F0001046B8F1000F03D00022009215461EE0CB
:10480000751E05D4FFF724FF303262556D1EF9D5B1
:10481000B3460122084302D000227F1C04E0207826
:10482000302801D100227F1E002A099786D01DE082
:10483000112D07DAFFF70CFF303262556D1C50EA7C
:104840000102F5D1084302D00098C8B10EE0002162
:10485000681E05E0235C625C63542254401E491CC0
:104860008142F7DBAB46A81B401E0990002004F8EC
:104870000B000B98099AC0F80880C0E9002B7CE770
:1048800011264FF0000859E72DE9F04F88460446FD
:10489000D21D22F0070191B0D1E90001CDE90A0152
:1048A00000F061FE02460B98C00F01D02D2007E0FA
:1048B0002068810701D52B2002E0202101EAC000F9
:1048C000032A099001D0072A05DB0346414620460A
:1048D00000F092F90BE12078800601D5E06900E054
:1048E0000620B8F1650F814606D0B8F1660F18D0E2
:1048F000B8F1670F70D131E00020B9F1110F0090CD
:1049000001DB112301E009F101030AAA01A90CA8A6
:10491000FFF7E4FEDDE90C70002609F1010583468E
:1049200047E001204B4600904FF000470AAA01A93A
:104930000CA8FFF7D3FEDDE90DB00C995D4600260B
:1049400010B909F101000D18B9EB050003D4C0F14D
:10495000FF3609F10105A5EB09002BE0B9F1010FC4
:1049600001DA4FF001090020B9F1110F009048461B
:1049700001DD112300E003460AAA01A90CA8FFF7F4
:10498000ADFEDDE90C704D46002683462078000719
:104990000AD4AB4500DA5D4601A8012D04DD4119BA
:1049A00011F8011C302907D04F4502DA17F1040F26
:1049B00004DA012082460FE06D1EEEE7002F02DCD4
:1049C000ED1B3E4403E0781CA84200DD7D1CB81BB3
:1049D00000F1010A4FF000472078000703D4AA45F0
:1049E00001DB4FF0FF3A0021B7F1004F0DF1430812
:1049F0008DF8431024D002202B23002F01DA7F42B0
:104A00002D230A21021EA0F1010000DC5FB197FBFB
:104A1000F1FC97FBF1F201FB1C7C17460CF1300C0A
:104A200008F801CDEEE7A8F101000370218809051F
:104A300001D5452100E06521A0F1010800F8011C25
:104A400009980FA9A1EB0807FF1D00B1012041192A
:104A500001EBEA70A1693844081A401EA061207871
:104A6000C00602D42046FFF7D6FB099828B1D4E946
:104A700001219047206A401C20622078C00622D580
:104A80002046FFF7C8FB1EE0002E04DBB34502DD25
:104A900001A8805D00E03020D4E901219047206A20
:104AA000401C2062761CAAF101005FEA000A0AD1CC
:104AB00000F09EF8C0680168405CD4E9012190478D
:104AC000206A401C2062281EA5F10105DCDC07E0FD
:104AD000D4E9012118F8010B9047206A401C20629C
:104AE000381EA7F10107F3DC2046FFF7AAFB0320DD
:104AF00011B043E610B5436913B1AFF3008001E094
:104B0000FFF7C2FB012010BD127800F124010A70EA
:104B100000224A700122EDE711684FF0FF32E9E709
:104B200010B5436913B1AFF3008001E0FFF772FCE9
:104B3000012010BD128800F1240182840022C28469
:104B40000122EDE711684FF0FF32E9E7007B00F04A
:104B50008000704770B516460C46054600F040F8D8
:104B6000036893F80101012806D0FF2C0FD8185DC7
:104B700068B101202C7070BDD3F807013246214680
:104B800003F2071303442846BDE8704018474FF06E
:104B9000FF3070BD754600F0E7F8AE460500694687
:104BA000534620F00700854618B020B5FCF73EF8C4
:104BB000BDE820404FF000064FF000074FF000081E
:104BC0004FF0000B21F00701AC46ACE8C009ACE89F
:104BD000C009ACE8C009ACE8C0098D4670470000C8
:104BE00010B500F005F8001D10BD00BFDD09000084
:104BF00000487047780A00202DE9F0411F4604461E
:104C000003260168072A01F4006004DB08B116A539
:104C100005E016A503E008B115A500E015A521F0F3
:104C200010002060A069C01EA0610FB1401EA061ED
:104C30002046FFF7F0FA4FB1D4E9012138469047FA
:104C4000206A401C2062C01C206206E0206AFAE74D
:104C5000D4E9012115F8010B9047761EF8D22046C1
:104C6000FFF7EFFABDE8F0814E414E006E616E0035
:104C7000494E4600696E66002DE9F04781461646AA
:104C80008AB0334878440DC88DE80D003048784428
:104C9000801C03AC0DC884E80D0041F69B3008442D
:104CA000372190FBF1F290FBF1F5A5F1800501FBB6
:104CB00012041B3C02D56442012000E00020DFF812
:104CC00090A080460027FA44AAF1BE0A0DE0E00752
:104CD00009D03246684607EB47010AEB810100F034
:104CE0000CFB8DE8070064107F1C002CEFD1184FDF
:104CF0007F44AC3F18E0E80714D007EB04100DF137
:104D0000180A90E80E008AE80E00C068F04201D14F
:104D100098190890324606A903A800F0EEFA03ABF2
:104D200083E807006D10641C002DE4D1324669460B
:104D3000B8F1000F03A802D000F0CBFA01E000F0B8
:104D4000DCFAC9E90001C9F808200AB0BDE8F0871B
:104D5000300A000010B50446AFF300802046BDE8DD
:104D60001040FBF782BA000000487047580A002044
:104D70004FF0013C50F8042B51F8043B9A4221D1EA
:104D8000A2EB0C03934313EACC1317D150F8042B76
:104D900051F8043B9A4215D1A2EB0C03934313EA5A
:104DA000CC130BD150F8042B51F8043B9A4209D193
:104DB000A2EB0C03934313EACC13DBD04FF00000BB
:104DC000704700BFD01A01BAB1FA81F101F01801A1
:104DD00022FA01F0CB40C1F12001DBB2C0B2C01A0F
:104DE0002CFA01F3D11A914311EAC311E6D17047AD
:104DF0005FEA400C08BF91F0000F4FEA8C234FEAA6
:104E0000C12243EA51514FEA1C5018BF00F5F0404F
:104E10004FEA300018BF41F000415FEA6C5C00F0DF
:104E20002980BCF1FF3F08BF40F080407047130C61
:104E300006BF12044FF0100C4FF0000C130E04BF0D
:104E400012020CF1080C130F04BF12010CF1040C38
:104E5000930F04BF92000CF1020CD30F04BF520059
:104E60000CF1010C11464FF00002A0F11F00A0EB65
:104E70000C00704711F0004F08BF704731F000413F
:104E80003FF4D5AF0B0C06BF09044FF0100C4FF0E8
:104E9000000C0B0E04BF09020CF1080C0B0F04BF31
:104EA00009010CF1040C8B0F04BF89000CF1020CFA
:104EB000CB0F04BF49000CF1010CCCF12003A0EB97
:104EC0000C0022FA03F302FA0CF241EA030100F1AA
:104ED0000100704720F07F4C80EA030023F07F47F9
:104EE000ACEB070303F57C5300F0004003F1FF0334
:104EF0002DE980494FEA154B09B44FEA144325EADE
:104F00000B4E24EA03480FF2042606EB1327490848
:104F10003E785FEA320203FB0667C7F5000707FB2E
:104F200006F64FEA54374FEAD64606F1020607FB6B
:104F3000066CCCF1005C4FEA1C472CEA074C07FBDF
:104F400006F40CFB06F504EB15464FEA961634BF43
:104F500000204FF000404FEAD13706FB07FC4FEA34
:104F60001C4C0CFB0BF7D21B03FB0CF761EB07018E
:104F70000CFB0EF7B0EB074072EB17420CFB08F787
:104F800034BFA2EB0742B2EB074261EB17414FEA95
:104F90000C444FEA910706FB07FC4FEA1C4C0CFB44
:104FA0000BF7B0EBC74072EB573203FB0CF734BF83
:104FB000A2EBC742B2EBC74261EB57310CFB0EF7D5
:104FC000B0EBC70072EB57720CFB08F734BFA2EBD3
:104FD000C702B2EBC70261EB5771039F4FEA8161D1
:104FE00041EA921104EBCC044FEAD1374FEA8262D6
:104FF00006FB07FC42EA90124FEA80604FEA1C4C25
:105000000CFB0BF7D21B03FB0CF761EB07010CFB4E
:105010000EF7B0EB074072EB17420CFB08F734BFFA
:10502000A2EB0742B2EB074261EB17414FEA8C5506
:105030004FEA910704EB9C2406FB07FC4FEA1C4C4B
:105040000CFB0BF7B0EBC74072EB573203FB0CF7CE
:1050500034BFA2EBC742B2EBC74261EB57310CFB46
:105060000EF7B0EBC70072EB57720CFB08F734BFBA
:10507000A2EBC702B2EBC70261EB577115EB4C25EF
:105080004FEA816141EA92114FEA82624FEAD137D9
:1050900042EA901206FB07FC44F100044FEA8060EC
:1050A0004FEA1C4C0CFB0BF7D21B03FB0CF761EB1C
:1050B00007010CFB0EF7B0EB074072EB17420CFB3D
:1050C00008F734BFA2EB0742B2EB074261EB17418E
:1050D00015EB1C154FEA813141EA92414FEA8232C9
:1050E00042EA90424FEA80304FEA0C7644F10004E5
:1050F00048EA03434EEA0B484FF0000EB2EB080CAF
:1051000071EB030724BF624639464EEB0E0E4FF09B
:10511000000B0018524149414BEB0B0BB2EB080C52
:1051200071EB03077BF1000B24BF624639464EEB5F
:105130000E0E4FF0000B0018524149414BEB0B0B88
:10514000B2EB080C71EB03077BF1000B24BF624646
:1051500039464EEB0E0E51EA020718BF46F0010623
:1051600016EB0E7655F1000254F1000103D5BDE8AF
:105170008901BDE80088BDE88901BDE80048B6198D
:10518000524141EB0101A3F10103704780807F7E12
:105190007D7C7B7A797877767675747372717170AD
:1051A0006F6E6E6D6C6C6B6A6A696868676666655F
:1051B0006464636362616160605F5F5E5E5D5D5CED
:1051C0005C5B5B5A5A59595858575756565555555E
:1051D0005454535352525251515050504F4F4F4EBE
:1051E0004E4D4D4D4C4C4C4B4B4B4A4A4A4949490C
:1051F000484848474747474646464545454444444E
:10520000444343434342424242414141002B26D45E
:10521000770021D01CB54FEA370703B44FF01000D8
:105220004FF010014FF000000FBCBDE810400BF133
:10523000010BBBF1010F08BF5FEA170722BF12F194
:10524000010211F101014FF0004143F1000300F0B0
:10525000004043EA00007047F9D35708DAE746EA0E
:10526000064613F1400F4FEA16461FDD13F1200FDB
:10527000DFBF16430A46002120335B42C8D0C3F18A
:10528000200746EA064602FA07F74FEA164646EABC
:105290000706C3F1200722FA03F201FA07F721FA01
:1052A00003F14FF0000342EA0702B1E746EA0206C3
:1052B00046EA06464FEA164646EA0106BCBF46EAFB
:1052C0000646360C4FF000034FF000024FF000018D
:1052D0009EE72DE9C048934630B491E8380007C8EE
:1052E00031EA400C48BF34EA430C03D5FFF7F2FD26
:1052F000FFF78CFFF0BCBDE800882DE9C04893465D
:1053000030B491E8380007C810F0804F08BF13F0A0
:10531000804F03D100F005F8FFF778FFF0BCBDE83F
:10532000008820F07F4780EA030023F07F4C07EBE2
:105330000C03A3F57C5300F00040A3F1FE0392F0B0
:10534000000F00F0B38095F0000F00F077802DE99A
:1053500001494FEA11404FEA144621EA004800FB98
:1053600006FC24EA064708FB06F607FB08F800FBE4
:1053700007F718EB06484CEB164C4FEA124B18EBAC
:1053800007484FEA15464CEB174022EA0B4E0BFB41
:1053900006FC25EA06470EFB06F607FB0EFE0BFB96
:1053A00007F71EEB064E4CEB164C4FF000061EEBBB
:1053B000074E4CEB174B18EB0B0840F1000018EBB5
:1053C0000E0B58EB000840F100008F1A4FF000015F
:1053D0003CBFC943661B14BFB5EB040C00213CBFA6
:1053E000C943F61B4FEA17444EEA8E0E27EA0445DE
:1053F0004FEA1C4704FB07622CEA074C05FB07F742
:105400000CFB05F604FB0CFC16EB074642EB1742BF
:1054100016EB0C4642EB1C421BEB060658EB020255
:10542000414146EA9E0601D5BDE80189B6195241BF
:1054300041EB0101A3F10103BDE801894FEA1445E5
:105440004FEA114724EA054621EA074C05FB07F419
:1054500006FB07F70CFB06F105FB0CFC11EB074103
:1054600044EB17444FEA124711EB0C4144EB1C4448
:1054700022EA074C05FB07F206FB07F70CFB06F6D2
:1054800005FB0CFC16EB074642EB174216EB0C46ED
:1054900042EB1C456A1854F1000148BF7047B61929
:1054A000524141EB0101A3F10103704795F0000F58
:1054B00037D04FEA11424FEA144721EA024624EA64
:1054C000074C02FB07F106FB07F70CFB06F402FB97
:1054D0000CFC14EB074441EB17414FEA154714EB62
:1054E0000C4441EB1C4125EA074C02FB07F506FB87
:1054F00007F70CFB06F602FB0CFC16EB074645EB28
:10550000174516EB0C4645EB1C42121951F10001F0
:1055100048BF7047B619524141EB0101A3F10103A5
:1055200070474FEA14454FEA114724EA054621EA3D
:10553000074C05FB07F106FB07F70CFB06F24FF0E3
:10554000000605FB0CFC12EB074241EB174112EB86
:105550000C4251EB1C4148BF7047921841EB0101CE
:10556000A3F101037047490050EAC12018BF04208D
:105570004A0D18BF40F0010040F2FF72B2EB515FDC
:1055800008BF40F00200012808BF052070473038EE
:105590000A2801D2012070470020704710B5002969
:1055A0000AD00878002807D005487844FFF7E0FBC8
:1055B000002801D0002010BD0248784410BD000032
:1055C000460100003E01000010B500290AD008780D
:1055D000002807D005487844FFF7CAFB002801D00F
:1055E000002010BD0248784410BD000036010000C4
:1055F0002E010000FFF748B9040000080000000079
:105600000000000200010000100000000000000087
:1056100000000000303132333435363738394142FA
:105620004344454640305800303132333435363704
:10563000383961626364656640307800024000007A
:10564000000000A00000000005400000000000C8AD
:10565000000000000C4000000000409C0000000022
:10566000194000000020BCBE0000000034400000D3
:10567000BFC91B8E00000004B5400000504BCFD0C6
:105680006607E2CF010000006C4100003E8251AA93
:10569000DFEEA73401000000D9420000DCB5A0E233
:1056A0003A301F97FFFFFFFFB4450000FD25A0C85B
:1056B000E9A3C14FFFFFFFFFFF3F00000000008094
:1056C00000000000FF3F000000000080000000001C
:1056D0001C58000800000020640000006C01000855
:1056E0008058000864000020541000008801000861
:1056F0001C00000043000000F8FFFFFF0C0000004A
:105700000E0000000F0000002E000000100100003D
:1057100043000000F8FFFFFF004040404040404091
:105720004040414141414140404040404040404074
:105730004040404040404040400502020202020218
:105740000202020202020202022020202020202067
:10575000202020020202020202029090909090907B
:105760001010101010101010101010101010101039
:1057700010101010020202020202888888888888AD
:105780000808080808080808080808080808080899
:1057900008080808020202024000000000000000A1
:1057A00000000000000000000000000000000000F9
:1057B00000000000000000000000000000000000E9
:1057C00000000000000000000000000000000000D9
:1057D00000000000000000000000000000000000C9
:1057E00000000000000000000000000000000000B9
:1057F00000000000000000000000000000000000A9
:105800000000000000000000000000000000000098
:105810000000000000000000000000000010130164
:105820001013000000000000000000000000000055
:105830000000000000A24A04000000000000000078
:105840000102030406070809000000000102030426
:10585000010203040607080902040608000000000C
:1058600000000000000000000000000000003F06F3
:105870005B4F666D7D077F6F777C395E7971083E7F
:0400000508000131BD
:00000001FF
