:020000040800F2
:10000000D8C800200937000861040008630400080C
:10001000670400086B0400086F040008000000007B
:100020000000000000000000000000007304000851
:100030007504000800000000770400087904000837
:100040002337000823370008233700082337000828
:10005000233700082337000875890008D189000874
:10006000138A00086B8A000823370008233700082A
:1000700023370008233700082337000823370008F8
:1000800023370008233700082337000823370008E8
:1000900023370008233700082337000823370008D8
:1000A00023370008233700082337000823370008C8
:1000B000CF840008B1820008CB85000823370008F0
:1000C00023370008233700082337000823370008A8
:1000D00023370008F3610008E3820008D97A00089A
:1000E0002337000823370008233700082337000888
:1000F0002337000823370008233700082337000878
:1001000023370008233700088986000823370008B2
:10011000A17D00089D7F00085D8700082337000847
:100120002337000823370008233700082337000847
:1001300000F002F800F0B2F80AA090E8000C824447
:100140008344AAF10107DA4501D100F0A7F8AFF224
:10015000090EBAE80F0013F0010F18BFFB1A43F0A5
:1001600001031847ACCC0200CCCC02000A444FF08B
:10017000000C10F8013B13F0070408BF10F8014B06
:100180001D1108BF10F8015B641E05D010F8016B4B
:10019000641E01F8016BF9D113F0080F1EBF10F8AF
:1001A000014BAD1C0C1B09D16D1E58BF01F801CBD2
:1001B000FAD505E014F8016B01F8016B6D1EF9D555
:1001C0009142D6D37047000000230024002500266A
:1001D000103A28BF78C1FBD8520728BF30C148BFAA
:1001E0000B6070476E290BF00F8770290BF0D283DC
:1001F00066290EF03B8665290EF0388667290EF0D9
:1002000035866129AFF3008003681B0A28BF41F0DF
:10021000800169290BF0CA8264290BF0C782752915
:100220000BF0C4826F290BF05D8378290BF09E835D
:10023000E9290BF0F582E4290BF0F282F5290BF0A5
:10024000EF82EF290BF05A83F8290BF09D830368A6
:10025000DB0928BF41F0800163290BF01287732965
:100260000BF01787E3290CF0BF85F3290CF0C48548
:10027000002070471FB50EF0EDFD0DF0ABFA040045
:10028000002000210EF09EFA401C6060002000213A
:100290000EF0AEFAE0601FBD10B510BD0DF075FA9E
:1002A0001146FFF7E7FF00F009F80DF04DFB03B42E
:1002B000FFF7F2FF03BC05F043FF000008B505F0AF
:1002C000D7FE05F037FF05F0DBFF06F003F94FF42A
:1002D000165005F042FF4FF4165007F09EFB4FF406
:1002E000165007F0FEFC06F09BFA08F0AFFA07F094
:1002F000A9FE06F028F90AF07BFE02F0CCFB06F01E
:100300002FFD1F4B0093B223B4224621962007F005
:1003100017FA1C4881681CA00BF0D4F91948C16871
:100320001FA00BF0CFF91748016823A00BF0CAF902
:100330001448416826A00BF0C5F9124801692BA0AA
:100340000BF0C0F90F4841692FA00BF0BBF90D4825
:10035000816934A00BF0B6F90A48C16938A00BF0E6
:10036000B1F908F0D5FE4FF4E15142F2107008F0F7
:100370003AF800203949086001E002F06AF8FCE729
:10038000E01D0108BC030020546F74616C4163637D
:100390006F756E742E436F696E313D25640D0A00D2
:1003A000546F74616C4163636F756E742E436F6933
:1003B0006E323D25640D0A00546F74616C416363B5
:1003C0006F756E742E43617368313D25640D0A00AC
:1003D000546F74616C4163636F756E742E43617307
:1003E000684F313D25640D0A00000000546F7461B0
:1003F0006C4163636F756E742E506C757365313D1F
:1004000025640D0A00000000546F74616C41636341
:100410006F756E742E506C757365323D25640D0AD0
:1004200000000000546F74616C4163636F756E74FB
:100430002E436F696E4F313D25640D0A00000000A8
:10044000546F74616C4163636F756E742E436F6992
:100450006E4F323D25640D0A00000000B08122423B
:10046000704700BFFEE700BFFEE700BFFEE700BF2A
:10047000FEE770477047704770470000002100207A
:10048000674A126842F48032654B1A6000BF644AC2
:10049000126802F40030491C10B9B1F5A06FF6D112
:1004A0005F4A126812F4003F01D0012000E00020F2
:1004B000012842D15B4A126842F01002594B1A607F
:1004C0001A46126822F003021A601A46126842F0B5
:1004D00002021A60524A5268514B5A601A465268D8
:1004E0005A601A46526842F480625A601A4652684C
:1004F00022F47C125A601A46526842F4E8125A609A
:100500001A46126842F080721A6000BF444A1268AC
:1005100012F0007FFAD0424A526822F00302404BA8
:100520005A601A46526842F002025A6000BF3C4AC2
:10053000526802F00C02082AF9D1704710B5FFF793
:100540009DFF10BD10B53648006840F001003449E9
:100550000860084640683449084031494860084608
:100560000068324908402E4908600846006820F4B7
:10057000802008600846406820F4FE0048604FF480
:100580001F008860FFF7DAFF4FF00060284908601D
:1005900010BD10B5002100200022214B5B6803F044
:1005A0000C0121B1042906D0082928D107E0214BEC
:1005B000214C236027E01F4B1F4C236023E0184B86
:1005C0005B6803F47010164B5B6803F480320223FF
:1005D00003EB904022B9194B4343174C23600DE0C5
:1005E0000F4B5B6813F4003F04D0144B4343124C91
:1005F000236003E00F4B43430F4C236003E00D4B9C
:100600000D4C236000BF00BF054B5B68C3F30313B1
:100610000B4CE15C084B1B68CB40074C236010BDC2
:1006200000100240002002400000FFF8FFFFF6FE2D
:1006300008ED00E000127A000000002000093D00F3
:100640000400002010B501214FF0C05004F0E6F87E
:10065000012005F0ACFCFF480068010C042005F007
:1006600066FCFC48006881B2082005F060FCF9488F
:100670004068010C0C2005F05AFCF648406881B235
:10068000102005F054FCF3488068010C142005F09C
:100690004EFCF048806881B2182005F048FCED4817
:1006A000C068010C1C2005F042FCEA48C06881B219
:1006B000202005F03CFCE7480069010C242005F0EF
:1006C00036FCE448006981B2282005F030FC10BDFA
:1006D0002DE9F04105460E46002D46DDC82D44DCCF
:1006E00000241EE0DB4850F8240010F07F4F16D1A4
:1006F000D84840F8245050F824000006D54941F865
:100700002400084650F8240026F07F410843D149D0
:1007100041F82400FFF796FF2046BDE8F081601CF9
:10072000C4B2052CDEDB002407E0CA49601C51F886
:10073000200041F82400601CC4B2042CF5DBC5483D
:1007400040F8245050F824000006C24941F8240023
:10075000084650F8240026F07F410843BD4941F87F
:100760002400FFF76FFF2046D7E7002417E0B948C1
:1007700050F8240020F07F48B0450ED15DB9B5484F
:1007800050F82400070E0020B24941F82400FFF77A
:1007900059FF3846C1E70120BFE7601CC4B2052CF1
:1007A000E5DB0020B9E710B58AB01D2102A80BF0E7
:1007B0000AFBA94800680190002415E0A748005DE5
:1007C000A749098888420DDCC4F14500C0B28DF804
:1007D0000600032101A807F071FAA048005DA149B5
:1007E000087003E0601CC4B2062CE7DB00BF0AB04F
:1007F00010BD10B501214FF0C05004F00FF80120DA
:1008000005F0D5FB042005F098FB00049149086031
:10081000082005F092FB8F49096808448D4908605B
:100820000C2005F08AFB00048A494860102005F07E
:1008300084FB88494968084486494860142005F0CB
:100840007CFB000483498860182005F076FB814911
:10085000896808447F4988601C2005F06EFB00040D
:100860007C49C860202005F068FB7A49C9680844C3
:100870007849C860242005F060FB000475490861D0
:10088000282005F05AFB7349096908447149086139
:1008900010BD1FB5002001900290039072480068BF
:1008A00001907248D0F8EC070290714800680390FC
:1008B000039B00936FA17348DDE901230AF00EFF4B
:1008C0001FBD08B54FF6FF7300931E2340F2DF12E1
:1008D0000021084606F08FFB02206B4908806B4B15
:1008E000009318233D2206216748008806F028FF60
:1008F000654800883F30644908800846008864499C
:1009000008806448007810F0400F1AD0624B0093C2
:1009100018231F2206215C48008806F011FF5A4860
:1009200000882130584908805CA310220E215648C7
:10093000008806F0DDFE54480088323052490880B5
:1009400012E0584B00931823132206214E480088CA
:1009500006F0F6FE54480178562006F01CFF4A487F
:1009600000882B30484908804748008879304F4933
:100970000880454800884E49088008BD70B54D483C
:10098000008810F4004F2BD04A480088C0F30E05B1
:100990004948007880280CD1474840788F2808D1F2
:1009A00000BF4648008810F0400FFAD002204449AA
:1009B0000880002410E000BF4248008810F0400F7B
:1009C000FAD03D48005D404908804FF000003A49A8
:1009D000085504F1010084B2AC42ECDB06F0D6FF0E
:1009E00070BD70B5002400252A48007810F0800FF3
:1009F00000D070BD2748007800F00700072814D108
:100A000032480078002810DD3148007810F0800F5F
:100A10000BD107F075FB2E48007840F080002C4980
:100A200008702CA007F084FB65E02948007810F0DE
:100A3000800F60D11748007810F0C00F5BD12948B3
:100A40000078052190FBF1F201FB120008B90120AA
:100A50004AE050E080030020C4420208BC42020881
:100A6000B2000020A2000020E8F7FF1F00F0FF1FE7
:100A7000F0F7FF1F25303878253038782530387862
:100A800000000000600300202E000020701201080A
:100A900030000020B800002018390208CEB4B2E5BA
:100AA000BFA80000E83E02082C0000205C000020E7
:100AB0005E0000209C00002010090020004800403B
:100AC00004480040004C0040044C004060000020FE
:100AD000B900002041542B43495053454E440D0A60
:100AE00000000000AE000020FE49087007F008FB7F
:100AF000FDA007F01DFBFF48008810F4004F2CD02C
:100B0000FD48007810F0800F0FD03E21FB480BF01D
:100B100046F850B107F0F4FAF949FAA007F008FBDB
:100B20000121F94807F032FB63E7F348007810F041
:100B3000800F13D0F5A1F1480BF03BF870B107F02E
:100B4000DFFAED48007820F08000EB490870F148AA
:100B5000007800F0FB00EF490870DAE0EEA1E7480A
:100B60000BF027F8B0B107F0CBFA0120EC49088070
:100B70000020EC490870E048007820F08000DE4951
:100B80000870DF480BF04BF806460146DC480BF0D6
:100B9000F8F82EE7E4A1D9480BF00BF8A8B107F05C
:100BA000AFFA0120E2490870D348007820F08000B5
:100BB000D1490870D748007800F0FB00D54908708B
:100BC000DC49D0A007F0B4FA13E7DBA1CB480AF068
:100BD000F0FF70B107F094FAC748007820F0800069
:100BE000C5490870CB48007800F0FB00C94908707F
:100BF0008FE0D3A1C1480AF0DCFF88B107F080FA8A
:100C0000C448007840F00400C24908700020C84978
:100C1000087002F06AFC02F0F9FC02F0DDF9E8E687
:100C2000CAA1B6480AF0C5FFD8B3C8A1B3480AF0B4
:100C3000C0FF04462C2120460AF0B1FF0446641C84
:100C40002078312802D0207835281DD1B14800788D
:100C500040F00300AF4908700846007810F0040F18
:100C600026D1B348007818B9BAA007F061FA1FE09E
:100C7000AF4801780078401CAD4A1070032917DD99
:100C800000201146087013E02078302802D0207828
:100C9000322807D19F48007800F0F8009D4908707D
:100CA00006E010E02078332802D11020994908701E
:100CB00007F026FA9748007810F0030F29D0A9A072
:100CC00007F036FA25E0AAA18C480AF072FFF0B1CD
:100CD000A7A18A480AF06DFF04463A2120460AF08F
:100CE0005EFF0446641C2C2120460AF058FF05468E
:100CF0000020287020460AF045FF9F4908700846EA
:100D00000178562006F047FD07F0FAF901E007F0F8
:100D1000F7F900BF6DE62DE9F0410026974800780D
:100D200000284CDD96480078E8BB00209349087005
:100D3000002400253FE09348005D20B9002092493F
:100D4000088000263AE08F48005D242802D1012661
:100D5000002504E08B48005D232800D10226012EE7
:100D600007D18848025D2846691C8DB287490A541C
:100D70001CE0022E1AD1002623222846691C8DB2BF
:100D800082490A540020485508460AF048FF0828BE
:100D900002D97E4802F024FA7C480AF040FF074658
:100DA00001467A4800E00AE00BF00DF80020754992
:100DB0000855601C84B2B4F5806FBCDB00BFBDE891
:100DC000F08110B57248007810F0010F0ED0704815
:100DD000007800F0FE006E49087000206D49087030
:100DE0006D4804228168102005F06EFD6848007887
:100DF00010F0020F1BD06648007800F0FD00644937
:100E000008706648007890B14248007810F0040FEE
:100E100001D002F0E1F80120614908604FF00000C4
:100E2000604908705D4801785FA00AF04BFC5848A3
:100E3000007810F0040F1FD05548007800F0FB0038
:100E4000534908708020574908705B48007810F0BB
:100E5000400F0BD05848007820F0400056490870E9
:100E60005648007840F00200544908704A4804226D
:100E70000169202005F028FD4548007810F0080F92
:100E80001FD04348007800F0F700414908708020E7
:100E9000444908704848007810F0400F0BD046488D
:100EA000007820F04000444908704448007840F041
:100EB000020042490870384804224169282005F0A0
:100EC00003FD3348007810F0100F7ED030480078D2
:100ED00000F0EF002E49087000202E4908702E48BF
:100EE00004226EE0AE00002041542B434752454798
:100EF0003F0D0A00A8000020B9000020100E0020BD
:100F0000DC03002025730000BA4202084552524F0C
:100F100052000000B800002053454E44204F4B00C3
:100F2000BC0000206000002053485554204F4B0067
:100F3000B0000020AC120020434C4F534544000049
:100F4000434F4E4E454354204F4B00002B434752D6
:100F50004547000041542B434950534855540D0A0E
:100F60000000000041542B4353510D0A00000000C3
:100F70002B435351000000002C000020AC00002047
:100F8000A6000020900E0020AA0000206002002091
:100F9000B40000201E000020BC0300202A00002016
:100FA000B40122421F000020436F696E4E756D3DF3
:100FB00025640D0A00000000330000202D000020F1
:100FC00003E00168002005F07FFC10BD08B5FF4874
:100FD000007820B1FFF7F5FE0020FC490870FC48BE
:100FE000007800F07F003C281DDD8020F849087063
:100FF000F848007898B1F848007810F0040F01D054
:1010000001F0EAFF0120F54908604FF00000F449C3
:101010000870F0480178AFF270000AF053FB00202E
:10102000F0498870C870EF48007848B1EA48007805
:1010300010F0040F01D001F0CFFF0020E949087043
:10104000E748007800F07F00462813DB8020E44961
:101050000870E548007810F0400F0BD1E2480078A6
:1010600040F04000E0490870E048007840F002009D
:10107000DE490870DD480078F0B3DC48007810F0F5
:10108000010F29D0D848007810F0800F24D0D7481D
:10109000007800F0FE00D5490870D5480088D54991
:1010A0000880D54B0093182325220621D1480088BB
:1010B00006F046FBCF4800882730CE490880CFA3F2
:1010C00010220E21CB48008806F012FBC948008888
:1010D0005230C849088018E0C448007810F0010F69
:1010E00013D0C148007810F0800F0ED14FF6FF7377
:1010F00000931E23BE4800E04AE00088773082B2A9
:101100000021BB48008805F076FFB848007810F051
:10111000020F23D0B448007810F0400F1ED0BA4818
:101120000088B4490880B94B009318231C2206217B
:10113000B048008806F004FBAE4800881E30AD4978
:101140000880B3A310220E21AA48008806F0D0FA26
:10115000A84800884230A749088016E0A3480078D4
:1011600010F0020F11D0A048007810F0400F0CD101
:101170004FF6FF7300931E23A34800885E3082B2AF
:101180000021A148008805F036FF0020974908702B
:1011900008BD2DE9F04105460E46002700BF08E0D6
:1011A000E400042006F090FF00F007000443781CE0
:1011B000C7B2082FF4DB29460A2006F0E1F9B4FB98
:1011C000F0F100FB1144681EC1B20A2006F0D8F904
:1011D000A04205D9681EC1B20A2006F0D1F9044424
:1011E0008E4801780078401C8C4A10708C4840F87A
:1011F0002140104600780A2802DB002011460870C2
:10120000224688A130460AF069FA00207055BDE8F0
:10121000F0812DE9F8438146484609F06EFB82488B
:101220000068F021B1EB400F01DABDE8F88300243B
:1012300009E07D4800686043F021B1EB400F00DA1F
:1012400003E0601CC4B20A2CF3DB00BF601E400444
:10125000050C754909686943C1F1F00000EBD071D4
:10126000C1F34F074FF0230800242CE0002624E0B0
:10127000B12060436D490844805D01281BD10023E3
:1012800006F1010C05FB0C8CACF1010C00931FFA6C
:101290008CF304F1010C05FB0C7CACF1010C1FFA82
:1012A0008CF205FB068C1FFA8CF105FB047C1FFAFF
:1012B0008CF005F0A0FE701CC6B25B480068864248
:1012C000D6DB601CC4B2584800688442CEDB00BF45
:1012D000ABE77CB5002001904FF6FF73009340F21E
:1012E0003F1340F2DF12202105F085FE50A320229B
:1012F0005021702006F0FCF9B4234FF48B72822148
:10130000802005F035FF01A80AF089FC0646014659
:1013100001A80AF058FD602005F086FA48490870D7
:10132000084602783FA101A80AF0D8F901A80AF0FE
:1013300076FCC4B201AB20228A21084606F0D8F917
:1013400042E005F079F905460DB3232D0DD101A832
:101350000AF018FCC4B23CB139480470017860202E
:1013600005F08CFA02F052F96CE02A2D10D104B984
:1013700068E0601EC4B200238A2101EB04100093D0
:1013800020231A4605F05EFF002001A9085513E04E
:10139000302D11DB392D0FDC032C0DDA00238A21CF
:1013A00001EB0410009320232A4605F04BFF204652
:1013B000611CCCB201A90D54FFF708FEFFF7ABFC8E
:1013C000FFF70FFB07F094FBBBE70000B400002021
:1013D0001E0000202A000020B8000020B401224294
:1013E0001F00002045000020330000202D000020B9
:1013F0005E0000202E000020E82C0208D6BDB1D2ED
:10140000BBFAD2ECB3A300005C000020D833020882
:10141000B3F6B1D2D2ECB3A3000000004400002028
:101420009403002025640000EC010020EC12002051
:10143000C7EBCAE4C8EBBBEEB6AFB1D2CAFD3A0007
:101440002100002000BF7CBD10B501241BE0FF4837
:101450000078A04203D11F20FD49088002E000204F
:10146000FB490880601EFB4A52F8203004EBC400A0
:1014700000EB0410142202EB40012022A02006F011
:1014800037F9601CC4B2042CE1DB0020F04908806D
:1014900010BD38B5FF256EE0FF2D14D14FF6FF7358
:1014A000009340F23F1340F2DF122021002005F0AC
:1014B000A2FDFFF7C9FFE8A320224FF48C71502052
:1014C00006F016F9002505F0B7F8044644B3232CBE
:1014D00000D151E02A2C00D14EE0312C20DB332CFE
:1014E0001EDCA4F13000D94908700846017840207C
:1014F00005F0C4F94FF6FF73009340F23F1340F23A
:10150000DF122021002005F076FDD8A320227821CB
:10151000802006F0EDF8FF254FF47A7004F0DFFD2F
:10152000002005F024F804281DD10120D3490860CB
:10153000D348007800F10100D149087008460078CE
:10154000032801DB00200870CE49CD4A127831F81B
:1015500012004FF4E15107F0D2F8322004F0BFFD41
:101560000020C6490860FFF731FDFFF7D4FBFFF705
:1015700038FA07F0BDFA8FE700BF38BD2DE9F0411A
:1015800086B0FF2700250024142101A80AF01BFCC7
:101590004FF6FF73009340F23F1340F2DF12202119
:1015A000002005F028FDF5E0FF2F29D144BB3DBB0D
:1015B0004FF6FF73009340F23F1340F2DF122021F9
:1015C000002005F018FDB0A320225021702006F065
:1015D0008FF8B4234FF48B728221802005F0C8FD70
:1015E000002408E0002001A9085500210DF10E009B
:1015F0000155601CC4B20A2CF4DB0024002500272E
:1016000005F01AF806462EB3232E6CD11CBB04EB52
:10161000840101AA02EB41000AF001FB06281AD15D
:10162000012400254FF6FF73009340F23F1340F270
:10163000DF122021002005F0DEFC97A3202250219C
:10164000702006F055F8B4234FF48B72822180206D
:1016500005F08EFD96E0012C64D104EB840101AA13
:1016600002EB41000AF0DBFA06285BD10DF10E0116
:1016700001A80AF0CFFBA8BB8B480AF0D0FA80463D
:10168000014689480AF09FFB01A987480AF0A3FA9E
:1016900085480AF0C4FA1FFA80F842468249302091
:1016A00005F065F94FF6FF73009340F23F1340F2E7
:1016B000DF122021002005F09EFC7CA3202278214F
:1016C000802006F015F87DA32022AA21802006F0B4
:1016D0000FF875497DA009F0F5FF4FF47A7004F01A
:1016E000FEFC58E000E01EE04FF6FF73009340F26E
:1016F0003F1340F2DF122021002005F07CFC78A38C
:1017000020227821802005F0F3FF79A32022AA214E
:10171000802005F0EDFF4FF47A7004F0E0FC002427
:101720000025FF272EE02A2E14D105B933E0681ECC
:10173000C5B200238A2101EB0510009320231A462D
:1017400005F080FD002004EB840101AA02EB4101B9
:10175000485517E0302E15DB392E13DC062D11DA33
:1017600000238A2101EB0510009320232A2205F093
:1017700069FD04EB840001A901EB40022846691CC5
:10178000CDB21654FFF722FCFFF7C5FAFFF729F98F
:1017900007F0AEF908E700BF06B0BDE8F0817FB5FD
:1017A0000F240020019002900390FAE00F2C20D12A
:1017B0004FF6FF73009340F23F1340F2DF122021F7
:1017C000002005F018FC4EA320225021702005F0C7
:1017D0008FFFB42340F23B128221A52005F0C8FC04
:1017E00001A80AF01CFA0646014601A80AF0EBFA25
:1017F000002404F021FF054635B3232D25D12A49C5
:1018000001A80AF007FB10B9002004B070BD4FF624
:10181000FF7300934FF4A0734FF4BE724621002073
:1018200005F0E9FB3BA320226421802005F060FF46
:101830002FA320229621802005F05AFF01A80AF04C
:10184000EEF9064601466DE09DE074E020000020C0
:101850009600002034000020C7EBB0B4CAFDD7D6F4
:10186000BCFCBDF8D0D0D1A1D4F10000C5E4D6C3F2
:10187000D6A7B8B6B3C9B9A6A3A10000B4812242C5
:1018800022000020B4420208C7EBCAE4C8EB36CEFF
:10189000BBC3DCC2EB3A0000C7EBD4D9CAE4C8EB47
:1018A000D2BBB4CE3A00000014000020B8FCB8C48B
:1018B000C3DCC2EBB3C9B9A6A3A10000C7EBBCC788
:1018C000D7A1D0C2C3DCC2EBA3A10000C4E3CAE429
:1018D000C8EBC3DCC2EBCAC73D25730D0A0000008C
:1018E000B8FCB8C4C3DCC2EBCAA7B0DCA3A100003B
:1018F000C7EBD6D8D0C2CAE4C8EBA3A10000000051
:10190000C7EBCAE4C8EBB9DCC0EDD4B1C3DCC2EBB1
:101910003A000000C3DCC2EBB2BBD5FDC8B7A3A13F
:101920000000000001A80AF04EFA4FF47A7004F0AB
:10193000D6FB0F2427E02A2D11D104B932E0601E16
:10194000C4B20023AF2101EB0410009320231A46F8
:101950008A2105F077FC002001A9085513E0302DFD
:1019600011DB392D0FDC062C0DDA0023AF2101EB42
:101970000410009320232A228A2105F063FC01A889
:101980000555601CC4B2FFF721FBFFF7C4F9FFF750
:1019900028F807F0ADF8002004F0E9FD012800D197
:1019A00000E003E700BF01202FE7F8B5FF2589E03D
:1019B000FF2D4ED1FF480068FE4989680844FD4963
:1019C000C9680844FC490860FA488069F949C9694E
:1019D0000844F84949680844F84908604FF6FF731D
:1019E000009340F23F1340F2DF122021002005F067
:1019F00002FBF3480AF013F906460146F0480AF0E4
:101A0000E2F9ED48EFA10268ED4809F067FEEC4B02
:101A100020226421502005F06BFEE9480AF0FFF80F
:101A200006460146E6480AF0CEF9E448E9A1026814
:101A3000E34809F053FEE24B20229621502005F0A6
:101A400057FEE8A3202240F20911402005F050FE85
:101A5000002504F0F1FD044664B32A2C01D0232CA8
:101A600000D130E0302C25D1FFF799FE08BB2021B2
:101A7000D0480AF0A8F904220021084604F024FF07
:101A800004220021082004F01FFF0422002110205E
:101A900004F01AFF04220021182004F015FF04228C
:101AA0000021502004F010FF04220021582004F0EF
:101AB0000BFFFF25FFF78AFAFFF72DF9FEF791FFDD
:101AC00007F016F874E700BFF8BD38B54FF6FF739E
:101AD000009340F23F1340F2DF122021002005F076
:101AE0008AFAC5480AF09BF804460146C2480AF043
:101AF0006AF9C249C0480AF06EF8C149BE480AF006
:101B0000ADF8BD48FFF785FBBEA3202264214FF44A
:101B1000827005F0EDFDBFA3202296214FF4827064
:101B200005F0E6FDBEA3202240F21311142005F0BB
:101B3000DFFD0CE004F080FD2A2800D108E0FFF76B
:101B400045FAFFF7E8F8FEF74CFF06F0D1FFF1E7A2
:101B500000BF38BD38B5FF2576E0FF2D3DD14FF6EB
:101B6000FF73009340F23F1340F2DF122021002068
:101B700005F041FAB2A320225021282005F0B8FD3B
:101B8000B2A320225021F02005F0B2FDB2A3202202
:101B90008221282005F0ACFDB2A320228221F02072
:101BA00005F0A6FDB2A32022B421282005F0A0FD57
:101BB000B3A31822F021282005F09AFD904B18229B
:101BC000F0214C2005F094FDAFF2743320224FF445
:101BD0008C71502005F08CFD002504F02DFD04468D
:101BE00024B32A2C00D138BD302C1FDB352C1DDC52
:101BF000A4F13100052818D2DFE800F003070B0F2D
:101C00001300FFF762FFFF250FE0FFF7CEFEFF2571
:101C10000BE0FFF7B3FCFF2507E0FFF73AFCFF25D9
:101C200003E0FFF756FBFF2500BF00BFFFF7CEF92B
:101C3000FFF771F8FEF7D5FE06F05AFF002004F01A
:101C400096FC012800D100E087E700BF00BFCAE78B
:101C50002DE9F04F9FB08146484609F093FFC6B288
:101C600000201D901E90FF2480461A901B9020217A
:101C700012A80AF0A8F8402102A80AF0A4F8671DEB
:101C80005D4809F0CCFF834601465B480AF09BF8AB
:101C90007C49594809F09FFF5949574809F0DEFF30
:101CA00000BF1AA809F0BBFF834601461AA80AF034
:101CB0008AF81AA90520FFF76CFA1AA809F062FF42
:101CC00083460146FF20FEF703FD0028E9D11AA84C
:101CD00009F058FF834601463046FEF7F9FC1AA882
:101CE00009F050FF684908601AAB4A4667A13448BA
:101CF00009F0F4FC324809F092FF00F0FF0B654B4D
:101D00005A4612A92E4809F093FA00F0FF0A02AAD7
:101D1000514612A809F095FC374809F080FF364972
:101D200000EB010B02AA5CA1584609F0D7FC002089
:101D30005B4908704FF078085A490880FEF7C1FDEA
:101D400086E3FF2C35D14FF6FF73009340F23F132B
:101D500040F2DF122021002005F04DF92648FFF760
:101D600058FA51A3202240F21311282005F0C0FC9C
:101D700000201D90ADF878008DF87A00104809F029
:101D80004EFF834601460E480AF01DF8324649A12F
:101D90000B4809F0A3FC1F204A490880084B182271
:101DA0003C21601D05F0A4FC00204649088046A3A4
:101DB00092E09AE0BC030020540000205000002074
:101DC00020020020CFDFCFC2D3AACAD53A20256493
:101DD00000000000CFDFC9CFD3AACAD53A202564BE
:101DE00000000000B0B420CAFDD7D63020C7E5C13E
:101DF000E3D5CBCEF1000000E002002095420208BE
:101E000060030020C7EBD3C3CEA2D0C5C9A8C2EBE4
:101E100000000000B0F3B6A8B1BEC9E8B1B8000038
:101E2000C9E8B1B8B0F3B6A8BAF3BFC9D2D4D3C326
:101E3000CAD6BBFAB2E9BFB4D5CBCEF100000000E0
:101E4000312EB0F3B6A8D6D5B6CB0000322EB2E90B
:101E5000BFB4D5CBCEF10000332ED0DEB8C4C3DC86
:101E6000C2EB0000342EC5E4D6C3D6A7B8B6000036
:101E7000352EBBEEB6AFB1D2CAFDC1BF0000000027
:101E8000534E3A007842020858000020257323255B
:101E9000730000000C02002026763D257300000030
:101EA000AF000020B2000020C7EBC9A8C2EBD6A744
:101EB000B8B60000B9BAC2F2BDF0B6EE3A20256459
:101EC0000000000096000020C7EBCAE4C8EBD1E98F
:101ED000D6A4C2EB0000000018226421601D05F0AA
:101EE00007FC00201C90671D002404F0A5FB05469C
:101EF000FF48008810F4004F11D0FE4801681D9182
:101F000000798DF878001DAB2022C8214FF48C7029
:101F100005F0EEFB05240020F54908802325F5B3E4
:101F20004FF07808F448007810F0800F10D00020AF
:101F3000F14908704FF6FF70F0490880F0A31822AD
:101F400064214FF4D77005F0D3FB0020EB490880E3
:101F5000232D6FD11DA809F062FE05281FD11AA9F3
:101F60001DA809F057FFF0BB32461DA9E5A009F0F6
:101F7000A9FB4FF6FF73009340F23F1340F2DF12CC
:101F80002021002005F037F8E8A3202250218020EE
:101F900005F0AEFBE84809F042FE834600E04AE166
:101FA0000146E54809F00FFF3246E4A1E24809F096
:101FB00095FBE14B20228221802005F099FBE2A3D2
:101FC0002022B421802005F093FB1AA809F0DAFD45
:101FD000834601460020FEF77BFBAA2401201C90CB
:101FE000DC48007800E070E001280FD1DA48867103
:101FF000DA488069D84989790844D849886108460F
:1020000004228169502004F05FFC30E0D148007860
:10201000022810D1D048C671D048C069CE49C979CC
:102020000844CE49C86108460422C169582004F01A
:102030004BFC1CE066E0C7480078032817D100205D
:10204000C7490870C44846704078C64909880844A2
:10205000C4490880C1484068BF4949780844BF491D
:102060004860084604224168082004F02DFCBE4860
:10207000007810F0040F01D000F0AEFF0020B64948
:102080008871C8714870B94908604FF00A08B148B2
:102090000078012803D0AF48007802280CD1B4485A
:1020A000007840F00200B24908707000AD49088025
:1020B000012006F002FB1EE0AD48007840F0010070
:1020C000AB490870FEF76FFB15E04FF6FF73009306
:1020D00040F23F1340F2DF122021002004F08BFF7A
:1020E000A4A320228021962005F002FB02201C9050
:1020F0000120A3490880AA2400207F4908704FF4DA
:10210000827798E02A2D69D104B3601EC4B25CB90D
:102110004FF6FF7300934FF487734FF4EB72F02187
:102120004FF4827004F067FFA7F1200087B24FF6EA
:10213000FF730093CC2307F1230082B28C21384631
:1021400004F059FF00201DA9085574E04FF6FF73F5
:10215000009340F23F1340F2DF122021002004F0F0
:102160004AFF884B0093402346226E21502005F001
:10217000E7FA85A320228021A02005F0B9FA87A3E1
:1021800020224FF48271502005F0B2FA85A320225C
:102190004FF482714FF4967005F0AAFA4FF48277EB
:1021A000002519E004F048FA0546232D05D100204A
:1021B000514908701FB0BDE8F08F2A2D04D1FF24CB
:1021C00000204D49087008E0FEF700FFFEF7A3FD70
:1021D000FEF707FC06F08CFCE4E72CE0302D2ADB50
:1021E000392D28DC052C26DA6CB970A31822F021D1
:1021F0004FF4827005F07CFA6AA31822F0214FF4A4
:10220000BA7005F075FA1F203C490880002300933E
:1022100040232A468C21384605F014F807F12000A7
:1022200087B20020354908801DA8055500211DAA48
:10223000601C1154C4B200BF2F48007810F0010F89
:102240004BD02D48007800F0FE002B490870A8F113
:10225000010000F0FF080846007810F0800F11D050
:102260004FF478402549088000231822CDE9002347
:102270000223424664214FF4D77005F0D8F90020BC
:102280001E490880B8F1000F17D13948007830B1E5
:102290004FF4004033490880002035490870164843
:1022A000007810F0800F00D084E74FF01E0812482D
:1022B000007840F08000104908701C9868B93048D8
:1022C000B0F800B00BEBDB704010ABEB4000C3B2DA
:1022D00040228C21384605F0B3FAFEF777FEFEF770
:1022E0001AFDFEF77EFB06F003FC2148007861E052
:1022F000A4000020F0090020AF000020960000207C
:1023000020200000B6A9B5A5D1E9D6A4C2EB3A2099
:1023100025732C20D1E9D6A4D5FDC8B72C20BDF05B
:10232000B6EE3A2025640D0A00000000D1E9D6A4DB
:10233000B3C9B9A6A3A1000020020020BDF0B6EEEB
:10234000A3BA256400000000D5FDD4DAB3F6B1D2FB
:102350002E2E2E002000002045000020BC0300206F
:10236000A2000020B2000020B80000205800002089
:102370002B000020D1E9D6A4CAA7B0DCA3A100009D
:10238000BC00002070EF0008C4FAC8B7B6A8D2AAF3
:10239000C8A1CFFBB6A9B5A5A3BF0000C8A1CFFBBC
:1023A000282A2900C8B7B6A828232900CDCBB8F120
:1023B000282A290010F0010F23D0FF48007810F0E0
:1023C000800F1ED04FF00A08FB48007800F07F0015
:1023D000FA490988081AF949088008460088400423
:1023E000400C0CD14FF400400880F548007820F0F4
:1023F0000100F34908700020EF49087001E0FEF782
:10240000D2F9EE48008810F4004F12D0EDA320223C
:10241000B421802005F06CF9FF240020E849087001
:10242000E6490880EB4908704FF47A7003F057FED4
:10243000C0E61C98022808D1AA2C06D1E6480088DC
:10244000022802DD00201C90FF24AA2C3FF4F4AEE9
:1024500077E42DE9F04F9DB000201B901C9019905F
:102460001A90202111A809F0AEFC402101A809F022
:10247000AAFCFF244FF000094FF0010B661D00205D
:10248000CE490880CC4908708020D24908700020CD
:10249000CB4908704FF6FF7004F04EFCFEF711FABE
:1024A000F8E2FF2C76D1CD4809F0B9FB824601460F
:1024B000CA4809F088FC00201B90ADF870008DF828
:1024C0007200C74809F0ABFB82460146C44809F0D8
:1024D0007AFCC449C14809F07EFBC349BF4809F0F2
:1024E000BDFBBBF1000F12D019A809F098FB824682
:1024F000014619A809F067FC19A90620FEF749FE54
:1025000019A809F03FFBB94908604FF0000B19AA60
:10251000B7A1B34809F0E2F8B14809F080FB00F038
:10252000FF0AB54B524611A9AD4808F081FE00F0F4
:10253000FF0801AA414611A809F083F8A74809F04D
:102540006EFBA64900EB010A01AAAFF2B461504646
:1025500009F0C4F84FF6FF73009340F23F1340F2C6
:10256000DF122021002004F046FD9C48FEF751FEBA
:10257000A2A3202240F21311282005F0B9F8A2A34B
:1025800018223C21FF2005F0B3F84FF482764FF07B
:102590000009002404F050F80546A048008810F413
:1025A000004F11D09E4801681B918088ADF87000E3
:1025B0001BAB2022AF2140F21D1005F099F8062434
:1025C0000020964908802325EDB3232D7ED11BA83A
:1025D00009F0D8FA002810DD1BA809F0D3FAC828A2
:1025E0000BDC1BA8FFF734FB4FF4827600208D49EB
:1025F00008704FF0FF09FF2446E11BA809F00FFB0C
:1026000005287DD31BA809F0BDFA824601460020AB
:10261000FEF75EF80446002C03DD684804800A24B7
:1026200009E019A91BA809F0F5FB20B97E4800783C
:10263000624908800A240A2C7DD14FF6FF7300936B
:1026400040F23F1300E07AE140F2DF122021002047
:1026500004F0D1FCAFF22C3320225021802005F071
:1026600047F85F4809F0DBFA824601465C4809F00A
:10267000AAFB524802886DA1594809F02FF8584B1F
:1026800020228221802005F033F8AFF2443320224B
:10269000B421802005F02CF8AA244FF001091BA8D2
:1026A00009F070FA5149086063480078012812D196
:1026B0004248008861498871614880698979084485
:1026C0005F49886108460422816900E0E0E050200B
:1026D00004F0FAF82CE058480078022811D1374865
:1026E00000885649C8715648C069C9790844544998
:1026F000C86108460422C169582004F0E5F817E0D3
:10270000ABE04D480078032812D100202A49087018
:102710002A4800884949487049484068497808442F
:1027200047494860084604224168082004F0CCF874
:102730004448007800E02DE010F0040F01D000F0D4
:102740004BFC00203D498871C871487027490860DA
:102750000A2739480078012803D037480078022832
:102760000FD11748007840F002001549087013484F
:1027700000884004000C11490880012005F09DFFED
:1027800082E00F48007840F001000D490870FEF724
:102790000AF879E04FF6FF73009340F23F1340F2DE
:1027A000DF122021002004F026FCAFF23843202263
:1027B0008021962048E00000A2000020B200002006
:1027C0002B000020D7A3C4FAD3CECFB7D3E4BFECFD
:1027D000A3A100001F000020BC000020E002002098
:1027E00020020020784202086003002058000020E8
:1027F00030232573000000000C020020C9A8C2EBA2
:10280000D9F8B4F3BDB10000C7EBCAE4C8EBD1E915
:10281000D6A4C2EBBBF2BDF0B6EE0000A4000020CF
:10282000F0090020AF00002021000020B1D2CAFD35
:10283000A3BA25640000000020000020450000200D
:10284000BC030020B800002004F052FF4FF0020942
:10285000AA240120F949088016E04FF6FF7300937F
:1028600040F23F1340F2DF122021002004F0C3FBAE
:10287000F3A3202280214B2004F03AFF0120EF49EE
:1028800008804FF00209AA240020F349087056E09E
:102890002A2D21D1002C1FDD601EC4B254B94FF681
:1028A000FF730093E6234FF4EB72C8214FF482705C
:1028B00004F0A1FBA6F1200086B24FF6FF7300934F
:1028C000A42306F1230082B26421304604F093FB76
:1028D00000201BA9085532E0302D30DB392D2EDCCD
:1028E000062C2CDA14B9302D00D1D3E07CB9AFF22C
:1028F00044531822C8214FF4827004F0F9FEAFF25D
:102900005C531822C8214FF4BA7004F0F1FE1F2066
:10291000D24908800023009340232A466421304690
:1029200004F090FC06F1200086B20020CB4908801C
:102930001BA8055500211BAA601C1154C4B200201D
:1029400003F015FE0546012D0BD1FEF728FF08B94F
:10295000FFF700F94FF0FF090020BF490870FF247E
:1029600011E0022D0FD1BE480078BE49087000204A
:10297000BD49087148710120BC490860B948017817
:10298000BB4808F09FFE002500BFB348007810F058
:10299000010F23D0B048007800F0FE00AE49087067
:1029A000B9F1000F0DD1A548B0F800A00AEBDA701C
:1029B0004010AAEB4000C3B240226421304604F02C
:1029C0003FFFAC48007848B1781EC7B237B94FF422
:1029D0000040A94908800020A6490870FEF7F6FAD1
:1029E000FEF799F9FDF7FDFF06F082F8A14800789F
:1029F00010F0010F22D0A148007810F0800F1DD0F8
:102A00000A279E48007800F07F009B490988081A31
:102A100099490880084600884004400C0CD14FF4C6
:102A2000004008809348007820F001009149087028
:102A300000209249087001E0FDF7B5FE8E4800883D
:102A400010F4004F16D0AFF284232022B42180204E
:102A500004F04EFEFF240A270020864908708649AC
:102A60000880874908704FF47A7003F038FB1DB076
:102A7000BDE8F08FB9F1020F08D1AA2C06D16F483A
:102A80000088022802DD4FF00009FF24AA2C3FF441
:102A90007CAF00BF05E530B587B0002004900590FD
:102AA000069003F0C1FEFF2809D100207549086097
:102AB000084604220168002003F006FF05E0042117
:102AC000002003F016FF6F490860082003F0ACFEF9
:102AD000FF2809D100206B4948600846042241685C
:102AE000082003F0F1FE05E00421082003F001FFB7
:102AF00064494860102003F097FEFF2809D10020A8
:102B000060498860084604228168102003F0DCFEDA
:102B100005E00421102003F0ECFE5A4988601820DB
:102B200003F082FEFF2809D100205649C8600846FC
:102B30000422C168182003F0C7FE05E00421182014
:102B400003F0D7FE4F49C860202003F06DFEFF2838
:102B500009D100204B490861084604220169202060
:102B600003F0B2FE05E00421202003F0C2FE454937
:102B70000861282003F058FEFF2809D100204149B0
:102B80004861084604224169282003F09DFE05E0C3
:102B90000421282003F0ADFE3A494861302003F0BB
:102BA00043FEFF2809D1384809F039F885B22A4692
:102BB0003549302003F0DBFE04E0062232493020A4
:102BC00003F0C4FE402003F02FFEFF2807D10121AF
:102BD000402003F053FE01202C49087004E04020FF
:102BE00003F022FE29490870002410E004F144009B
:102BF00003F01AFE04A9085504A8005D18B104A842
:102C0000005DFF2801D1FF2403E0601CC4B2042C46
:102C1000ECDB00BFFF2C41D104221D49442003F00E
:102C2000A6FE02221B480188482003F04DFE1A48E8
:102C300001784A2003F022FE40E00000BC000020A2
:102C4000B5A5B4CEBDF0B6EEB2BBC4DCB4F3D3DAF6
:102C5000323030D4AAA3A100AF000020960000209B
:102C6000210000202A00002045000020B40122425B
:102C7000A80F00082B000020B2000020A2000020B6
:102C80001F000020BC0300201400002020000020B2
:102C900023000020280000202700002004225349A0
:102CA000442003F053FE0221482003F022FE504945
:102CB00008804A2003F0B8FD4E490870502003F008
:102CC000B3FDFF2809D100204B4988610846042242
:102CD0008169502003F0F8FD05E00421502003F045
:102CE00008FE45498861582003F09EFDFF2809D160
:102CF00000204149C86108460422C169582003F0F8
:102D0000E3FD05E00421582003F0F3FD3A49C861D2
:102D1000602003F089FDFF2807D10520374908709E
:102D20000521602003F0AAFD04E0602003F07CFD93
:102D300032490870642003F077FDFF2809D130A1E3
:102D4000344808F048FF10223249642003F00FFE97
:102D500004E010222F49642003F0F8FD782003F0EE
:102D600063FDFF2805D12C480178782003F086FD0B
:102D700004E0782003F058FD2749087026480078C1
:102D8000032802DB0020244908702449224A1278D3
:102D900031F812004FF4E15105F0B1FCFDF779FD77
:102DA0001F4800210160416000201E4908701E4933
:102DB00008601048007810B101200E4908700C48D6
:102DC00003880A48C278817840788DE80F00074868
:102DD000037816480749097850F8212014A11E48A5
:102DE00008F07CFCFDF705FD07B030BD2300002096
:102DF0002800002027000020BC0300202100002024
:102E00003031323334353637383941424344454620
:102E1000000000000C02002022000020B442020842
:102E200045000020B400002058000020C40000200D
:102E300041542B43495053544152543D222573224F
:102E40002C2225642E25642E25642E2564222C2216
:102E50002564220D0A000000AC120020F0B5C1B0BC
:102E600004460D464FF4807101A808F0ACFFFC4801
:102E700008F0D5FEB0F5806F07D3F94808F0CFFE13
:102E800007460146F64808F07CFFE078B8B12946CD
:102E9000601D08F04DFB2071F24B681CC2B201A905
:102EA000201D08F0C5F9C6B2324601A9201D08F060
:102EB000E1FE301D207000206070A07009E02946FE
:102EC000601D08F035FB2071681D207000206070C7
:102ED000A070E34808F0A3FEE14924220A54084602
:102EE00008F09DFEDE49471821783A46204608F052
:102EF000A8FBDB4808F093FED94923220A54DA489C
:102F00000078401CD849087041B0F0BD00B5C3B08E
:102F100000218DF809100D218DF80A1000208DF880
:102F200005008DF806008DF80700022101A8FFF7C3
:102F300095FF43B000BD00B5C3B000218DF8091066
:102F40000B218DF80A1000208DF805008DF8060081
:102F50008DF80700022101A8FFF780FF43B000BDF4
:102F600000B5C3B000218DF809100A218DF80A10B0
:102F700001218DF80B1008218DF80C10BB490A684F
:102F8000CDF80D204968CDF8111001218DF81510EC
:102F90008DF816108DF817108DF818108DF819107F
:102FA0008DF81A108DF81B108DF81C1000208DF86C
:102FB00005008DF8060001208DF80700142101A8F6
:102FC000FFF74CFF43B000BD020E0A70020C4A70BE
:102FD000020A8A70C870704700B5C3B006218DF828
:102FE000091008218DF80A10A0490A68CDF80B20B5
:102FF0004968CDF80F109E490A68CDF8132049683A
:10300000CDF817109B4908680DF11B01FFF7DCFF95
:10301000984948680DF11F01FFF7D6FF9549886868
:103020000DF12301FFF7D0FF9249C8680DF1270188
:10303000FFF7CAFF8F4908690DF12B01FFF7C4FFA5
:103040008C4948690DF12F01FFF7BEFF8949886956
:103050000DF13301FFF7B8FF8649C8690DF137015B
:10306000FFF7B2FF82484078814989790844804956
:10307000C9790844002814DD7F480068010E8DF8E6
:103080003B107D480068010C8DF83C107A480068C0
:10309000010A8DF83D1078480068C1B28DF83E10E5
:1030A00008E000218DF83B108DF83C108DF83D10A4
:1030B0008DF83E1000208DF805008DF806000120E7
:1030C0008DF80700362101A8FFF7C8FE43B000BD08
:1030D00000B5C3B000218DF8091009218DF80A1040
:1030E00000208DF805008DF8060001208DF80700FE
:1030F000022101A8FFF7B2FE43B000BD00B5C3B086
:1031000000218DF8091005218DF80A1000208DF896
:1031100005008DF8060001208DF80700022101A8A6
:10312000FFF79CFE43B000BD00B5C3B000218DF891
:10313000091004218DF80A1000208DF805008DF883
:10314000060001208DF80700022101A8FFF786FE86
:1031500043B000BD00B5C3B000218DF809100321B4
:103160008DF80A1008218DF80B1040490A68039267
:10317000496804913F49086805A9FFF725FF3D49C3
:10318000486806A9FFF720FF3A49886807A9FFF7B2
:103190001BFF3849C86808A9FFF716FF35490869B9
:1031A00009A9FFF711FF334948690AA9FFF70CFF86
:1031B000304988690BA9FFF707FF2E49C8690CA998
:1031C000FFF702FF00208DF805008DF806000120B2
:1031D0008DF807002C2101A8FFF740FE43B000BD89
:1031E000F0B5E3B00546802143A808F0ECFD284681
:1031F00008F015FD801E87B201AA3946681C08F048
:10320000C9F9C4B29DF80400A04202D0012063B005
:10321000F0BD9DF8070088B39DF80400001FC2B2FE
:10322000104B43A902A808F02DF9C4B20CB9012033
:10323000EDE79DF80C018DF80800621E0DF20D11EE
:103240000DF1090008F016FD601EC1B20DF1090074
:1032500008F06EF99DF80810884210D00120D6E7DA
:10326000DC0300200C020020600000206100002030
:1032700045000020BC0300205800002011E19DF80B
:10328000090040B99DF80A00012803D1FFA008F009
:1032900019FA04E103E19DF80900032802D1FFF7C0
:1032A00059FFFCE09DF80900042825D19DF80F1076
:1032B0009DF80E0001EB002086B2F949DDF80A0006
:1032C0000860F84806809DF81000F749087004224D
:1032D000F349442003F04BFB0222F24801884820C6
:1032E00003F0F2FAF04801784A2003F0C7FAFFF73A
:1032F0001BFF05F03EFCD2E09DF8090005281ED119
:10330000002407E0611C0DF10900405C00B903E0F6
:10331000601CC4B2122CF5DB00BF102C01D00120C0
:1033200075E710220DF10A01E04808F0A3FC102215
:10333000DE49642003F01BFBFFF7E0FEAFE09DF8E1
:103340000900092871D19DF80A00D94908709DF833
:103350000B00D849086008460068000208609DF824
:103360000C0009680843D349086008460068000259
:1033700008609DF80D0009680843CE4908600846BA
:103380000068000208609DF80E0009680843C949FA
:103390000860C7480078002845DD08460068C6492F
:1033A000096888427BD9C3480068C3490860C3489C
:1033B00000784000C2490880012005F07EF9FFF73F
:1033C00087FEC0480078012810D1B9480078BE496E
:1033D0008871BE48806989790844BC49886108467B
:1033E00004228169502003F06FFA13E0B548007899
:1033F00002280FD1AE480078B349C871B348C069FC
:10340000C9790844B149C86108460422C1695820F5
:1034100003F05AFA0020AE490860FFF7DDFDAA4824
:103420000021016041603AE0FFE79DF809000A28A9
:1034300005D1A8A008F046F9FFF792FD2FE09DF80E
:1034400009000B280ED19DF80A0040B39DF80A0030
:103450009A49087008460178602003F00FFAFFF7D8
:103460006AFD1CE09DF809000D2818D19DF80A009E
:103470009E4908700846007800F001009C490860E9
:103480009A480078C0F340009A49C1F8A4019748CF
:103490000078C0F3800098490860FFF737FD0020EE
:1034A000B5E6601FC1B20DF1090008F041F89DF8C2
:1034B0000810884201D00120A9E69DF8090090B9C2
:1034C0009DF80A0002280CD09DF80A00062808D0B2
:1034D0009DF80A00072804D09DF80A000C2800D0A7
:1034E00000BF002093E6012091E600B5C3B00121A2
:1034F0008DF8091081490DF10A0008F06CFB804934
:103500000DF1220008F067FB02218DF82D1000203C
:103510008DF805008DF806008DF80700252101A81B
:10352000FFF79CFC43B000BD30B5C3B004460D4668
:1035300002218DF809108DF80A408DF80B500020FB
:103540008DF805008DF806008DF80700032101A80D
:10355000FFF784FC43B030BD00B5C3B007218DF840
:10356000091001218DF80A1008218DF80B1065490A
:103570000A6803924968049101218DF814108DF8AE
:1035800015108DF816108DF817108DF818108DF88D
:1035900019108DF81A108DF81B10544801788DF809
:1035A0001C1000208DF805008DF8060001208DF814
:1035B0000700142101A8FFF751FC43B000BD00B57E
:1035C000C3B008218DF8091041480068010E8DF83C
:1035D0000A103F480068010C8DF80B103C48006849
:1035E000010A8DF80C103A480068C1B28DF80D1030
:1035F00000208DF805008DF8060001208DF80700E9
:10360000052101A8FFF72AFC43B000BD00B5C3B0F7
:103610000C218DF80910294801788DF80A10002036
:103620008DF805008DF8060001208DF807000221B5
:1036300001A8FFF713FC43B000BD70B5C2B005464A
:103640000C4616460E218DF8051026B92D48017836
:103650008DF8061003E02B4841788DF806108DF8A0
:1036600007402246294602A808F004FB00208DF8F6
:1036700001008DF8020001208DF80300E01CC1B2AA
:103680006846FFF7EBFB42B070BD0000CAD5B5BD80
:10369000D7A2B2E1D3A6B4F0D6A10D0A0000000073
:1036A0002300002028000020270000200C0200201A
:1036B00069000020700000206C0000202100002024
:1036C000B20000202000002045000020BC030020A4
:1036D00058000020CAD5B5BDB2E9D1AFD7B4CCAC43
:1036E000C3FCC1EED6A10D0A00000000940000202A
:1036F000A001224200002242B401224260030020C5
:1037000092120020610000200948804709480047C4
:10371000FEE7FEE7FEE7FEE7FEE7FEE7FEE7FEE781
:10372000FEE7FEE704480549054A064B70470000DE
:103730004505000831010008D8C20020D8C8002083
:10374000D8C40020D8C4002036490143364A11604D
:10375000704770B5002100230F22C4784CB3324C5F
:10376000246804F4E064C4F5E0644FEA1421C1F174
:10377000040322FA01F2447804FA03F1847804EA9B
:10378000020444EA01014FEA0111284C0678A155D0
:10379000047804F01F054FF0010404FA05F40578DD
:1037A0004FEA65154FF0E02606EB8505C5F80041A8
:1037B00009E0047804F01F050124AC401C4D067894
:1037C000761145F8264070BD1A4A0A4002431A4B4A
:1037D0001A60704741B1194A126842EA00024FF07C
:1037E000E023C3F8102D07E0144A126822EA000211
:1037F0004FF0E023C3F8102D7047042808D14FF094
:10380000E021096941F004014FF0E022116107E075
:103810004FF0E021096921F004014FF0E02211612D
:10382000704700000000FA050CED00E000E400E045
:1038300080E100E080FFFF1F08ED00E010ED00E0F8
:1038400001684FF6FE721140016000210160416085
:103850008160C1608749884208D186490839496832
:1038600041F00F01834A083A516088E081491431E0
:10387000884208D17F490839496841F0F0017D4A02
:10388000083A51607BE07B492831884208D1794968
:103890000839496841F47061764A083A51606EE02F
:1038A00074493C31884208D172490839496841F469
:1038B0007041704A083A516061E06E495031884267
:1038C00008D16C490839496841F47021694A083ABD
:1038D000516054E067496431884208D1654908392C
:1038E000496841F47001634A083A516047E0614910
:1038F0007831884208D15F490839496841F07061E0
:103900005C4A083A51603AE05B49884208D1A0F12C
:103910000401096841F00F01584AC2F804142EE06E
:1039200055491431884207D15549096841F0F001E1
:10393000524AC2F8041422E04F492831884207D184
:103940004F49096841F470614C4AC2F8041416E00A
:1039500049493C31884207D14949096841F47041DD
:10396000464AC2F804140AE043495031884206D15D
:103970004349096841F47021404AC2F80414704771
:1039800010B50022026847F6F0739A430C6A8B6800
:1039900023430C6923434C6923438C692343CC693B
:1039A00023434C6A23438C6A23431A430260CB6847
:1039B00043600B6883604B68C36010BD00210160E9
:1039C00041608160C160016141618161C1610162E9
:1039D00041628162704721B1026842F001020260D7
:1039E00004E002684FF6FE731A40026070471AB195
:1039F00003680B43036002E003688B430360704776
:103A0000416070470146486880B270470146002017
:103A1000002211F0805F02D01A4B1A6801E0174BA8
:103A20001A680A4201D0012000E00020704710F01F
:103A3000805F02D01249086001E010494860704779
:103A400001460020002211F0805F02D00D4B1A6861
:103A500001E00A4B1A680A4201D0012000E0002070
:103A6000704710F0805F02D00549086001E003490B
:103A7000486070470800024008040240000002400D
:103A800004040240000402400020474908604749FE
:103A9000C1F804044649086001F104010860454882
:103AA00045490860704700213F498279DAB33F4AAF
:103AB000D2F8002403689A433C4BC3F800241A460A
:103AC000D2F8042403689A4301F104031A600279CE
:103AD00011440A68036842EA03020A60334AD2F8D2
:103AE0000824036822EA0302304BC3F808241A466C
:103AF000D2F80C24036822EA0302304B1A604279A0
:103B0000102A11D1294AD2F8082403681A43274BF6
:103B1000C3F808241A46D2F80C2403681A43234B2E
:103B2000C3F80C240EE007E01F49427911440A68EB
:103B300003681A430A6005E0027911440A680368C1
:103B40009A430A6070470021016001710C214171A4
:103B50000021817170471A49096841EA0001134A3E
:103B6000C2F81014704701460020134A12680A4236
:103B700001D0012000E0002070470F490860704725
:103B8000014600200022084B1B6803EA0102074B94
:103B9000D3F814340B4202D00AB1012000E0002017
:103BA000704705490860704700040140000001406B
:103BB00008040140FFFF0F00140401400C04014001
:103BC0001004014030B943F2DB014FF0204242F8CB
:103BD000201005E043F2D2014FF0204242F82010BD
:103BE0006FF07042411C4FF0204343F821201146F2
:103BF0001A4602EB8002C2F80411704710280AD15D
:103C000018214FF020421166402151664FF0FC31DF
:103C10009166D16610E01821F84A11604FF040011A
:103C20004FF02042C2F884104FF0FC31F44A11608A
:103C30004FF02042C2F88C1070471820F1490860FC
:103C40004FF000004FF02041C1F8A4004FF0FC30CD
:103C5000ED49086001F10401086001F10401086008
:103C60007047D0E901121143C26811430269114340
:103C70004269114382691143C2691143026A1143C7
:103C8000426A1143826A1143C26A1143026B1143B3
:103C90004FF02043026843F822108168082908D1B8
:103CA0001A46016852F8211041F04001026843F8B9
:103CB0002210416B0968426B526841EA0211426B63
:103CC000926841EA0221426BD26841EA0241426BAA
:103CD000126941EA0251426B526941EA0261426B48
:103CE000926911430268521C4FF0204343F822109E
:103CF000C16AB1F5804F1AD1816B0968826B526835
:103D000041EA0211826B926841EA0221826B1269D8
:103D100041EA0251826B526941EA0261826B926907
:103D20001143026803EB8202C2F8041108E06FF04D
:103D300070414FF02043026803EB8202C2F8041185
:103D4000704730B5002100220023446844F0080485
:103D500085682C43C5682C4305692C43456944EAB2
:103D60004524856944EA4531C4692468C5696D689C
:103D700044EA0524C569AD6844EA0544C569ED68AF
:103D800044EA0562046A2468056A6D6844EA052409
:103D9000056AAD6844EA0544056AED6844EA0563CE
:103DA0000468102C05D14FF020442166A266E3661A
:103DB00007E0924C21604FF02044C4F88820934CD7
:103DC000236030BD016841F01001426841EA4221A0
:103DD000826841EA42318B4A1160C1680968C26851
:103DE000526841EA0221C268926841EA0241C2680F
:103DF000D26841EA0261844A116001690968026976
:103E0000526841EA02210269926841EA024102696C
:103E1000D26841EA02617E4A1160416909684269DB
:103E2000526841EA02214269926841EA02414269CC
:103E3000D26841EA02614FF02042C2F8B0107047E8
:103E4000002101600221416000218160C1600161A7
:103E500041618161C16101624FF480514162490059
:103E600081620021C16201630F21426B1160426BCC
:103E70005160FF21426B91600F21426BD160426B18
:103E80001161426B51610021426B91610F21826B84
:103E90001160826B5160FF21826B91600F21826BF8
:103EA000D160826B1161826B51610021826B9161E3
:103EB000704710210160002141608160C160016193
:103EC00041618161FC21C2691160C2695160C269AE
:103ED0009160C269D160026A1160026A5160026A2F
:103EE0009160026AD1607047002101604160816089
:103EF000FC21C2681160C2685160C2689160C268EA
:103F0000D1600269116002695160026991600269C1
:103F1000D1604269116042695160426991604269B1
:103F2000D160704751B14FF0204252F8202042F04A
:103F300001024FF0204343F8202009E04FF02042D7
:103F400052F82020334B1A404FF0204343F82020F2
:103F5000704799B1102808D14FF02042126E42F0FC
:103F600004024FF020431A661DE0244A126842F012
:103F700004024FF02043C3F8802014E0102809D138
:103F80004FF02042126E234BDB1E1A404FF02043AD
:103F90001A6608E0194A12681F4B02EA03024FF042
:103FA0002043C3F88020704740B11649096841F0AA
:103FB00004014FF02042C2F8A01008E0114909683E
:103FC000154A01EA02014FF02042C2F8A0107047E2
:103FD00099B1102808D14FF02042126E42F04002F1
:103FE0004FF020431A662DE0044A126842F0400266
:103FF0004FF02043C3F8802024E00FE0800000A0B1
:10400000880000A0A00000A0A80000A08C0000A0D4
:10401000AC0000A0FEFF0F00FBFF0F00102808D12E
:104020004FF02042126E684B1A404FF020431A6640
:1040300008E0664A1268644B02EA03024FF020432C
:10404000C3F88020704701460020102903D14FF0AB
:104050002042506F01E05E4A1068704710B5F2B11F
:10406000102807D14FF020435B6E0B434FF02044E4
:10407000636632E0B0F5807F08D1564B1B6843EA97
:1040800001034FF02044C4F8843026E0524B1B68F3
:1040900043EA01034FF02044C4F8A4301DE0102887
:1040A00007D14FF020435B6E8B434FF02044636693
:1040B00013E0B0F5807F08D1464B1B6823EA01036B
:1040C0004FF02044C4F8843007E0434B1B6823EAD8
:1040D00001034FF02044C4F8A43010BD10B50246CF
:1040E00000200023102A03D14FF02044636E07E024
:1040F000B2F5807F02D1374C236801E0364C23684B
:104100000B4201D0012000E0002010BD102807D193
:104110004FF02042526E8A434FF020435A6613E01C
:10412000B0F5807F08D12B4A126822EA01024FF0D5
:104130002043C3F8842007E0274A126822EA0102DC
:104140004FF02043C3F8A420704770B5024600200A
:10415000002300240025102A03D14FF02046736E5F
:1041600007E0B2F5807F02D11A4E336801E01A4EA3
:10417000336803EA010403EAD10514B10DB101204B
:1041800000E0002070BD102808D14FF02042526E90
:1041900022EAD1024FF020435A6613E0B0F5807F47
:1041A00008D10C4A126822EAD1024FF02043C3F82A
:1041B000842007E0084A126822EAD1024FF0204327
:1041C000C3F8A42070470000BFFF0F00800000A0CC
:1041D000940000A0840000A0A40000A010B5044634
:1041E000CA48844208D10121042000F024FB0021A8
:1041F000042000F020FB46E0C548844208D101219C
:10420000082000F018FB0021082000F014FB3AE021
:10421000C048844208D10121102000F00CFB00218D
:10422000102000F008FB2EE0BB48844208D1012199
:10423000202000F000FB0021202000F0FCFA22E00A
:10424000B648844208D10121402000F0F4FA002150
:10425000402000F0F0FA16E0B148844208D1012174
:10426000802000F0E8FA0021802000F0E4FA0AE063
:10427000AC48844207D10121801500F0DCFA00210E
:10428000A01500F0D8FA10BD10B50121084600F0C5
:10429000D2FA0021012000F0CEFA10BD2DE9F04144
:1042A000024600250026002000230024002791F864
:1042B00003C00CF00F0591F803C01CF0100F03D0E1
:1042C00091F802C04CEA0505B1F800C01CF0FF0FE0
:1042D00031D0146800202BE04FF0010C0CFA00F3F1
:1042E000B1F800C00CEA03069E4220D183004FF0D3
:1042F0000F0C0CFA03F7BC4305FA03FC4CEA040468
:1043000091F803C0BCF1280F06D14FF0010C0CFA54
:1043100000FCC2F814C00AE091F803C0BCF1480FD9
:1043200005D14FF0010C0CFA00FCC2F810C0401C83
:104330000828D1D31460B1F800C0BCF1FF0F34DD00
:10434000546800202EE000F1080C4FF0010808FA34
:104350000CF3B1F800C00CEA03069E4221D18300A1
:104360004FF00F0C0CFA03F7BC4305FA03FC4CEAC0
:10437000040491F803C0BCF1280F05D100F1080C2A
:1043800008FA0CF8C2F8148091F803C0BCF1480F89
:1043900007D100F1080C4FF0010808FA0CF8C2F838
:1043A0001080401C0828CED35460BDE8F0814FF641
:1043B000FF710180022181700421C17070470246A3
:1043C000002093680B4201D0012000E000207047DC
:1043D0000146886880B2704702460020D3680B42CD
:1043E00001D0012000E0002070470146C86880B27B
:1043F000704701617047416170470AB1016100E097
:1044000041617047C16070474FF480320A43826156
:104410008161826182698269704702460020424B55
:1044200018684FF68073184040EA021008433E4B6C
:10443000186070473D49C8617047F0B50A460023CF
:1044400000240021002500F00046B6F1004F02D103
:10445000354EF16901E0344E7168C0F3034583B213
:1044600000F44016B6F5401F08D121F070612E4EC1
:10447000766826F070662C4F7E6012E000F480169D
:10448000B6F5801F06D1032606FA05F4A14341F0D4
:10449000706106E0460D360103FA06F6B14341F0BD
:1044A000706122B1460D360103FA06F6314300F081
:1044B0000046B6F1004F02D11B4EF16101E01A4EE9
:1044C0007160F0BD30B500228B071C0F0F2303FA7B
:1044D00004F2154B08338C1053F824309343124CDC
:1044E00008348D1044F8253023468C1053F82430BE
:1044F0008C07240F00FA04F423430B4C08348D106E
:1045000044F8253030BD0A49086070470008014072
:10451000000C01400010014000140140001801404F
:10452000001C01400020014000000140000020422A
:10453000DC002042DB48006840F00100D9490860F7
:1045400008464068D8490840D6494860084600688F
:10455000D6490840D34908600846006820F4802006
:1045600008600846406820F4FE0048604FF41F00D1
:1045700088607047CB49096821F48031C94A1160CD
:104580001146096821F480211160B0F5803F03D005
:10459000B0F5802F0ED106E0C249096841F48031A0
:1045A000C04A116007E0BF49096841F4A021BD4A33
:1045B000116000E000BF00BF704710B50146002247
:1045C000002300204A11012A02D1B64C236806E0DC
:1045D000022A02D1B34C236A01E0B24C636A01F0B3
:1045E0001F02012494401C4201D0012000E0002061
:1045F00010BD70B500240025002600BF3120FFF754
:10460000DCFF0646641CB4F5A06F01D0002EF5D087
:104610003120FFF7D2FF08B1012500E00025284630
:1046200070BD014600209F4A106820F0F80040EA63
:10463000C100106070479E49086070470246002024
:10464000984B586820F47C1042EA01031843954BBC
:104650005860704796490866704701460020914AA5
:10466000506820F003000843506070478D48406850
:1046700000F00C007047014600208A4A506820F084
:10468000F00008435060704701460020854A50689A
:1046900020F4E06008435060704701460020814AE2
:1046A000506820F4605040EAC1005060704729B162
:1046B0007C4A527A02437B4B5A7206E0794A527A1C
:1046C000C343DBB21A40774B5A727047794908608E
:1046D000704701460020734A506820F44040084368
:1046E000506070470021744A11706E4A82F82010A1
:1046F000012802D0042808D103E001216E4A11707C
:1047000004E005216C4A117000E000BF00BF704753
:104710006A49086070476349096A0143614A116246
:10472000704767490860704730B5002100220024B7
:1047300000235C4D6D6805F00C0121B1042905D002
:10474000082923D105E05F4D056022E05D4D05603D
:104750001FE0544D6D6805F47012524D6D6805F4FC
:104760008034022505EB92421CB9574D5543056034
:104770000BE04C4D6D6815F4003F03D0524D55438E
:10478000056002E04F4D5543056002E04D4D056068
:1047900000BF00BF434D6D6805F0F00109094B4DA6
:1047A0006B5C0568DD4045603E4D6D6805F4E06179
:1047B000090A464D6B5C4568DD408560394D6D6882
:1047C00005F46051C90A414D6B5C4568DD40C56028
:1047D000344D6D6805F44041890B3D4D6B5CC568F7
:1047E000B5FBF3F5056130BD29B12E4A526902438C
:1047F0002C4B5A6104E02B4A52698243294B5A617F
:10480000704729B1274A92690243264B9A6104E016
:10481000244A92698243234B9A61704729B1214A05
:10482000D26902431F4BDA6104E01E4AD269824317
:104830001C4BDA61704729B11A4AD2680243194BFE
:10484000DA6004E0174AD2688243164BDA60704798
:1048500029B1144A12690243124B1A6104E0114A49
:10486000126982430F4B1A6170471A4908607047FA
:104870000F49C86470470B49C87170470948406ABE
:1048800040F0807007494862704701460020054AA1
:1048900092680A4201D0012000E0002070470149DF
:1048A00088727047001002400000FFF8FFFFF6FE1C
:1048B00000004242D800424220100240800442429E
:1048C0003C04424200127A0000093D0074000020BE
:1048D000840000204004424210B50446FF48844250
:1048E00008D10121C014FFF7A6FF0021E014FFF753
:1048F000A2FFC4E0B4F1804F08D101210846FFF7C0
:10490000A7FF00210120FFF7A3FFB8E0F44884428D
:1049100008D101210220FFF79BFF00210220FFF7B1
:1049200097FFACE0EF48844208D101210420FFF753
:104930008FFF00210420FFF78BFFA0E0EA488442AC
:1049400008D101210820FFF783FF00210820FFF78D
:104950007FFF94E0E548844208D101211020FFF751
:1049600077FF00211020FFF773FF88E0E0488442C2
:1049700008D101212020FFF76BFF00212020FFF745
:1049800067FF7CE0DB48844208D101214014FFF737
:1049900052FF00216014FFF74EFF70E0D6488442BA
:1049A00009D10121C804FFF746FF00214FF4002080
:1049B000FFF741FF63E0D148844209D10121080596
:1049C000FFF739FF00214FF48010FFF734FF56E066
:1049D000CB48844209D101214805FFF72CFF002173
:1049E0004FF40010FFF727FF49E0C648844208D182
:1049F00001214020FFF72CFF00214020FFF728FF76
:104A00003DE0C148844208D101218020FFF720FF0A
:104A100000218020FFF71CFF31E0BC48844208D110
:104A200001218015FFF714FF0021A015FFF710FFEB
:104A300025E0B748844209D101210804FFF7FBFEB5
:104A400000214FF48030FFF7F6FE18E0B1488442B1
:104A500009D101214804FFF7EEFE00214FF4003098
:104A6000FFF7E9FE0BE0AC48844208D1012188043D
:104A7000FFF7E1FE00214FF48020FFF7DCFE10BDC0
:104A800000220288954B98420ED09A4B98420BD048
:104A9000B0F1804F08D0924B984205D0914B98428C
:104AA00002D0914B984204D14FF68F731A404B8835
:104AB0001A438E4B984207D08D4B984204D04FF644
:104AC000FF431A40CB881A4302808B8883850B886A
:104AD0000385824B98420BD0864B984208D08C4B72
:104AE000984205D08B4B984202D08B4B984201D113
:104AF0000B7A038601238382704770B5002400225D
:104B00000023058C4FF6FE7635400584028C8388A1
:104B1000048B4FF68F752C40B51E2C400D882C430E
:104B2000751E2A400D892A434D882A436B4DA842A1
:104B30000BD0704DA84208D0754DA84205D0754DD8
:104B4000A84202D0744DA84213D14FF6F7752A40FF
:104B50004D892A434FF6FB752A408D882A434FF62C
:104B6000FF652B404FF6FF552B408D892B43CD8998
:104B70002B4383800483CD888586028470BD70B505
:104B8000002400220023058C4FF6EF763540058483
:104B9000028C8388048B48F6FF752C404FF6FF4546
:104BA0002C400D882D0644EA15444FF6DF752A4047
:104BB0000D892D0542EA15424D882D0542EA154220
:104BC000464DA84202D04B4DA8421BD14FF67F75EF
:104BD0002A404D892D0542EA15424FF6BF752A40FD
:104BE0008D882D0542EA15424FF6FF352B404FF2D6
:104BF000FF752B408D89AD0443EA1543CD89AD0483
:104C000043EA154383800483CD880587028470BD01
:104C100070B5002400220023058C4FF6FF66354056
:104C20000584028C8388848B4FF68F752C404FF659
:104C3000FC752C400D882C434FF6FF552A400D89FA
:104C40002D0642EA15424D882D0642EA1542234DB3
:104C5000A84202D0274DA8421BD14FF2FF752A402F
:104C60004D892D0642EA15424FF6FF352A408D88C0
:104C70002D0642EA15424EF6FF752B404DF6FF75A4
:104C80002B408D892D0543EA1543CD892D0543EA37
:104C9000154383808483CD888587028470BD70B579
:104CA000002200230024058C4EF6FF763540058453
:104CB000038C8488828B48F6FF752A404FF6FF45A7
:104CC0002A400D882D0642EA15424DF6FF752B400D
:104CD0000D892D0743EA15434D881FE0002C014044
:104CE0000004004000080040000C0040001000409C
:104CF0000014004000340140004C014000500140CD
:104D00000054014000180040001C004000200040FA
:104D10000040014000440140004801402D0743EAA3
:104D20001543F94DA84202D0F84DA84206D14BF6E2
:104D3000FF752C408D89AD0544EA1544848082833B
:104D4000CD88A0F84050038470BD828B4FF2FF33B2
:104D50001A408283828B0B0642EA13428283704799
:104D6000F0B50C461546002200210026078C4EF6B1
:104D7000FF7C07EA0C070784828B018C27073E0C17
:104D800040F6FF473A402F0642EA17421F0742EA21
:104D90001742DD4FB8420ED0DC4FB8420BD0B0F115
:104DA000804F08D0DA4FB84205D0DA4FB84202D06F
:104DB000D94FB84206D14DF6FF77394046F48057B7
:104DC000394305E047F6FF57394044F480573943EB
:104DD00082830184F0BD828B4FF6F3731A40828385
:104DE000828B0A4382837047F0B50C461546002239
:104DF00000210026078C4FF6FF6C07EA0C0707849A
:104E0000828B018C27063E0C4FF60C773A401F052B
:104E100045EA17473A43BC4FB8420ED0BB4FB842A1
:104E20000BD0B0F1804F08D0B94FB84205D0B94F80
:104E3000B84202D0B84FB84206D14FF6FF573940BA
:104E400046F48077394305E04FF2FF57394044F488
:104E50008077394382830184F0BD028B4FF2FF33A8
:104E60001A400283028B0B0642EA13420283704708
:104E7000F0B50C461546002200210026078C4FF69F
:104E8000EF7C07EA0C070784028B018C27053E0C98
:104E900040F6FF473A401F0742EA17422F0642EA10
:104EA0001742994FB8420ED0984FB8420BD0B0F18C
:104EB000804F08D0964FB84205D0964FB84202D0E6
:104EC000954FB84206D14FF6DF77394046F01007CC
:104ED000394305E04FF65F77394044F01007394316
:104EE00002830184F0BD028B4FF6F3731A400283F4
:104EF000028B0A4302837047F0B50C461546002228
:104F00000021068C4FF6FE773E400684028B018C12
:104F10004FF60C7632401E0545EA164632437A4E6D
:104F2000B0420ED0794EB0420BD0B0F1804F08D0D5
:104F3000774EB04205D0774EB04202D0764EB042A6
:104F400006D14FF6FD76314044F00106314305E0CD
:104F50004FF6F576314044F0010631430283018477
:104F6000F0BD70B505460C46674885420ED06748CF
:104F700085420BD0B5F1804F08D06548854205D0F9
:104F80006448854202D06448854200D100E000BFF9
:104F9000208850B92389A28861882846FFF7ACFF92
:104FA000E1882846FFF79FFF25E0208804280AD1E2
:104FB0002389A28861882846FFF75AFFE18828469E
:104FC000FFF74BFF17E0208808280AD12389A28821
:104FD00061882846FFF708FFE1882846FFF7FBFEB7
:104FE00009E02389A28861882846FFF7B9FEE18895
:104FF0002846FFF7AAFE70BD2DE9F04105460C4694
:1050000000260127608808B9022600E00026A08853
:10501000012801D1022700E001272088A0B92389B7
:10502000A28861882846FFF767FFE1882846FFF7D6
:105030005AFF23893A4631462846FFF719FFE1888F
:105040002846FFF70AFF13E02389A28861882846D3
:10505000FFF70EFFE1882846FFF7FFFE23893A4657
:1050600031462846FFF748FFE1882846FFF73BFF17
:10507000BDE8F0810A884B881A438B881A43CB8895
:105080001A430B891A434B891A438B891A43A0F898
:10509000442070474FF6FF71818000210180C1805C
:1050A0004180017270470021018041808180C18070
:1050B000018141818181C18170470021018041804E
:1050C000012181800021C180018170470021018080
:1050D00041808180C180018141818181704721B1FE
:1050E000028842F00102028004E002884FF6FE735B
:1050F0001A400280704789B1B0F8442042F400425F
:10510000A0F8442010E00000002C014000340140D1
:105110000004004000080040000C0040B0F84420AB
:10512000C2F30E02A0F84420704710B51AB183896B
:105130000B43838104E08389CC43A4B22340838161
:1051400010BD8182704741EA0203A0F848307047E1
:1051500010B51AB183890B43838104E08389CC4362
:10516000A4B22340838110BD01894FF6F87211402B
:10517000018170470A46002101894FF68F7319405B
:1051800011430181704730B504460D46294620463B
:10519000FFF7F0FF208940F00700208130BD2DE9A6
:1051A000F04104460D4616461F46602D06D13B468B
:1051B000012231462046FFF75BFE05E03B46012217
:1051C00031462046FFF798FE29462046FFF7D2FFDA
:1051D000208940F007002081BDE8F08130B50C4601
:1051E00000210189C9B21D0642EA1545254329431C
:1051F000018130BD2DE9F04105460E46174698461F
:10520000002443463A4631462846FFF7E7FF2C89FB
:105210004FF6F8710C4044F007044FF68F710C40C4
:1052200044F070042C81BDE8F081F0B504460D46D1
:1052300016461F463B46324629462046FFF7CEFF1C
:10524000208940F480402081F0BD01858282704732
:105250000A46002101884FF68F73194011430180DF
:105260007047F0B50C4615461E460021002200236B
:105270000189028B038C4FF6F877394021434FF6B2
:10528000FC473A4040F201173A434FF6DD773B4086
:10529000370545EA17473B43018102830384F0BD8C
:1052A0000A460021018B4FF68F7319401143018389
:1052B00070470A460021018B48F6FF731940130618
:1052C00041EA1341018370470A460021818B4FF662
:1052D0008F7319401143818370470A460021818BE7
:1052E00048F6FF731940130641EA13418183704762
:1052F00021B1028842F08002028004E002884FF669
:105300007F731A400280704721B1828842F0040204
:10531000828004E082884FF6FB731A4082807047D7
:1053200021B1828842F00802828004E082884FF630
:10533000F7731A408280704721B1828842F00102DF
:10534000828004E082884FF6FE731A4082807047A4
:105350000A460021018B4FF6F77319401143018370
:1053600070470A460021018B4FF2FF731940130664
:1053700041EA1341018370470A460021818B4FF6B1
:10538000F77319401143818370470A460021818BCE
:105390004FF2FF731940130641EA134181837047AE
:1053A0000A460021018B4FF6FB731940114301831C
:1053B00070470A460021018B4FF6FF331940130650
:1053C00041EA1341018370470A460021818B4FF661
:1053D000FB7319401143818370470A460021818B7A
:1053E0004FF6FF331940130641EA1341818370479A
:1053F0000A460021018B4FF67F7319401143018348
:1054000070470A460021018BC1F30E01130641EAE1
:105410001341018370470A460021818B4FF67F7349
:1054200019401143818370470A460021818BC1F3E3
:105430000E01130641EA1341818370470A46002199
:10544000018C4FF6FD7319401143018470470A46E1
:105450000021018C4FF6F773194011430184704706
:105460000A460021018C4FF6DF731940130541EA0B
:105470001341018470470A460021018C4FF67F7367
:105480001940130541EA1341018470470A4600217F
:10549000018C4FF6FF531940130641EA1341018472
:1054A00070470A460021018C4FF2FF731940130622
:1054B00041EA1341018470470A460021018C4DF6F0
:1054C000FF731940130741EA13410184704730B557
:1054D000002301248C40A3B2048CDD43ADB22C40E8
:1054E0000484048C02FA01F5ADB22C43048430BD6F
:1054F00030B5002304248C40A3B2048CDD43ADB24C
:105500002C400484048C02FA01F5ADB22C430484CF
:1055100030BD70B503460020002418461830012520
:105520008D40ACB21D8CE643B6B235401D8409B146
:10553000082909D100EB6100056825F070050560B8
:105540000568154305600CE00D1FADB200EB65006A
:10555000056825F4E04505600568160645EA164528
:10556000056070BD21B1028842F00202028004E0B1
:1055700002884FF6FD731A400280704721B10288FD
:1055800042F00402028004E002884FF6FB731A40E6
:105590000280704721B1828842F08002828004E05C
:1055A00082884FF67F731A408280704702884FF6D8
:1055B000F7731A40028002880A430280704782888B
:1055C0004FF68F731A40828082880A438280704728
:1055D00002894FF6F8731A40028102890A43028158
:1055E000704702894FF67F731A40028102890A438D
:1055F000028170478184704781857047818670473A
:105600000187704781877047A0F840107047028873
:105610004FF6FF431A40028002880A430280704717
:105620000146888E70470146088F70470146888F73
:1056300070470146B1F8400070470146888C7047BA
:105640000146088D704702460020138A0B4201D0A4
:10565000012000E000207047CA430282704730B545
:105660000246002000230024158A05EA01039589DB
:1056700005EA010413B10CB1012000E0002030BDA7
:10568000CA4302827047000010B50446FC488442B9
:1056900009D101218803FFF7CEF800214FF48040A3
:1056A000FFF7C9F832E0F748844209D101214804E4
:1056B000FFF7CEF800214FF40030FFF7C9F825E0DE
:1056C000F148844209D101218804FFF7C1F8002183
:1056D0004FF48020FFF7BCF818E0EC48844209D171
:1056E0000121C804FFF7B4F800214FF40020FFF7B0
:1056F000AFF80BE0E648844208D101210805FFF726
:10570000A7F800214FF48010FFF7A2F810BD2DE993
:10571000F04786B005460E460024A24600BFA146CB
:105720000027B08900B100BF2F462C8A4CF6FF70CD
:105730000440F08804432C82AC894EF6F3100440F8
:10574000B08831890843718908430443AC81AC8A2D
:105750004FF6FF400440B0890443AC8201A8FEF735
:10576000E3FFC748874202D1DDF810A001E0DDF871
:105770000CA0A88910F4004F08D00AEBCA0000EB77
:105780000A1031684900B0FBF1F807E00AEBCA00E3
:1057900000EB0A1031688900B0FBF1F86420B8FB17
:1057A000F0F004012009642101FB1089A88910F49C
:1057B000004F08D0322000EBC900B0FBF1F000F040
:1057C0000700044308E0322000EB09106421B0FB1D
:1057D000F1F000F00F0004432C8106B0BDE8F08723
:1057E0004FF41651016000218180C18001810C219C
:1057F000418100218181704710B502460020108A46
:105800004FF2FF0318400B884C8823438C882343B6
:10581000CC8823431843108210BD002101804180B1
:105820008180C180704721B1828942F40052828117
:1058300004E082894DF6FF731A4082817047F0B50B
:1058400003460024002600250020A1F510676A3FCA
:1058500000D100BF1846C1F3421401F01F06012712
:1058600007FA06F5012C01D10C3004E0022C01D11D
:10587000103000E014301AB107682F43076002E0CF
:105880000768AF430760F0BD10B51AB1838A0B43B8
:10589000838204E0838ACC43A4B22340838210BD78
:1058A000028A4FF6F0731A400282028A0A43028289
:1058B000704782894FF2FF731A40828182890A43BE
:1058C0008281704721B1828942F00202828104E024
:1058D00082894FF6FD731A4082817047028A4FF623
:1058E000DF731A400282028A0A430282704721B1A2
:1058F000028A42F48042028204E0028A4BF6FF737D
:105900001A4002827047C1F3080282807047014644
:105910008888C0F308007047818941F001018181C6
:105920007047028BD2B20283028B42EA01220283C9
:105930007047028B02F47F420283028B0A43028388
:10594000704721B1828A42F02002828204E0828A7A
:105950004FF6DF731A408282704721B1828A42F08B
:105960001002828204E0828A4FF6EF731A4082822C
:10597000704721B1828A42F00802828204E0828A62
:105980004FF6F7731A408282704721B1828942F440
:105990000042828103E08289C2F30E028281704755
:1059A00021B1828A42F40062828204E0828A4FF24C
:1059B000FF731A4082827047828A4FF6FB731A4047
:1059C0008282828A0A438282704721B1828A42F0AF
:1059D0000202828204E0828A4FF6FD731A408282BC
:1059E000704702460020B1F5007F00D100BF138848
:1059F0000B4201D0012000E00020704701F400724A
:105A0000B2F5007F00D100BFCA430280704770B575
:105A100002460024002300250020A1F510666A3EFE
:105A200000D100BFC1F3421501F01F03012606FAA1
:105A300003F3012D02D19689334006E0022D02D1F5
:105A4000168A334001E0968A33400C12012606FA8A
:105A500004F41688344013B10CB1012000E000209A
:105A600070BD10B500220023A1F510646A3C00D17E
:105A700000BF0A1201249440A3B2DC43048010BD8D
:105A8000003801400044004000480040004C004005
:105A90000050004010B50446F848844208D1012166
:105AA0004015FEF7C8FE00216015FEF7C4FE17E0A2
:105AB000F348844208D101210015FEF7BCFE002105
:105AC0002015FEF7B8FE0BE0EE48844208D1012114
:105AD000C803FEF7B0FE00214FF40040FEF7ABFE16
