:020000040800F2
:1000000018C300201D300008BD040008BF0400080C
:10001000C3040008C7040008CB0400080000000067
:10002000000000000000000000000000CF040008F5
:10003000D104000800000000D3040008D504000823
:1000400037300008373000083730000837300008F4
:100050003730000837300008097900083F79000878
:1000600077790008AD79000837300008373000088C
:1000700037300008373000083730000837300008C4
:1000800037300008373000083730000837300008B4
:1000900037300008373000083730000837300008A4
:1000A0003730000837300008373000083730000894
:1000B000BF760008AD740008977700083730000855
:1000C0003730000837300008373000083730000874
:1000D000373000082B550008DF740008AB6A0008B1
:1000E0003730000837300008373000083730000854
:1000F0003730000837300008373000083730000844
:100100003730000837300008373000083730000833
:10011000BD6B0008596D0008373000083730000803
:100120003730000837300008373000083730000813
:1001300000F002F800F0B2F80AA090E8000C824447
:100140008344AAF10107DA4501D100F0A7F8AFF224
:10015000090EBAE80F0013F0010F18BFFB1A43F0A5
:1001600001031847C84F0100E84F01000A444FF04F
:10017000000C10F8013B13F0070408BF10F8014B06
:100180001D1108BF10F8015B641E05D010F8016B4B
:10019000641E01F8016BF9D113F0080F1EBF10F8AF
:1001A000014BAD1C0C1B09D16D1E58BF01F801CBD2
:1001B000FAD505E014F8016B01F8016B6D1EF9D555
:1001C0009142D6D37047000000230024002500266A
:1001D000103A28BF78C1FBD8520728BF30C148BFAA
:1001E0000B6070476E290AF0578770290AF01A844D
:1001F00066290DF0A98465290DF0A68467290DF004
:10020000A3846129AFF3008003681B0A28BF41F073
:10021000800169290AF0128364290AF00F83752985
:100220000AF00C836F290AF0A58378290AF0E68387
:10023000E9290AF03D83E4290AF03A83F5290AF016
:100240003783EF290AF0A283F8290AF0E5830368CF
:10025000DB0928BF41F0800163290AF05A8773291E
:100260000AF05F87E3290BF00786F3290BF00C8671
:10027000002070471FB50DF05BFC0CF0F3FA040092
:10028000002000210DF0E6FA401C606000200021F3
:100290000DF0F6FAE0601FBD10B510BD0CF0BDFA10
:1002A0001146FFF7E7FF00F009F80CF095FB03B4E7
:1002B000FFF7F2FF03BC05F0DFF800001CB505F006
:1002C00073F805F0D3F805F077F905F021FA4FF44B
:1002D000165005F0DEF84FF4165006F08BFB4FF485
:1002E000165006F019FC4FF4165006F0D2FC05F03B
:1002F000B5FB07F07DFA06F083FD05F042FA09F040
:10030000BFFE01F0A3FD264926A00AF023FA2849E2
:1003100028A00AF01FFA2A4803882A48C278CDE9A3
:10032000002383784278017827A00AF013FA2D4839
:1003300081682DA00AF00EFA2A48C16830A00AF0A0
:1003400009FA2848016834A00AF004FA25484168EF
:1003500037A00AF0FFF9234801693BA00AF0FAF937
:10036000204841693FA00AF0F5F91E48816944A080
:100370000AF0F0F91B48C16948A00AF0EBF907F050
:1003800005FF05F00BFE4FF4E15142F2107007F04B
:1003900022F900204849086001E001F0FCFAFCE77E
:1003A0001400002061646D696E3D25730D0A000024
:1003B000D80100204165734B65793D25730D0A0016
:1003C000260000202100002053657276657241648A
:1003D00064723D25642E25642E25642E25643A25FD
:1003E000640D0A004C030020546F74616C41636318
:1003F0006F756E742E436F696E313D25640D0A0072
:10040000546F74616C4163636F756E742E436F69D2
:100410006E323D25640D0A00546F74616C41636354
:100420006F756E742E43617368313D25640D0A004B
:10043000546F74616C4163636F756E742E436173A6
:1004400068323D25640D0A00546F74616C4163632A
:100450006F756E742E506C757365313D25640D0A91
:1004600000000000546F74616C4163636F756E74BB
:100470002E506C757365323D25640D0A0000000036
:10048000546F74616C4163636F756E742E436F6952
:100490006E4F313D25640D0A00000000546F7461F9
:1004A0006C4163636F756E742E436F696E4F323D9E
:1004B00025640D0A00000000B0812242704700BF91
:1004C000FEE700BFFEE700BFFEE700BFFEE77047A4
:1004D000704770477047000000210020674A12688B
:1004E00042F48032654B1A6000BF644A126802F41D
:1004F0000030491C10B9B1F5A06FF6D15F4A1268FF
:1005000012F4003F01D0012000E00020012842D178
:100510005B4A126842F01002594B1A601A46126880
:1005200022F003021A601A46126842F002021A60B0
:10053000524A5268514B5A601A4652685A601A46DB
:10054000526842F480625A601A46526822F47C1261
:100550005A601A46526842F4E8125A601A46126803
:1005600042F080721A6000BF444A126812F0007FA5
:10057000FAD0424A526822F00302404B5A601A46AF
:10058000526842F002025A6000BF3C4A526802F0D0
:100590000C02082AF9D1704710B5FFF79DFF10BD76
:1005A00010B53648006840F001003449086008463C
:1005B000406834490840314948600846006832497B
:1005C00008402E4908600846006820F48020086032
:1005D0000846406820F4FE0048604FF41F00886021
:1005E000FFF7DAFF4FF000602849086010BD10B532
:1005F000002100200022214B5B6803F00C0121B197
:10060000042906D0082928D107E0214B214C23607A
:1006100027E01F4B1F4C236023E0184B5B6803F45B
:100620007010164B5B6803F48032022303EB90409A
:1006300022B9194B4343174C23600DE00F4B5B6805
:1006400013F4003F04D0144B4343124C236003E0E7
:100650000F4B43430F4C236003E00D4B0D4C2360C5
:1006600000BF00BF054B5B68C3F303130B4CE15C99
:10067000084B1B68CB40074C236010BD00100240A4
:10068000002002400000FFF8FFFFF6FE08ED00E04A
:1006900000127A000000002000093D000400002044
:1006A0001FB50020019002900390FF480068019060
:1006B000FE48D0F8EC070290FD4800680390039BC9
:1006C0000093FCA1FF48DDE901230AF04FF81FBDAC
:1006D0002DE9F04100272321FB480AF0A8FAF0B3E6
:1006E000F949FAA00AF036F80024002548E0F64857
:1006F000005D20B90020FA490880002743E0F24855
:10070000005D242802D10127002504E0EE48005DA9
:10071000232800D10227012F07D1EB48025D28468C
:10072000691C8DB2EF490A5425E0022F23D100271E
:1007300023222846691C8DB2EA490A5400204855F4
:1007400008460AF0B4FA8046E64A0146E6A00AF0F6
:1007500001F8E4480AF0ABFA082804D900E013E0F5
:10076000E04801F0BEFFDF480AF0A1FA80460146EA
:10077000DC480AF070FB0020D3490855601C84B2A5
:10078000B4F5806FB3DB00BFDC48008810F4004F85
:1007900019D0DA480088C0F30E050022E9B2D84823
:1007A00002F083FB002409E0D548015DD5A009F0E3
:1007B000D1FF0020D2490855601C84B2AC42F3DB63
:1007C0000020CE490880D1480078052190FBF1F245
:1007D00001FB120040B90120CC4908700020CC492F
:1007E0000880CCA006F0A2FDC948008810F4004F94
:1007F0001ED0CBA1CC480AF024FA0646AEB12C217B
:1008000030460AF014FA0646761C3078312805D0B6
:100810003078352802D007F03BFA06E0C34800786C
:1008200010F0040F01D107F027F90020B849088023
:10083000BDE8F08110B5BE48007810F0010F0ED071
:10084000BB48007800F0FE00B94908700020B949A3
:100850000870B94804228168102005F053F9B448A3
:10086000007810F0020F0ED0B148007800F0FD00C3
:10087000AF4908700020AF490870AF480422C16832
:10088000182005F03FF9AA48007810F0040F0ED0A8
:10089000A748007800F0FB00A54908700020A54992
:1008A0000870A54804220169202005F02BF9A04812
:1008B000007810F0080F0ED09D48007800F0F70087
:1008C0009B49087000209B4908709B4804220169DD
:1008D000282005F017F99648007810F0100F0ED078
:1008E0009348007800F0EF0091490870002091498A
:1008F0000870914804220168002005F003F98C4833
:10090000007810F0200F0ED08948007800F0DF004A
:100910008749087000208749087087480422416889
:10092000082005F0EFF810BD10B58148007820B11F
:10093000FFF780FF00207E4908707E48007800F0B5
:100940007F000A280BDD80207A49087000207B494F
:10095000086001F00AFD7A4800210160416010BD85
:100960002DE9F04107460D46002421E0052006F060
:1009700089FA06198CB90A20B6FBF0F100FB116068
:10098000B0B10A20B6FBF0F100FB11603030C2B20A
:100990002046611CCCB22A540AE00A20B6FBF0F1D2
:1009A00000FB11603030C2B22046611CCCB22A5428
:1009B000BC42DBDB00202855BDE8F0812DE9F8437F
:1009C0008146484608F0E1FF5E480068F021B1EB3F
:1009D000400F04DA5CA009F0BDFEBDE8F8830024F6
:1009E00009E0584800686043F021B1EB400F00DA9D
:1009F00003E0601CC4B20A2CF3DB00BF601E40049D
:100A0000050C504909686943C1F1F00000EBD07151
:100A1000C1F34F074FF00A0800242CE0002624E021
:100A2000B12060434F490844805D01281BD1002359
:100A300006F1010C05FB0C8CACF1010C00931FFAC4
:100A40008CF304F1010C05FB0C7CACF1010C1FFADA
:100A50008CF205FB068C1FFA8CF105FB047C1FFA57
:100A60008CF005F0E6FB701CC6B236480068864282
:100A7000D6DB601CC4B2334800688442CEDB00BFC2
:100A8000ABE77CB5002001904FF6FF7005F072FADD
:100A9000354B00931E2341220A214FF4BE7005F00E
:100AA00007FF32A3102269E0E8F7FF1F00F0FF1FE5
:100AB000F0F7FF1F25303878253038782530387822
:100AC000000000002C030020200900204752505352
:100AD00020526563656976653A2025730D0A00002A
:100AE000820000202C0200207061636B5F6C656ED9
:100AF0003D2564203A2025730D0A0000780000206F
:100B000060050020253032582000000084000020BD
:100B10008000002041542B435245473F0D0A0000FE
:100B20002B43524547000000A00800208800002009
:100B3000860000201E0000204C030020380000200A
:100B400028000020B801002054686520515220433D
:100B50006F646520697320746F6F206C61726765C4
:100B6000210D0A002E0D00204CDC00087777772E2F
:100B7000796F75626F6E2E6E657400002D21C8004E
:100B800005F06EFEFFA320225021702005F068FEC4
:100B9000B4234FF48B728221802005F007FC01A85A
:100BA0000AF085F80646014601A80AF054F96020CB
:100BB00004F058FFF749087008460278F6A101A82A
:100BC00009F0D4FD01A80AF072F8C4B201AB2022EA
:100BD0008A21084605F044FE40E004F04AFE05463E
:100BE0000DB3232D0DD101A80AF014F8C4B23CB105
:100BF000E84804700178602004F05EFF02F027F9F5
:100C00002DE02A2D10D104B929E0601EC4B20023C2
:100C10008A2101EB0410009320231A4605F030FCD2
:100C2000002001A9085513E0302D11DB392D0FDC10
:100C3000032C0DDA00238A2101EB041000932023FA
:100C40002A4605F01DFC2046611CCCB201A90D54BA
:100C5000FFF76AFEFFF73CFD06F0D4FEBDE700BFDC
:100C60007CBD38B5FF254FF6FF7005F083F9CB4BFF
:100C700000931E2341220A214FF4BE7005F018FE96
:100C8000AFF2181310222D21C80005F0E9FDA6E0EF
:100C9000FF2D3FD14FF6FF7300934FF4A0734FF435
:100CA000AF720021084605F0C4FABD48007801285B
:100CB00012D11F20BB490880BBA320226421A020A1
:100CC00005F0CEFD0020B7490880BAA32022962166
:100CD000A02005F0C5FD15E0B1480078022811D12B
:100CE0001F20B0490880B3A320229621A02005F040
:100CF000B7FD0020AB490880ABA320226421A020CF
:100D000005F0AEFDAEA320224FF48C71502005F00B
:100D1000A7FD002504F0ADFD04469CB3232C00D1B3
:100D20005EE02A2C00D15BE0302C52DB392C50DC09
:100D3000312C02D0322C4BD125E00120984908708B
:100D400008460178402004F0B7FE4FF6FF73009389
:100D500040F23F134FF4BE724621002005F069FABD
:100D60009CA320226421802005F07AFD9DA32022EF
:100D70009621642005F074FDFF254FF47A7004F08D
:100D80004AFB25E025E002208549087008460178E5
:100D9000402004F091FE4FF6FF7300934FF4A073D0
:100DA0004FF4AF720021084605F043FA89A32022D0
:100DB0006421802005F054FD8EA32022962164201A
:100DC00005F04EFDFF254FF47A7004F024FB00BFC0
:100DD00000BFFFF7A9FDFFF77BFC06F013FE57E706
:100DE00000BF38BD2DE9F04186B0FF270024002662
:100DF000142101A80AF02FF84FF6FF7005F0BAF899
:100E0000664B00931E2341220A214FF4BE7005F069
:100E10004FFDAFF2A82310222D21C80005F020FDC0
:100E200064E1FF2F29D146BB3CBB4FF6FF73009313
:100E30004FF4A0734FF4AF720021084605F0F9F9A2
:100E400070A320225021702005F00AFDB4234FF436
:100E50008B728221802005F0A9FA002608E000208C
:100E600001A9885500210DF10E008155701CC6B2F4
:100E70000A2EF4DB00260024002704F0FAFC0546C5
:100E8000F5B3232D7DD1E6B9082C1ADC0126002408
:100E90004FF6FF7300934FF4A0734FF4AF7200212D
:100EA000084605F0C6F95BA320225021702005F00A
:100EB000D7FCB4234FF48B728221802005F076FAA0
:100EC0000EE1012E1CD1082C1ADC0DF10E0101A837
:100ED00009F0E8FFB8BB534809F0E9FE8046014637
:100EE000504809F0B8FF01A94E4809F0BCFE4D4832
:100EF00009F0DDFE1FFA80F842464A49302000E042
:100F0000EEE004F052FE4FF6FF7300934FF4A0732F
:100F10004FF4AF720021084605F08BF942A320225E
:100F20007821802005F09CFC43A32022AA21802068
:100F300005F096FC3B4944A009F00CFC4FF47A7094
:100F400004F069FAD3E0FFE74FF6FF7300934FF424
:100F5000A0734FF4AF720021084605F06AF93FA371
:100F600020227821802005F07BFC40A32022AA21AA
:100F7000802005F075FC4FF47A7004F04CFA0026DE
:100F80007CE07EE0C7EBCAE4C8EBBBEEB6AFB1D203
:100F9000CAFD3A0020000020256400004CDC000857
:100FA0001F00002072000020312ED3B2B1D231BF19
:100FB000DA000000322ED3B2B1D232BFDA00000024
:100FC000C7EBB0B4312C322CBDF8D0D0D1A1D4F1C4
:100FD00000000000C5E4D6C3D6A7B8B6B3C9B9A609
:100FE000A3A10000CAB9D3C3D3B2B1D231BFDAD6FC
:100FF000A7B8B600CAB9D3C3D3B2B1D232BFDAD61A
:10100000A7B8B600C7EBCAE4C8EBD0C2C3DCC2EBDA
:101010003A000000C7EBD4D9CAE4C8EBD2BBB4CEC7
:101020003A00000014000020B8FCB8C4C3DCC2EBD6
:10103000B3C9B9A6A3A10000C7EBBCC7D7A1D0C252
:10104000C3DCC2EBA3A10000C4E3CAE4C8EBC3DC69
:10105000C2EBCAC73D25730D0A000000B8FCB8C436
:10106000C3DCC2EBCAA7B0DCA3A10000C7EBD6D893
:10107000D0C2CAE4C8EBA3A1000000000024FF27EF
:101080002EE02A2D14D104B931E0601EC4B2002331
:101090008A2101EB0410009320231A4605F0F0F991
:1010A000002006EB860101AA02EB4101085517E07A
:1010B000302D15DB392D13DC082C11DA00238A21A1
:1010C00001EB0410009320232A4605F0D9F906EB22
:1010D000860001A901EB40022046611CCCB21554E8
:1010E000FFF722FCFFF7F4FA06F08CFC99E600BF4C
:1010F00006B0BDE8F0817FB50F240020019002907A
:10110000039097E00F2C29D14FF6FF7004F032FFC7
:10111000FF4B00931E2341220A214FF4BE7005F0BD
:10112000C7FBAFF2B85310222D21C80005F098FB81
:10113000F8A320225021702005F092FBB42340F246
:101140003B128221A52005F031F901A809F0AFFD7D
:101150000646014601A809F07EFE002404F089FB42
:1011600005469DB3232D32D101A9AFF2241009F019
:10117000F1FAED4901A809F095FE10B9002004B07C
:1011800070BD4FF6FF7300934FF4A0734FF4BE721F
:101190004621002005F04DF8E4A3202264218020A0
:1011A00005F05EFBAFF23C1320229621802005F073
:1011B00057FB01A809F07BFD0646014601A809F08E
:1011C0004AFE4FF47A7004F026F90F2427E02A2D06
:1011D00011D104B92FE0601EC4B20023AF2101EB8E
:1011E0000410009320231A468A2105F049F90020B3
:1011F00001A9085513E0302D11DB392D0FDC082C27
:101200000DDA0023AF2101EB0410009320232A46BE
:101210008A2105F035F901A80555601CC4B2FFF715
:1012200083FBFFF755FA06F0EDFB04F0BEFA012848
:1012300000D100E066E700BF0120A0E7F8B5FF2578
:1012400086E0FF2D57D1BD480068BC494968084475
:10125000BA4989680844B949C9680844B849086066
:10126000B6488069B549C9690844B64908604FF66F
:10127000FF7004F07FFEA64B00931E2341220A213B
:101280004FF4BE7005F014FBAFF2207310222D2135
:10129000C80005F0E5FAAC4809F009FD064601462C
:1012A000A94809F0D8FDA648A8A10268A64809F0F7
:1012B0005DFAA54B20226421502005F0D1FAA24806
:1012C00009F0F5FC064601469F4809F0C4FD9D481B
:1012D000A2A102689C4809F049FA9B4B2022962162
:1012E000502005F0BDFAA1A3202240F209114020B0
:1012F00005F0B6FA002504F0BCFA044614B32A2C13
:1013000001D0232C00D124E0302C1BD1FFF7F3FEB9
:10131000B8B92021894809F09EFD04220021084621
:1013200004F0F0FB04220021082004F0EBFB04226F
:101330000021102004F0E6FB04220021182004F014
:10134000E1FBFF25FFF7F0FAFFF7C2F906F05AFBC1
:1013500077E700BFF8BD38B54FF6FF7004F00AFE1E
:101360006B4B00931E2341220A214FF4BE7005F0FF
:101370009FFAAFF6080310222D21C80005F070FA7D
:101380007F4809F094FC044601467D4809F063FD5E
:101390007C497B4809F067FC7B49794809F0A6FC49
:1013A0007748FFF70BFB79A3202264214FF482706A
:1013B00005F056FA79A3202296214FF4827005F0A9
:1013C0004FFA79A3202240F20911142005F048FABF
:1013D0000AE004F04EFA2A2800D106E0FFF7A4FA4A
:1013E000FFF776F906F00EFBF3E700BF38BD38B51E
:1013F000FF256CE0FF2D39D14FF6FF7004F0BAFDE8
:10140000434B00931E2341220A214FF4BE7005F086
:101410004FFAAFF6A80310222D21C80005F020FADC
:1014200069A320225021282005F01AFA69A320225E
:101430005021F02005F014FA69A3202282212820EF
:1014400005F00EFA69A320228221F02005F008FAA7
:1014500069A32022B421282005F002FA6AA32022E1
:101460004FF48C71502005F0FBF9002504F001FACF
:1014700004460CB3302C1FDB352C1DDCA4F13100ED
:10148000052818D2DFE800F003070B0F1300FFF761
:1014900062FFFF250FE0FFF7D1FEFF250BE0FFF70E
:1014A000A1FCFF2507E0FFF7DCFBFF2503E0FFF7CA
:1014B000E8FAFF2500BF00BFFFF736FAFFF708F98B
:1014C00006F0A0FA04F071F9012800D100E091E7DC
:1014D00000BF38BD2DE9F0419EB0064600201C90AB
:1014E0001D90FF241A901B90202112A809F0B3FC34
:1014F000402102A809F0AFFC214809F0D8FB804642
:1015000001461F4809F0A7FC44491D4888E0000037
:101510004CDC0008C7EBCAE4C8EBB9DCC0EDD4B1C1
:10152000C3DCC2EB3A00000014000020C3DCC2EBB5
:10153000B2BBD5FDC8B7A3A1000000004C0300203A
:101540003400002030000020EC010020CFDFCFC2AB
:10155000D3AACAD53A20256400000000CFDFC9CF46
:10156000D3AACAD53A20256400000000B0B420CA2E
:10157000FDD7D63020C7E5C1E3D5CBCEF1000000C2
:10158000AC020020A5EB00082C030020C7EBD3C35E
:10159000CEA2D0C5C9A8C2EB00000000B0F3B6A827
:1015A000B1BEC9E8B1B80000C9E8B1B8B0F3B6A897
:1015B000BAF3BFC9D2D4D3C3CAD6BBFAB2E9BFB457
:1015C000D5CBCEF100000000312EB0F3B6A8D6D5B1
:1015D000B6CB0000322EB2E9BFB4D5CBCEF10000BD
:1015E000332ED0DEB8C4C3DCC2EB0000342EC5E419
:1015F000D6C3D6A7B8B60000352EBBEEB6AFB1D273
:10160000CAFDC1BF00000000C7EBB0B4CAFDD7D609
:10161000BCFCBDF8D0D0D1A1D4F1000088EB00080B
:1016200009F021FBFE49FF4809F060FBFC49FEA0E0
:1016300009F090F81AA90520FFF792F91AAB324683
:10164000FDA1FF4809F092F8FD49FEA009F082F8DB
:10165000FB4809F02CFB00F0FF08FF4B424612A9A3
:10166000F74808F02DFEC7B202AA394612A809F0C1
:1016700030F802A9F9A009F06DF8EA4809F017FB63
:10168000E84900EB010802AAF9A1404609F06EF80A
:1016900080E1FF2C3DD14FF6FF7004F06BFCF64B60
:1016A00000931E2341220A214FF4BE7005F000F979
:1016B000AFF6483310222D21C80005F0D1F8D948E3
:1016C000FFF77CF9D749EDA009F044F8F0A32022F8
:1016D00040F20911282005F0C3F8F0A32022502180
:1016E000601D05F0BDF83346202278214FF48C7040
:1016F00005F0B6F8ECA32022A021601D05F0B0F89B
:10170000EC234FF4C372C4214FF4877004F04EFEF3
:10171000002404F0AEF80546E748008810F4004FB6
:1017200011D0E64801681C9100798DF874001CAB5B
:101730002022C8214FF48C7005F092F80524002077
:10174000DD4908802325F5B3232D7ED1DCB31AA90A
:101750001CA809F0A7FBB8BB1CA9D9A008F0FAFF88
:101760004FF6FF7300934FF4A073F0220021084658
:1017700004F05FFD4FF6FF7300934FF49B734FF43B
:10178000EB725021FA2004F054FDD4A32022502102
:10179000802005F065F8AA4809F089FA80460146DC
:1017A000A74809F058FB3246CFA1A54808F0DEFF54
:1017B000A34B20228221802005F052F8CDA32022C5
:1017C000B421802001E0DFE04EE005F049F84FF45D
:1017D0007A7003F020FE4FF47A7003F01CFEC948C3
:1017E0000078012811D1304609F014FAC6498871F1
:1017F000C648806989790844C4498861084604223A
:101800008169502004F07EF914E0BE480078022877
:1018100010D1304609F0FEF9BB49C871BB48C06918
:10182000C9790844B949C86108460422C1695820E9
:1018300004F068F91AA809F0EDF9B549086000F05C
:1018400094FD304609F0E6F900E036E000F0FF08CC
:101850004146AC48007803F00EFF0020AA49887189
:10186000C8711EB0BDE8F0811CA9AAA008F072FFE3
:101870004FF6FF7300934FF4A073F0220021084647
:1018800004F0D7FC4FF6FF7300934FF49B734FF4B3
:10189000EB725021FA2004F0CCFCA5A32022802179
:1018A000962004F0DDFFFF244FF47A7003F0B3FDBF
:1018B0004FF47A7003F0AFFD66E02A2D4FD184B16A
:1018C000601EC4B200234FF48C7101EB041000932E
:1018D00020231A46C82104F0D3FD00201CA9085576
:1018E00052E04FF6FF7300934FF4A073F0220021F3
:1018F000084604F09EFC4FF6FF7300934FF49B7371
:101900004FF4EB725021FA2004F093FC8BA32022B9
:101910008021084604F0A4FF8CA320224FF482719A
:10192000502004F09DFF8AA320224FF482714FF4CF
:10193000B87004F095FF00250FE003F09AFF05460C
:10194000232D00D18DE72A2D01D1FF2406E0FEF7DB
:10195000EBFFFEF7BDFE06F055F8EEE714E0302D84
:1019600012DB392D10DC052C0EDA00234FF48C71BC
:1019700001EB0410009320232A46C82104F080FDC7
:101980001CA80555601CC4B2FEF7CEFFFEF7A0FEF2
:1019900006F038F87DE69EB000201C901D901A904D
:1019A0001B90202112A809F056FA402102A809F044
:1019B00052FAFF24012748E2FF2C30D1194809F0E0
:1019C00076F980460146174809F045FA1CA809F047
:1019D0006EF9804601461CA809F03DFA184809F046
:1019E00066F980460146164809F035FA59490D480E
:1019F00009F039F90A490B4809F078F967B11AA8D2
:101A000009F055F9804601461AA809F024FA1AA9E6
:101A10000620FEF7A5FF00271AAA4FA1A0E0FBE0D1
:101A20002C030020AC0200204350552049443A20AA
:101A300025730D0A000000002573232573000000A4
:101A4000EC010020BCD3C3DCC7B0B5C4C4DAC8DD28
:101A5000A3BA25730D0A0000D8010020BCD3C3DC53
:101A6000BAF3B5C4C4DAC8DDA3BA25730D0A000001
:101A700026763D25730000004CDC0008B6FECEAC97
:101A8000C2EBB5C4C4DAC8DDA3BA25730D0A0000E1
:101A9000C7EBC9A8C2EBD6A7B8B60000B9BAC2F264
:101AA000B1D2CAFDA3BA0000C7EBCAE4C8EBBDBB04
:101AB000D2D7C2EBA3BA00007C0000208006002031
:101AC000B9BAB1D2BDBBD2D7C2EB3D2573D1E9D6ED
:101AD000A4D5FDC8B7A3A10D0A000000D1E9D6A482
:101AE000B3C9B9A6A3A10000B1D2CAFDA3BA257398
:101AF00000000000D7A3C4FAD3CECFB7D3E4BFEC25
:101B0000A3A100001F000020280000204C0300209B
:101B100038000020B9BAB1D2BDBBD2D7C2EB3D2547
:101B200073D1E9D6A4CAA7B0DCA3A10D0A000000B6
:101B3000D1E9D6A4CAA7B0DCA3A10000CAC7B7F1F7
:101B4000C8A1CFFBB6A9B5A5A3BF0000B7F100009F
:101B5000CAC7000088EB000830232573000000008E
:101B6000F74808F003FEF649F6A008F0F3FDF44844
:101B700009F09DF800F0FF08F84B424612A9F04822
:101B800008F09EFBC6B202AA314612A808F0A1FDD9
:101B900002A9F3A008F0DEFDF74809F088F8F6493D
:101BA00000EB010802AAAFF23811404608F0DEFD52
:101BB0004FF6FF7004F0DEF9F04B00931E23412234
:101BC0000A214FF4BE7004F073FEED4B10222D215C
:101BD000C80004F045FEE848FEF7F0FEE9A3202225
:101BE00040F20911282004F03BFEE9A320225A21EB
:101BF0004FF4827004F034FEE8A320227B214FF4DE
:101C0000827004F02DFED2234FF4C872AA214FF443
:101C10008C7004F0CBFB002403F02BFE0546E24859
:101C2000008810F4004F11D0E04801681C918088B2
:101C3000ADF874001CAB2022AF2140F21D1004F05F
:101C40000FFE06240020D84908802325F5B3232D54
:101C50007ED1002C0ADD052C08DC1CA9D4A008F0DC
:101C600079FD1CA8FFF736FCFF24DDE0062C2DDBF8
:101C70001AA91CA809F016F948BB4FF6FF7004F02A
:101C800079F9BE4B00931E2341220A214FF4BE7006
:101C900004F00EFEBA4B10222D21C80004F0E0FD26
:101CA000AFF2C81320225021802004F0D9FDA448AF
:101CB00008F0FDFF80460146A14809F0CCF8BF4876
:101CC0000278BFA19E4808F051FD01E0ACE053E06E
:101CD0009B4B20228221802004F0C2FDAFF2EC1346
:101CE0002022B421802004F0BBFD4FF47A7003F071
:101CF00092FB4FF47A7003F08EFBB4480078012811
:101D000010D1AE480078B2498871B24880698979AB
:101D10000844B0498861084604228169502003F0D4
:101D2000F1FE13E0A948007802280FD1A3480078FB
:101D3000A749C871A748C069C9790844A549C861BD
:101D400008460422C169582003F0DCFE1CA800E00C
:101D50003CE008F05FFFA049086000F006FB9748F0
:101D600001789A48007803F086FC01270020984902
:101D70008871C871FF2427E01CA998A008F0EAFC2C
:101D80004FF6FF7300934FF4A073F0220021084632
:101D900004F04FFA4FF6FF7300934FF49B734FF428
:101DA000EB725021FA2004F044FAAFF27C23202297
:101DB0008021962004F054FD4FF47A7003F02BFB41
:101DC0004FF47A7003F027FBFF242DE02A2D12D167
:101DD000002C10DD601EC4B2002340F21D1101EB87
:101DE0000410009320231A46AF2104F049FB002081
:101DF0001CA9085518E0302D16DB392D14DC062CF3
:101E000012DA14B9302D00D11FE0002340F21D1169
:101E100001EB0410009320232A46AF2104F030FB8D
:101E20001CA80555601CC4B2FEF77EFDFEF750FCF1
:101E300003F0BBFC012805D1FFF75DF908B9FFF7F6
:101E4000D6FAFF2405F0DEFD00BFB5E510B5002091
:101E500003F008FEFF2809D100205E49086008460B
:101E600004220168002003F04DFE05E0042100205B
:101E700003F05DFE57490860082003F0F3FDFF28DA
:101E800009D10020534948600846042241680820CF
:101E900003F038FE05E00421082003F048FE4D4918
:101EA0004860102003F0DEFDFF2809D100204949D9
:101EB0008860084604228168102003F023FE05E0B4
:101EC0000421102003F033FE42498860182003F0FB
:101ED000C9FDFF2809D100203E49C86008460422F8
:101EE000C168182003F00EFE05E00421182003F05D
:101EF0001EFE3849C860202003F0B4FDFF2809D138
:101F0000002034490861084604220169202003F0BA
:101F1000F9FD05E00421202003F009FE2D490861A8
:101F2000282003F09FFDFF2864D100202949486143
:101F3000084604224169282003F0E4FD60E059E0EE
:101F4000EC010020BCD3C3DCC7B0B5C4BBEEB6AF58
:101F5000C2EB3A2025730D0A00000000D8010020D2
:101F6000BCD3C3DCBAF3B5C4BBEEB6AFC2EBA3BA05
:101F700025730D0A00000000AC0200204CDC0008B4
:101F80006C0B0008C9A8C2EBD9F8B4F3BDB10000CE
:101F9000C7EBCAE4C8EBB1D2CAFD0000BBF2BBEE8E
:101FA000B6AFC2EBA3BA00007C0000208006002080
:101FB000B9BAB1D2CAFD3D25730D0A002000002038
:101FC000B1D2CAFDA3BA2564000000001F000020A2
:101FD000280000204C03002038000020BBEEB6AFE4
:101FE000C2EB3D2573D1E9D6A4CAA7B0DCA3A10DED
:101FF0000A0000000421282003F099FD544948619B
:10200000302003F02FFDFF2809D1524808F04FFE81
:1020100084B222464F49302003F0C7FD04E0082275
:102020004C49302003F0B0FD402003F01BFDFF2899
:1020300007D10121402003F03FFD012046490870EF
:1020400004E0402003F00EFD43490870442003F0F3
:1020500009FDFF2810D104224049442003F0A5FDCA
:1020600002223F480188482003F04CFD3D4801789A
:102070004A2003F021FD0FE004223849442003F0F8
:1020800083FD0221482003F052FD354908804A2093
:1020900003F0E8FC33490870502003F0E3FCFF280C
:1020A00009D100202A49886108460422816950200C
:1020B00003F028FD05E00421502003F038FD2449F9
:1020C0008861582003F0CEFCFF2809D10020204968
:1020D000C86108460422C169582003F013FD05E0D9
:1020E0000421582003F023FD1949C861602003F042
:1020F000B9FCFF2807D105201B4908700521602085
:1021000003F0DAFC04E0602003F0ACFC1649087030
:10211000642003F0A7FCFF2809D114A1184808F097
:10212000A2FD10221649642003F03FFD04E01022B6
:102130001349642003F028FDFEF7B2FA114800218C
:10214000016041600020104908701049086010BD0E
:102150004C030020140000201F000020210000205C
:1021600026000020250000202000002030313233DE
:102170003435363738394142434445460000000083
:10218000D801002028000020860000203800002010
:10219000F0B5C1B004460E4615464FF4807101A853
:1021A00008F059FEE07818B33146601D08F008FACF
:1021B0002071FF4B701CC2B201A9201D08F080F8ED
:1021C000C7B23A4601A9201D08F09CFD381D2070B9
:1021D00000206070A0702420287021786A1C20469E
:1021E00008F077FA284608F062FD2321295415E00B
:1021F0003146601D08F0E4F92071701D2070002048
:102200006070A0702420287021786A1C204608F095
:1022100060FA284608F04BFD2321295441B0F0BD57
:1022200010B5C2B0E34808F042FD04460146E1485B
:1022300008F0EFFD00218DF805100D218DF8061036
:1022400000208DF801008DF802008DF80300D94AB6
:1022500002216846FFF79CFFD64808F028FD84B2AB
:102260002146D44805F065FCD249D3A008F072FAA3
:1022700042B010BD10B5C2B0CE4808F018FD0446FB
:102280000146CC4808F0C5FD00218DF805100B2152
:102290008DF8061000208DF801008DF802008DF8F1
:1022A0000300C44A02216846FFF772FFC14808F0E4
:1022B000FEFC84B22146BF4805F03BFCBD49C4A0EA
:1022C00008F048FA42B010BD10B5C2B0B94808F0E5
:1022D000EEFC04460146B74808F09BFD00218DF84E
:1022E00005100A218DF8061001218DF8071008212C
:1022F0008DF80810BD490A68CDF809204968CDF865
:102300000D1001218DF811108DF812108DF8131099
:102310008DF814108DF815108DF816108DF8171013
:102320008DF8181000208DF801008DF802000120B2
:102330008DF803009F4A14216846FFF729FF9D4846
:1023400008F0B5FC84B221469A4805F0F2FB9949A1
:10235000A7A008F0FFF942B010BD020E0A70020CEF
:102360004A70020A8A70C870704710B5C2B09148AE
:1023700008F09DFC044601468E4808F04AFD0621FF
:102380008DF8051008218DF8061098490A68CDF8D7
:1023900007204968CDF80B109C490A68CDF80F203A
:1023A0004968CDF813109A4908680DF11701FFF735
:1023B000D4FF974948680DF11B01FFF7CEFF944900
:1023C00088680DF11F01FFF7C8FF9149C8680DF13A
:1023D0002301FFF7C2FF8E4908690DF12701FFF7BE
:1023E000BCFF8B4948690DF12B01FFF7B6FF884907
:1023F00088690DF12F01FFF7B0FF8549C8690DF11C
:102400003301FFF7AAFF83480068010E8DF83710EB
:1024100080480068010C8DF838107E480068010A79
:102420008DF839107B480068C1B28DF83A10002051
:102430008DF801008DF8020001208DF803005D4A3F
:1024400036216846FFF7A4FE5A4808F030FC84B2F3
:102450002146584805F06DFB56496FA008F07AF9FF
:1024600042B010BD10B5C2B0524808F020FC04467E
:102470000146504808F0CDFC00218DF805100921D7
:102480008DF8061000208DF801008DF80200012063
:102490008DF80300474A02216846FFF779FE454858
:1024A00008F005FC84B22146424805F042FB414950
:1024B0005FA008F04FF942B010BD10B5C2B03D4862
:1024C00008F0F5FB044601463A4808F0A2FC00215A
:1024D0008DF8051005218DF8061000208DF80100FB
:1024E0008DF8020001208DF80300324A022168466F
:1024F000FFF74EFE2F4808F0DAFB84B221462D4844
:1025000005F017FB2B4950A008F024F942B010BD8C
:1025100010B5C2B0274808F0CAFB0446014625485A
:1025200008F077FC00218DF8051004218DF80610C5
:1025300000208DF801008DF8020001208DF80300C5
:102540001C4A02216846FFF723FE1A4808F0AFFB39
:1025500084B22146174805F0ECFA164940A008F06D
:10256000F9F842B010BD10B5C2B0124808F09FFB98
:10257000044601460F4808F04CFC00218DF8051078
:1025800003218DF8061008218DF8071017490A68F5
:102590000292496803911E49086804A9FFF7DDFE0D
:1025A0001B49486805A9FFF7D8FE1949886861E00A
:1025B000D80100206C030020D3A6B4F0B5E7D4B452
:1025C000BFD8D6C6D6A13A2025730D0A0000000058
:1025D000D3A6B4F0B8FCB8C4BBEEB6AFB1D2CAFD56
:1025E000C1BFD6A13A2025730D0A00003C0000208F
:1025F000D3A6B4F0B2E9D1AFBFD8D6C6B0E5D7B450
:10260000CCACD6A13A2025730D0A0000280000208A
:102610004C03002038000020D6D5B6CBC9CFB1A8D6
:10262000D3AACAD5CAFDBEDD3A2025730D0A000023
:10263000D3A6B4F0D6F7B6AFB3F6B1D2D6A13A204E
:1026400025730D0A00000000D3A6B4F0C9E8D6C374
:10265000C3DCD4BFD6A13A2025730D0A00000000C8
:10266000D3A6B4F04950C9E8D6C3D6A13A20257301
:102670000D0A000006A9FFF770FEF949C86807A90E
:10268000FFF76BFEF649086908A9FFF766FEF449F3
:10269000486909A9FFF761FEF14988690AA9FFF7AE
:1026A0005CFEEF49C8690BA9FFF757FE00208DF8C3
:1026B00001008DF8020001208DF80300E94A2C2169
:1026C0006846FFF765FDE74808F0F1FA84B2214655
:1026D000E44805F02EFAE349E3A008F03BF842B0E5
:1026E00010BDF0B5E5B00646802145A808F0B3FB63
:1026F000304608F0DCFA801E87B203AA3946701C07
:1027000007F090FFC4B29DF80C00A04208D09DF8DD
:102710000C202146DBA008F01DF8012065B0F0BDBB
:102720009DF80F0098B39DF80C00001FC2B2DE4B5D
:1027300045A904A807F0EEFEC4B20CB90120EDE7EC
:102740009DF814018DF81000621E0DF215110DF1A7
:10275000110008F0D7FA601EC1B20DF1110007F0A8
:102760002FFF9DF81010884206D09DF81010CFA0C2
:1027700007F0F0FF0120D1E79DF8110080B99DF826
:102780001200012804D1D2A007F0E4FF38E139E1BA
:102790009DF81200082802D1D2A007F0DBFF2FE13C
:1027A0009DF81100032805D1D3A007F0D3FFFFF750
:1027B000DAFE25E19DF81100042835D19DF81710A7
:1027C0009DF8160001EB002085B29DF818309DF8A9
:1027D0001510CDE9015300919DF814309DF8132098
:1027E0009DF81210CBA007F0B5FFD749DDF8120015
:1027F0000860D64805809DF81800D5490870042265
:10280000D149442003F0D1F90222D0480188482060
:1028100003F078F9CE4801784A2003F04DF9FFF72C
:1028200077FE05F029F9EBE09DF81100052828D185
:1028300000240EE0621C0DF11100815CC5A007F0C0
:1028400089FF611C0DF11100405C00B903E0601CC0
:10285000C4B2122CEEDB00BF102C01D001205DE7CA
:10286000BDA007F077FF10220DF112018E4808F08D
:1028700049FA10228C49642003F097F9FFF71DFEF6
:10288000BEE09DF81100092876D19DF81200B849E4
:1028900008709DF81300B7490860084600680002F8
:1028A00008609DF8140009680843B24908600846AA
:1028B0000068000208609DF8150009680843AD49EA
:1028C000086008460068000208609DF81600096864
:1028D0000843A8490860A648007800284ADD084651
:1028E0000068A5490968884244D9A2480068A249FD
:1028F0000860A04802689E480178A0A007F02AFF5F
:102900009B480178A948007802F0B5FEFFF7AAFDC0
:10291000A6480078012810D195480078A44988710C
:102920004F488069897908444D49886108460422E6
:102930008169502003F0E6F813E09C4800780228F3
:102940000FD18B4800789A49C8714548C069C97948
:1029500008444349C86108460422C169582003F06D
:10296000D1F8002093490860FFF7FFFC9048002150
:102970000160416044E0FFE79DF811000A2805D19D
:102980008DA007F0E7FEFFF79FFC39E09DF81100EE
:102990000B2813D19DF812108DA007F0DBFE9DF8D7
:1029A000120068B39DF8120090490870084601783B
:1029B000602003F081F8FFF75DFC21E09DF8110035
:1029C0000D281DD19DF8121089A007F0C3FE9DF8B7
:1029D00012008D4908700846007800F001008B490C
:1029E000086089480078C0F340008949C1F8A40113
:1029F00085480078C0F3800086490860FFF710FC26
:102A000000208BE6601FC1B20DF1110007F0D8FD68
:102A10009DF81010884206D09DF8101023A007F0F2
:102A200099FE01207AE69DF81100B8B99DF81200D0
:102A3000022803D178A007F08DFE20E19DF8120056
:102A4000062803D179A007F085FE18E19DF8120051
:102A5000072804D17CA007F07DFE10E111E1FFE022
:102A60004C0300206C030020D3A6B4F0D4CBD3AA2F
:102A7000CAFDBEDDC7EBC7F3D6A13A2025730D0A08
:102A800000000000B3A4B6C8B2BBB6D42C693D2583
:102A9000642C66702E4672616D654C656E67746855
:102AA0003D25640D0A000000D8010020D0A3D1E923
:102AB000C2EBB2BBB6D42C66702E666461742E4332
:102AC0006865636B53756D3D253032780D0A0000E3
:102AD000CAD5B5BDD7A2B2E1D3A6B4F0D6A10D0A2E
:102AE00000000000CAD5B5BDBBEEB6AFC2EBD3A6A1
:102AF000B4F0D6A10D0A0000CAD5B5BDC7EBC7F327
:102B0000D3AACAD5CAFDBEDDC3FCC1EED6A10D0A4B
:102B100000000000CAD5B5BD4950C9E8D6C3D6A14A
:102B20002049503A506F7274204164647265737327
:102B30003D25642E25642E25642E25643A25643BAC
:102B400025640D0A0000000021000020260000205E
:102B50002500002025630000CAD5B5BDC9E8D6C34D
:102B6000C3DCD4BFC3FCC1EED6A10D0A0000000037
:102B7000440000204C00002048000020CAD5B5BD0C
:102B8000D6F7B6AFB3F6B1D2C3FCC1EED6A12CB323
:102B9000F6B1D220256420B8F62CB3F6B1D2CAB172
:102BA000BCE420256420C3EB0D0A00001F000020B8
:102BB0002800002038000020CAD5B5BDB2E9D1AF49
:102BC000D7B4CCACC3FCC1EED6A10D0A0000000006
:102BD000CAD5B5BDB8FCB8C4BBEEB6AFB1D2CAFD5C
:102BE000CEAA20256420B8F60D0A0000200000209F
:102BF000CAD5B5BDB5E7D4B4BFD8D6C6D6A12530A1
:102C000032580D0A0000000070000020A00122428E
:102C100000002242B4012242CAD5B5BDD0C4CCF8CE
:102C2000D3A6B4F0D6A10D0A00000000CAD5B5BDE8
:102C3000D3AAD2B5C1F7CBAEC9CFB1A8D3A6B4F051
:102C4000D6A10D0A00000000CAD5B5BDC9CFB1A8F4
:102C5000B0E5D7B4CCACD3A6B4F0D6A10D0A000031
:102C60009DF812000C2803D1AEA007F073FD06E01A
:102C70009DF812000E2802D1B1A007F06BFD0020D4
:102C80004CE501204AE510B5C2B0B44808F00FF891
:102C900004460146B14808F0BCF801218DF8051042
:102CA000AF490DF1060007F0DEFFAEA10DF11E00E9
:102CB00007F0D9FF02218DF8291000208DF80100BE
:102CC0008DF802008DF80300A44A25216846FFF71D
:102CD0005FFAA24807F0EBFF84B221469F4804F058
:102CE00028FF9E49A2A007F035FD42B010BD70B587
:102CF000C2B004460D46994807F0D9FF0646014682
:102D0000964808F086F802218DF805108DF80640E7
:102D10008DF8075000208DF801008DF802008DF825
:102D200003008E4A03216846FFF732FA8B4807F00A
:102D3000BEFF86B23146894804F0FBFE92A007F040
:102D400009FD42B070BD10B5C2B0844807F0AFFFB6
:102D500004460146814808F05CF807218DF805100B
:102D600001218DF8061008218DF807108B490A689B
:102D700002924968039101218DF810108DF811100D
:102D80008DF812108DF813108DF814108DF81510A1
:102D90008DF816108DF81710814801788DF81810ED
:102DA00000208DF801008DF8020001208DF803004D
:102DB0006A4A14216846FFF7EBF9684807F077FF85
:102DC00084B22146654804F0B4FE644975A007F05A
:102DD000C1FC42B010BD10B5C2B0604807F067FF3B
:102DE000044601465D4808F014F808218DF80510E6
:102DF00073480068010E8DF8061071480068010CD8
:102E00008DF807106E480068010A8DF808106C48AC
:102E10000068C1B28DF8091000208DF801008DF80E
:102E2000020001208DF803004C4A05216846FFF797
:102E3000AFF94A4807F03BFF84B22146474804F007
:102E400078FE46495FA007F085FC42B010BD10B582
:102E5000C2B0424807F02BFF044601463F4807F046
:102E6000D8FF0C218DF805105C4801788DF806100C
:102E700000208DF801008DF8020001208DF803007C
:102E8000364A02216846FFF783F9344807F00FFFFE
:102E900084B22146314804F04CFE304A4F48017854
:102EA0004FA007F057FC42B010BDF0B5C3B00546C7
:102EB0000C461646294807F0FAFE07460146274801
:102EC00007F0A7FF0E218DF8091026B133480178CD
:102ED0008DF80A1003E0314841788DF80A108DF81A
:102EE0000B402246294603A807F00CFF00208DF86E
:102EF00005008DF8060001208DF80700174AE01C38
:102F0000C1B201A8FFF744F9144807F0D0FE87B218
:102F10003946124804F00DFE10493AA007F01AFC99
:102F200043B0F0BDCAD5B5BDBBEEB6AFB1D2CAFD98
:102F3000C1BFC9CFB1A8D3A6B4F0D6A10D0A000075
:102F4000CAD5B5BDC9CFB4ABB4AEBFDACAFDBEDD1C
:102F5000B5C4D3A6B4F0D6A10D0A00006C030020BE
:102F60002C030020313338303031333830303000EA
:102F7000D6D5B6CBB7A2B3F6D7A2B2E1D6A13A2046
:102F800025730D0A00000000D6D5B6CBB7A2B3F664
:102F9000D0C4CCF8D6A1210D0A0000003C000020CE
:102FA00070000020D6D5B6CBC9CFB1A8BFD8D6C641
:102FB000B0E5D7B4CCAC3A2025730D0A0000000070
:102FC00038000020C9CFB1A8D1E9D6A4BBEEB6AF76
:102FD000C2EBD6A13A2025730D0A00002000002084
:102FE000C9CFB1A8BBEEB6AFB1D2CAFDC1BF2025D3
:102FF0006420B8F62CC3FCC1EED6A13A2025730D8F
:103000000A000000D6D5B6CBC9CFB1A8B4AEBFDA9E
:10301000CAFDBEDD3A2025730D0A0000094880472D
:1030200009480047FEE7FEE7FEE7FEE7FEE7FEE7AA
:10303000FEE7FEE7FEE7FEE704480549054A064BC2
:1030400070470000A10500083101000818BD0020EC
:1030500018C3002018BF002018BF002036490143C4
:10306000364A1160704770B5002100230F22C478E2
:103070004CB3324C246804F4E064C4F5E0644FEAD5
:103080001421C1F1040322FA01F2447804FA03F195
:10309000847804EA020444EA01014FEA0111284C51
:1030A0000678A155047804F01F054FF0010404FAD6
:1030B00005F405784FEA65154FF0E02606EB850527
:1030C000C5F8004109E0047804F01F050124AC4074
:1030D0001C4D0678761145F8264070BD1A4A0A4004
:1030E00002431A4B1A60704741B1194A126842EA0A
:1030F00000024FF0E023C3F8102D07E0144A1268D5
:1031000022EA00024FF0E023C3F8102D7047042894
:1031100008D14FF0E021096941F004014FF0E022AD
:10312000116107E04FF0E021096921F004014FF03F
:10313000E0221161704700000000FA050CED00E08C
:1031400000E400E080E100E080FFFF1F08ED00E008
:1031500010ED00E001684FF6FE72114001600021A1
:10316000016041608160C1608749884208D1864919
:103170000839496841F00F01834A083A516088E0F4
:1031800081491431884208D17F490839496841F0A2
:10319000F0017D4A083A51607BE07B492831884242
:1031A00008D179490839496841F47061764A083A8A
:1031B00051606EE074493C31884208D17249083947
:1031C000496841F47041704A083A516061E06E49C3
:1031D0005031884208D16C490839496841F470215E
:1031E000694A083A516054E067496431884208D11D
:1031F00065490839496841F47001634A083A5160E9
:1032000047E061497831884208D15F490839496807
:1032100041F070615C4A083A51603AE05B4988428B
:1032200008D1A0F10401096841F00F01584AC2F821
:1032300004142EE055491431884207D155490968D4
:1032400041F0F001524AC2F8041422E04F492831FB
:10325000884207D14F49096841F470614C4AC2F86D
:10326000041416E049493C31884207D149490968AC
:1032700041F47041464AC2F804140AE0434950310F
:10328000884206D14349096841F47021404AC2F896
:103290000414704710B50022026847F6F0739A4391
:1032A0000C6A8B6823430C6923434C6923438C6964
:1032B0002343CC6923434C6A23438C6A23431A4338
:1032C0000260CB6843600B6883604B68C36010BDCD
:1032D0000021016041608160C160016141618161E3
:1032E000C161016241628162704721B1026842F0AE
:1032F0000102026004E002684FF6FE731A400260A9
:1033000070471AB103680B43036002E003688B4304
:1033100003607047416070470146486880B270475B
:1033200001460020002211F0805F02D01A4B1A687B
:1033300001E0174B1A680A4201D0012000E000208A
:10334000704710F0805F02D01249086001E0104918
:103350004860704701460020002211F0805F02D0D3
:103360000D4B1A6801E00A4B1A680A4201D001208D
:1033700000E00020704710F0805F02D0054908602F
:1033800001E0034948607047080002400804024019
:1033900000000240040402400004024000204749AB
:1033A00008604749C1F804044649086001F1040176
:1033B0000860454845490860704700213F498279C7
:1033C000DAB33F4AD2F8002403689A433C4BC3F86F
:1033D00000241A46D2F8042403689A4301F1040336
:1033E0001A60027911440A68036842EA03020A601B
:1033F000334AD2F80824036822EA0302304BC3F8A8
:1034000008241A46D2F80C24036822EA0302304B3F
:103410001A604279102A11D1294AD2F80824036887
:103420001A43274BC3F808241A46D2F80C24036821
:103430001A43234BC3F80C240EE007E01F494279DE
:1034400011440A6803681A430A6005E002791144CE
:103450000A6803689A430A6070470021016001719D
:103460000C2141710021817170471A49096841EAB4
:103470000001134AC2F81014704701460020134A95
:1034800012680A4201D0012000E0002070470F4975
:1034900008607047014600200022084B1B6803EAC1
:1034A0000102074BD3F814340B4202D00AB10120B9
:1034B00000E00020704705490860704700040140A3
:1034C0000000014008040140FFFF0F001404014008
:1034D0000C0401401004014030B943F2DB014FF00D
:1034E000204242F8201005E043F2D2014FF0204282
:1034F00042F820106FF07042411C4FF0204343F817
:10350000212011461A4602EB8002C2F804117047CE
:1035100010280AD118214FF020421166402151662F
:103520004FF0FC319166D16610E01821F84A116025
:103530004FF040014FF02042C2F884104FF0FC31B0
:10354000F44A11604FF02042C2F88C1070471820E6
:10355000F14908604FF000004FF02041C1F8A4008D
:103560004FF0FC30ED49086001F10401086001F101
:10357000040108607047D0E901121143C268114389
:10358000026911434269114382691143C2691143BF
:10359000026A1143426A1143826A1143C26A1143AB
:1035A000026B11434FF02043026843F822108168F8
:1035B000082908D11A46016852F8211041F040014B
:1035C000026843F82210416B0968426B526841EA75
:1035D0000211426B926841EA0221426BD26841EAD1
:1035E0000241426B126941EA0251426B526941EA5F
:1035F0000261426B926911430268521C4FF02043F2
:1036000043F82210C16AB1F5804F1AD1816B096865
:10361000826B526841EA0211826B926841EA022190
:10362000826B126941EA0251826B526941EA02617E
:10363000826B92691143026803EB8202C2F80411A3
:1036400008E06FF070414FF02043026803EB820204
:10365000C2F80411704730B50021002200234468ED
:1036600044F0080485682C43C5682C4305692C4345
:10367000456944EA4524856944EA4531C4692468BA
:10368000C5696D6844EA0524C569AD6844EA054426
:10369000C569ED6844EA0562046A2468056A6D68D4
:1036A00044EA0524056AAD6844EA0544056AED6804
:1036B00044EA05630468102C05D14FF020442166CC
:1036C000A266E36607E0924C21604FF02044C4F804
:1036D0008820934C236030BD016841F0100142689E
:1036E00041EA4221826841EA42318B4A1160C16855
:1036F0000968C268526841EA0221C268926841EAD8
:103700000241C268D26841EA0261844A11600169DB
:1037100009680269526841EA02210269926841EA35
:1037200002410269D26841EA02617E4A1160416940
:1037300009684269526841EA02214269926841EA95
:1037400002414269D26841EA02614FF02042C2F868
:10375000B0107047002101600221416000218160AA
:10376000C160016141618161C16101624FF48051B9
:103770004162490081620021C16201630F21426BF5
:103780001160426B5160FF21426B91600F21426BCF
:10379000D160426B1161426B51610021426B9161BA
:1037A0000F21826B1160826B5160FF21826B9160EF
:1037B0000F21826BD160826B1161826B516100219C
:1037C000826B91617047102101600021416081602E
:1037D000C160016141618161FC21C2691160C269FE
:1037E0005160C2699160C269D160026A1160026A67
:1037F0005160026A9160026AD160704700210160E5
:1038000041608160FC21C2681160C2685160C26879
:103810009160C268D16002691160026951600269F9
:1038200091600269D16042691160426951604269E8
:1038300091604269D160704751B14FF0204252F817
:10384000202042F001024FF0204343F8202009E0FD
:103850004FF0204252F82020334B1A404FF02043C3
:1038600043F82020704799B1102808D14FF020422A
:10387000126E42F004024FF020431A661DE0244A03
:10388000126842F004024FF02043C3F8802014E095
:10389000102809D14FF02042126E234BDB1E1A4034
:1038A0004FF020431A6608E0194A12681F4B02EADB
:1038B00003024FF02043C3F88020704740B11649FF
:1038C000096841F004014FF02042C2F8A01008E05E
:1038D00011490968154A01EA02014FF02042C2F875
:1038E000A010704799B1102808D14FF02042126EF5
:1038F00042F040024FF020431A662DE0044A12685D
:1039000042F040024FF02043C3F8802024E00FE053
:10391000800000A0880000A0A00000A0A80000A0D7
:103920008C0000A0AC0000A0FEFF0F00FBFF0F000A
:10393000102808D14FF02042126E684B1A404FF009
:1039400020431A6608E0664A1268644B02EA0302E2
:103950004FF02043C3F88020704701460020102913
:1039600003D14FF02042506F01E05E4A106870476B
:1039700010B5F2B1102807D14FF020435B6E0B4316
:103980004FF02044636632E0B0F5807F08D1564B9B
:103990001B6843EA01034FF02044C4F8843026E05A
:1039A000524B1B6843EA01034FF02044C4F8A43093
:1039B0001DE0102807D14FF020435B6E8B434FF082
:1039C0002044636613E0B0F5807F08D1464B1B6846
:1039D00023EA01034FF02044C4F8843007E0434B4E
:1039E0001B6823EA01034FF02044C4F8A43010BD43
:1039F00010B5024600200023102A03D14FF02044C6
:103A0000636E07E0B2F5807F02D1374C236801E096
:103A1000364C23680B4201D0012000E0002010BD8D
:103A2000102807D14FF02042526E8A434FF02043B6
:103A30005A6613E0B0F5807F08D12B4A126822EA5B
:103A400001024FF02043C3F8842007E0274A1268A0
:103A500022EA01024FF02043C3F8A420704770B55A
:103A600002460020002300240025102A03D14FF035
:103A70002046736E07E0B2F5807F02D11A4E33689C
:103A800001E01A4E336803EA010403EAD10514B1D8
:103A90000DB1012000E0002070BD102808D14FF0CA
:103AA0002042526E22EAD1024FF020435A6613E0C0
:103AB000B0F5807F08D10C4A126822EAD1024FF09B
:103AC0002043C3F8842007E0084A126822EAD102A2
:103AD0004FF02043C3F8A42070470000BFFF0F0041
:103AE000800000A0940000A0840000A0A40000A01A
:103AF00010B50446CA48844208D10121042000F0D0
:103B000024FB0021042000F020FB46E0C54884424D
:103B100008D10121082000F018FB0021082000F046
:103B200014FB3AE0C048844208D10121102000F083
:103B30000CFB0021102000F008FB2EE0BB48844263
:103B400008D10121202000F000FB0021202000F0FE
:103B5000FCFA22E0B648844208D10121402000F05E
:103B6000F4FA0021402000F0F0FA16E0B148844257
:103B700008D10121802000F0E8FA0021802000F027
:103B8000E4FA0AE0AC48844207D10121801500F034
:103B9000DCFA0021A01500F0D8FA10BD10B5012103
:103BA000084600F0D2FA0021012000F0CEFA10BD44
:103BB0002DE9F041024600250026002000230024C4
:103BC000002791F803C00CF00F0591F803C01CF01A
:103BD000100F03D091F802C04CEA0505B1F800C0FF
:103BE0001CF0FF0F31D0146800202BE04FF0010CC7
:103BF0000CFA00F3B1F800C00CEA03069E4220D193
:103C000083004FF00F0C0CFA03F7BC4305FA03FCDA
:103C10004CEA040491F803C0BCF1280F06D14FF020
:103C2000010C0CFA00FCC2F814C00AE091F803C0C1
:103C3000BCF1480F05D14FF0010C0CFA00FCC2F8A2
:103C400010C0401C0828D1D31460B1F800C0BCF1EA
:103C5000FF0F34DD546800202EE000F1080C4FF017
:103C6000010808FA0CF3B1F800C00CEA03069E4202
:103C700021D183004FF00F0C0CFA03F7BC4305FA77
:103C800003FC4CEA040491F803C0BCF1280F05D1F1
:103C900000F1080C08FA0CF8C2F8148091F803C07F
:103CA000BCF1480F07D100F1080C4FF0010808FAE9
:103CB0000CF8C2F81080401C0828CED35460BDE830
:103CC000F0814FF6FF710180022181700421C170E3
:103CD00070470246002093680B4201D0012000E0AB
:103CE000002070470146886880B270470246002075
:103CF000D3680B4201D0012000E00020704701464C
:103D0000C86880B2704701617047416170470AB16D
:103D1000016100E041617047C16070474FF480323B
:103D20000A438261816182618269826970470246C9
:103D30000020424B18684FF68073184040EA02108A
:103D400008433E4B186070473D49C8617047F0B565
:103D50000A46002300240021002500F00046B6F1A9
:103D6000004F02D1354EF16901E0344E7168C0F365
:103D7000034583B200F44016B6F5401F08D121F088
:103D800070612E4E766826F070662C4F7E6012E0D1
:103D900000F48016B6F5801F06D1032606FA05F456
:103DA000A14341F0706106E0460D360103FA06F6C4
:103DB000B14341F0706122B1460D360103FA06F6B7
:103DC000314300F00046B6F1004F02D11B4EF161C5
:103DD00001E01A4E7160F0BD30B500228B071C0F58
:103DE0000F2303FA04F2154B08338C1053F82430D8
:103DF0009343124C08348D1044F8253023468C1020
:103E000053F824308C07240F00FA04F423430B4C9E
:103E100008348D1044F8253030BD0A4908607047D9
:103E200000080140000C0140001001400014014056
:103E300000180140001C014000200140000001402A
:103E400000002042DC002042DB48006840F0010016
:103E5000D949086008464068D8490840D6494860B2
:103E600008460068D6490840D349086008460068FB
:103E700020F4802008600846406820F4FE00486076
:103E80004FF41F0088607047CB49096821F48031E6
:103E9000C94A11601146096821F480211160B0F50A
:103EA000803F03D0B0F5802F0ED106E0C2490968EB
:103EB00041F48031C04A116007E0BF49096841F40C
:103EC000A021BD4A116000E000BF00BF704710B5DF
:103ED00001460022002300204A11012A02D1B64CDB
:103EE000236806E0022A02D1B34C236A01E0B24CF7
:103EF000636A01F01F02012494401C4201D001209A
:103F000000E0002010BD70B500240025002600BF91
:103F10003120FFF7DCFF0646641CB4F5A06F01D02A
:103F2000002EF5D03120FFF7D2FF08B1012500E0C7
:103F30000025284670BD014600209F4A106820F0E9
:103F4000F80040EAC100106070479E490860704761
:103F500002460020984B586820F47C1042EA010386
:103F60001843954B5860704796490866704701465C
:103F70000020914A506820F00300084350607047C9
:103F80008D48406800F00C007047014600208A4AC6
:103F9000506820F0F0000843506070470146002050
:103FA000854A506820F4E06008435060704701463D
:103FB0000020814A506820F4605040EAC1005060FF
:103FC000704729B17C4A527A02437B4B5A7206E011
:103FD000794A527AC343DBB21A40774B5A72704720
:103FE00079490860704701460020734A506820F400
:103FF00040400843506070470021744A11706E4A77
:1040000082F82010012802D0042808D103E0012101
:104010006E4A117004E005216C4A117000E000BF87
:1040200000BF70476A49086070476349096A0143E5
:10403000614A1162704767490860704730B50021D6
:104040000022002400235C4D6D6805F00C0121B1B5
:10405000042905D0082923D105E05F4D056022E041
:104060005D4D05601FE0544D6D6805F47012524DB2
:104070006D6805F48034022505EB92421CB9574D5A
:10408000554305600BE04C4D6D6815F4003F03D0BF
:10409000524D5543056002E04F4D5543056002E027
:1040A0004D4D056000BF00BF434D6D6805F0F00148
:1040B00009094B4D6B5C0568DD4045603E4D6D6800
:1040C00005F4E061090A464D6B5C4568DD4085609A
:1040D000394D6D6805F46051C90A414D6B5C456806
:1040E000DD40C560344D6D6805F44041890B3D4DA0
:1040F0006B5CC568B5FBF3F5056130BD29B12E4A8F
:10410000526902432C4B5A6104E02B4A52698243A4
:10411000294B5A61704729B1274A92690243264BBD
:104120009A6104E0244A92698243234B9A61704762
:1041300029B1214AD26902431F4BDA6104E01E4AC9
:10414000D26982431C4BDA61704729B11A4AD2689E
:104150000243194BDA6004E0174AD2688243164BD7
:10416000DA60704729B1144A12690243124B1A618E
:1041700004E0114A126982430F4B1A6170471A49D1
:10418000086070470F49C86470470B49C871704791
:104190000948406A40F0807007494862704701460C
:1041A0000020054A92680A4201D0012000E0002068
:1041B0007047014988727047001002400000FFF804
:1041C000FFFFF6FE00004242D800424220100240AB
:1041D000800442423C04424200127A0000093D0041
:1041E00050000020600000204004424210B5044608
:1041F000FF48844208D10121C014FFF7A6FF002127
:10420000E014FFF7A2FFC4E0B4F1804F08D1012110
:104210000846FFF7A7FF00210120FFF7A3FFB8E042
:10422000F448844208D101210220FFF79BFF0021BE
:104230000220FFF797FFACE0EF48844208D101214C
:104240000420FFF78FFF00210420FFF78BFFA0E081
:10425000EA48844208D101210820FFF783FF0021AA
:104260000820FFF77FFF94E0E548844208D1012150
:104270001020FFF777FF00211020FFF773FF88E081
:10428000E048844208D101212020FFF76BFF002184
:104290002020FFF767FF7CE0DB48844208D1012142
:1042A0004014FFF752FF00216014FFF74EFF70E04B
:1042B000D648844209D10121C804FFF746FF0021F6
:1042C0004FF40020FFF741FF63E0D148844209D159
:1042D00001210805FFF739FF00214FF48010FFF797
:1042E00034FF56E0CB48844209D101214805FFF74D
:1042F0002CFF00214FF40010FFF727FF49E0C648CC
:10430000844208D101214020FFF72CFF00214020EA
:10431000FFF728FF3DE0C148844208D101218020F9
:10432000FFF720FF00218020FFF71CFF31E0BC4891
:10433000844208D101218015FFF714FF0021A01548
:10434000FFF710FF25E0B748844209D10121080496
:10435000FFF7FBFE00214FF48030FFF7F6FE18E078
:10436000B148844209D101214804FFF7EEFE002143
:104370004FF40030FFF7E9FE0BE0AC48844208D16F
:1043800001218804FFF7E1FE00214FF48020FFF7B0
:10439000DCFE10BD00220288954B98420ED09A4B4D
:1043A00098420BD0B0F1804F08D0924B984205D084
:1043B000914B984202D0914B984204D14FF68F73A3
:1043C0001A404B881A438E4B984207D08D4B984227
:1043D00004D04FF6FF431A40CB881A4302808B88E3
:1043E00083850B880385824B98420BD0864B98427D
:1043F00008D08C4B984205D08B4B984202D08B4B07
:10440000984201D10B7A038601238382704770B5ED
:10441000002400220023058C4FF6FE7635400584EB
:10442000028C8388048B4FF68F752C40B51E2C4070
:104430000D882C43751E2A400D892A434D882A4336
:104440006B4DA8420BD0704DA84208D0754DA842C4
:1044500005D0754DA84202D0744DA84213D14FF635
:10446000F7752A404D892A434FF6FB752A408D88FF
:104470002A434FF6FF652B404FF6FF552B408D89A1
:104480002B43CD892B4383800483CD88858602848A
:1044900070BD70B5002400220023058C4FF6EF7626
:1044A00035400584028C8388048B48F6FF752C40C8
:1044B0004FF6FF452C400D882D0644EA15444FF673
:1044C000DF752A400D892D0542EA15424D882D05DC
:1044D00042EA1542464DA84202D04B4DA8421BD19C
:1044E0004FF67F752A404D892D0542EA15424FF659
:1044F000BF752A408D882D0542EA15424FF6FF35DB
:104500002B404FF2FF752B408D89AD0443EA1543D4
:10451000CD89AD0443EA154383800483CD880587A4
:10452000028470BD70B5002400220023058C4FF674
:10453000FF6635400584028C8388848B4FF68F7527
:104540002C404FF6FC752C400D882C434FF6FF5540
:104550002A400D892D0642EA15424D882D0642EA71
:104560001542234DA84202D0274DA8421BD14FF23D
:10457000FF752A404D892D0642EA15424FF6FF3558
:104580002A408D882D0642EA15424EF6FF752B40D3
:104590004DF6FF752B408D892D0543EA1543CD89D6
:1045A0002D0543EA154383808483CD888587028463
:1045B00070BD70B5002200230024058C4EF6FF76F6
:1045C00035400584038C8488828B48F6FF752A4029
:1045D0004FF6FF452A400D882D0642EA15424DF65A
:1045E000FF752B400D892D0743EA15434D881FE0C9
:1045F000002C01400004004000080040000C004076
:10460000001000400014004000340140004C014004
:10461000005001400054014000180040001C0040C0
:10462000002000400040014000440140004801409B
:104630002D0743EA1543F94DA84202D0F84DA84290
:1046400006D14BF6FF752C408D89AD0544EA154423
:1046500084808283CD88A0F84050038470BD828B13
:104660004FF2FF331A408283828B0B0642EA1342D9
:1046700082837047F0B50C461546002200210026C3
:10468000078C4EF6FF7C07EA0C070784828B018CAF
:1046900027073E0C40F6FF473A402F0642EA1742F2
:1046A0001F0742EA1742DD4FB8420ED0DC4FB84236
:1046B0000BD0B0F1804F08D0DA4FB84205D0DA4FB6
:1046C000B84202D0D94FB84206D14DF6FF773940F3
:1046D00046F48057394305E047F6FF57394044F424
:1046E0008057394382830184F0BD828B4FF6F37388
:1046F0001A408283828B0A4382837047F0B50C464E
:104700001546002200210026078C4FF6FF6C07EAB1
:104710000C070784828B018C27063E0C4FF60C7722
:104720003A401F0545EA17473A43BC4FB8420ED0FE
:10473000BB4FB8420BD0B0F1804F08D0B94FB84250
:1047400005D0B94FB84202D0B84FB84206D14FF6A3
:10475000FF57394046F48077394305E04FF2FF5761
:10476000394044F48077394382830184F0BD028B61
:104770004FF2FF331A400283028B0B0642EA1342C8
:1047800002837047F0B50C46154600220021002632
:10479000078C4FF6EF7C07EA0C070784028B018C2D
:1047A00027053E0C40F6FF473A401F0742EA1742F2
:1047B0002F0642EA1742994FB8420ED0984FB8429E
:1047C0000BD0B0F1804F08D0964FB84205D0964F2D
:1047D000B84202D0954FB84206D14FF6DF77394044
:1047E00046F01007394305E04FF65F77394044F053
:1047F0001007394302830184F0BD028B4FF6F37337
:104800001A400283028B0A4302837047F0B50C46BC
:10481000154600220021068C4FF6FE773E400684A6
:10482000028B018C4FF60C7632401E0545EA164687
:1048300032437A4EB0420ED0794EB0420BD0B0F136
:10484000804F08D0774EB04205D0774EB04202D0AC
:10485000764EB04206D14FF6FD76314044F0010667
:10486000314305E04FF6F576314044F0010631431F
:1048700002830184F0BD70B505460C466748854249
:104880000ED0674885420BD0B5F1804F08D06548FF
:10489000854205D06448854202D06448854200D1F3
:1048A00000E000BF208850B92389A288618828468B
:1048B000FFF7ACFFE1882846FFF79FFF25E020883F
:1048C00004280AD12389A28861882846FFF75AFF65
:1048D000E1882846FFF74BFF17E0208808280AD117
:1048E0002389A28861882846FFF708FFE1882846C7
:1048F000FFF7FBFE09E02389A28861882846FFF7BD
:10490000B9FEE1882846FFF7AAFE70BD2DE9F04107
:1049100005460C4600260127608808B9022600E0FB
:104920000026A088012801D1022700E00127208865
:10493000A0B92389A28861882846FFF767FFE1882C
:104940002846FFF75AFF23893A4631462846FFF7A3
:1049500019FFE1882846FFF70AFF13E02389A288A0
:1049600061882846FFF70EFFE1882846FFF7FFFE23
:1049700023893A4631462846FFF748FFE188284612
:10498000FFF73BFFBDE8F0810A884B881A438B880C
:104990001A43CB881A430B891A434B891A438B89D4
:1049A0001A43A0F8442070474FF6FF718180002120
:1049B0000180C180418001727047002101804180E7
:1049C0008180C180018141818181C1817047002145
:1049D00001804180012181800021C18001817047D7
:1049E0000021018041808180C180018141818181DC
:1049F000704721B1028842F00102028004E002887F
:104A00004FF6FE731A400280704789B1B0F8442017
:104A100042F40042A0F8442010E00000002C0140C5
:104A2000003401400004004000080040000C004039
:104A3000B0F84420C2F30E02A0F84420704710B52D
:104A40001AB183890B43838104E08389CC43A4B2E8
:104A50002340838110BD8182704741EA0203A0F8A0
:104A60004830704710B51AB183890B43838104E045
:104A70008389CC43A4B22340838110BD01894FF6C2
:104A8000F8721140018170470A46002101894FF6F2
:104A90008F73194011430181704730B504460D46AC
:104AA00029462046FFF7F0FF208940F007002081CB
:104AB00030BD2DE9F04104460D4616461F46602DD7
:104AC00006D13B46012231462046FFF75BFE05E05A
:104AD0003B46012231462046FFF798FE29462046F4
:104AE000FFF7D2FF208940F007002081BDE8F08168
:104AF00030B50C4600210189C9B21D0642EA1545B0
:104B000025432943018130BD2DE9F04105460E467C
:104B100017469846002443463A4631462846FFF752
:104B2000E7FF2C894FF6F8710C4044F007044FF66C
:104B30008F710C4044F070042C81BDE8F081F0B519
:104B400004460D4616461F463B4632462946204639
:104B5000FFF7CEFF208940F480402081F0BD018521
:104B6000828270470A46002101884FF68F731940F0
:104B7000114301807047F0B50C4615461E460021D2
:104B8000002200230189028B038C4FF6F87739400D
:104B900021434FF6FC473A4040F201173A434FF6A3
:104BA000DD773B40370545EA17473B4301810283E8
:104BB0000384F0BD0A460021018B4FF68F73194024
:104BC0001143018370470A460021018B48F6FF73A9
:104BD0001940130641EA1341018370470A46002138
:104BE000818B4FF68F7319401143818370470A46BA
:104BF0000021818B48F6FF731940130641EA1341E7
:104C00008183704721B1028842F08002028004E073
:104C100002884FF67F731A400280704721B1828864
:104C200042F00402828004E082884FF6FB731A404F
:104C30008280704721B1828842F00802828004E0BD
:104C400082884FF6F7731A408280704721B18288BC
:104C500042F00102828004E082884FF6FE731A401F
:104C6000828070470A460021018B4FF6F773194086
:104C70001143018370470A460021018B4FF2FF73F5
:104C80001940130641EA1341018370470A46002187
:104C9000818B4FF6F77319401143818370470A46A1
:104CA0000021818B4FF2FF731940130641EA134133
:104CB000818370470A460021018B4FF6FB73194030
:104CC0001143018370470A460021018B4FF6FF33E1
:104CD0001940130641EA1341018370470A46002137
:104CE000818B4FF6FB7319401143818370470A464D
:104CF0000021818B4FF6FF331940130641EA13411F
:104D0000818370470A460021018B4FF67F7319405B
:104D10001143018370470A460021018BC1F30E0144
:104D2000130641EA1341018370470A460021818B33
:104D30004FF67F7319401143818370470A46002163
:104D4000818BC1F30E01130641EA13418183704741
:104D50000A460021018C4FF6FD731940114301846E
:104D600070470A460021018C4FF6F7731940114332
:104D7000018470470A460021018C4FF6DF73194009
:104D8000130541EA1341018470470A460021018C52
:104D90004FF67F731940130541EA134101847047B0
:104DA0000A460021018C4FF6FF531940130641EAD1
:104DB0001341018470470A460021018C4FF2FF73B2
:104DC0001940130641EA1341018470470A46002145
:104DD000018C4DF6FF731940130741EA134101841A
:104DE000704730B5002301248C40A3B2048CDD430E
:104DF000ADB22C400484048C02FA01F5ADB22C4310
:104E0000048430BD30B5002304248C40A3B2048C4C
:104E1000DD43ADB22C400484048C02FA01F5ADB23E
:104E20002C43048430BD70B503460020002418468E
:104E3000183001258D40ACB21D8CE643B6B235402A
:104E40001D8409B1082909D100EB6100056825F02E
:104E5000700505600568154305600CE00D1FADB2D7
:104E600000EB6500056825F4E04505600568160659
:104E700045EA1645056070BD21B1028842F0020284
:104E8000028004E002884FF6FD731A4002807047EA
:104E900021B1028842F00402028004E002884FF649
:104EA000FB731A400280704721B1828842F0800271
:104EB000828004E082884FF67F731A4082807047B8
:104EC00002884FF6F7731A40028002880A43028074
:104ED000704782884FF68F731A40828082880A4317
:104EE0008280704702894FF6F8731A400281028966
:104EF0000A430281704702894FF67F731A4002818C
:104F000002890A4302817047818470478185704716
:104F1000818670470187704781877047A0F84010ED
:104F2000704702884FF6FF431A40028002880A4306
:104F3000028070470146888E70470146088F70478F
:104F40000146888F70470146B1F84000704701461E
:104F5000888C70470146088D704702460020138AEE
:104F60000B4201D0012000E000207047CA430282BA
:104F7000704730B50246002000230024158A05EA58
:104F80000103958905EA010413B10CB1012000E089
:104F9000002030BDCA4302827047000010B50446AD
:104FA000FC48844209D101218803FFF7CEF8002193
:104FB0004FF48040FFF7C9F832E0F748844209D146
:104FC00001214804FFF7CEF800214FF40030FFF72D
:104FD000C9F825E0F148844209D101218804FFF78E
:104FE000C1F800214FF48020FFF7BCF818E0EC482E
:104FF000844209D10121C804FFF7B4F800214FF41D
:105000000020FFF7AFF80BE0E648844208D1012109
:105010000805FFF7A7F800214FF48010FFF7A2F86A
:1050200010BD2DE9F04786B005460E460024A24685
:1050300000BFA1460027B08900B100BF2F462C8ACF
:105040004CF6FF700440F08804432C82AC894EF685
:10505000F3100440B0883189084371890843044340
:10506000AC81AC8A4FF6FF400440B0890443AC8267
:1050700001A8FEF7E3FFC748874202D1DDF810A080
:1050800001E0DDF80CA0A88910F4004F08D00AEB6D
:10509000CA0000EB0A1031684900B0FBF1F807E0E4
:1050A0000AEBCA0000EB0A1031688900B0FBF1F886
:1050B0006420B8FBF0F004012009642101FB108991
:1050C000A88910F4004F08D0322000EBC900B0FBD3
:1050D000F1F000F00700044308E0322000EB091073
:1050E0006421B0FBF1F000F00F0004432C8106B006
:1050F000BDE8F0874FF41651016000218180C18026
:1051000001810C21418100218181704710B5024647
:105110000020108A4FF2FF0318400B884C8823436D
:105120008C882343CC8823431843108210BD002170
:10513000018041808180C180704721B1828942F421
:105140000052828104E082894DF6FF731A40828109
:105150007047F0B503460024002600250020A1F585
:1051600010676A3F00D100BF1846C1F3421401F036
:105170001F06012707FA06F5012C01D10C3004E0C7
:10518000022C01D1103000E014301AB107682F430F
:10519000076002E00768AF430760F0BD10B51AB1C1
:1051A000838A0B43838204E0838ACC43A4B22340E6
:1051B000838210BD028A4FF6F0731A400282028A7F
:1051C0000A430282704782894FF2FF731A4082813C
:1051D00082890A438281704721B1828942F00202AA
:1051E000828104E082894FF6FD731A408281704704
:1051F000028A4FF6DF731A400282028A0A43028251
:10520000704721B1028A42F48042028204E0028A9D
:105210004BF6FF731A4002827047C1F30802828086
:10522000704701468888C0F308007047818941F0C3
:10523000010181817047028BD2B20283028B42EA64
:10524000012202837047028B02F47F420283028BA9
:105250000A430283704721B1828A42F0200282828F
:1052600004E0828A4FF6DF731A408282704721B1D0
:10527000828A42F01002828204E0828A4FF6EF7343
:105280001A408282704721B1828A42F008028282EB
:1052900004E0828A4FF6F7731A408282704721B188
:1052A000828942F40042828103E08289C2F30E02C5
:1052B0008281704721B1828A42F40062828204E0D6
:1052C000828A4FF2FF731A4082827047828A4FF6B9
:1052D000FB731A408282828A0A438282704721B11C
:1052E000828A42F00202828204E0828A4FF6FD73D3
:1052F0001A408282704702460020B1F5007F00D13B
:1053000000BF13880B4201D0012000E0002070474D
:1053100001F40072B2F5007F00D100BFCA430280E1
:10532000704770B502460024002300250020A1F537
:1053300010666A3E00D100BFC1F3421501F01F03A1
:10534000012606FA03F3012D02D19689334006E0C7
:10535000022D02D1168A334001E0968A33400C12A6
:10536000012606FA04F41688344013B10CB101206A
:1053700000E0002070BD10B500220023A1F51064EC
:105380006A3C00D100BF0A1201249440A3B2DC435E
:10539000048010BD00380140004400400048004037
:1053A000004C00400050004010B56FF00400FDF7C5
:1053B000AEFE2A4800682A49B0FBF1F0294908707E
:1053C000084600784FF47A7148432749088010BD99
:1053D0000146244A12784A434FF0E0235A610022E2
:1053E0009A611A46126942F001021A6100BF4FF039
:1053F000E022106910F0010F02D010F4803FF6D0C7
:105400004FF0E022126922F001024FF0E0231A610E
:1054100000229A6170470146134A12884A434FF0AE
:10542000E0235A6100229A611A46126942F0010291
:105430001A6100BF4FF0E022106910F0010F02D096
:1054400010F4803FF6D04FF0E022126922F0010202
:105450004FF0E0231A6100229A617047000000209B
:1054600000127A00640000206600002010B54FF49E
:10547000A060FDF7F3FD10BD014600BF704700BFFF
:10548000484A128812F0400FFAD0C2B2464B1A8036
:10549000704710B586B00446012144F20400FEF7BF
:1054A0003AFE4FF40070ADF8140003208DF816009A
:1054B00018208DF8170005A93C48FEF779FB4FF43A
:1054C0008060ADF8140004208DF8170005A9374856
:1054D000FEF76EFB25208DF8000003208DF80100FB
:1054E0008DF8020001208DF803006846FDF7BBFD32
:1054F00001940020ADF80800ADF80A00ADF80C00EA
:10550000ADF810000C20ADF80E0001A92548FFF7FA
:1055100088FD012240F225512248FFF71AFE0121A1
:105520002048FFF70AFE06B010BD10B540F2255125
:105530001C48FFF7F6FE10B31A48FFF772FEC4B21C
:105540001B48008810F4004F2BD11948008810F434
:10555000804F0CD00A2C03D000201549088020E091
:105560001348008840F400401149088019E00D2CD0
:1055700006D10F48008840F480400D49088010E0B3
:105580000B480088C0F30D000A490C5408480088F5
:10559000401C0749088008460088C72801DD002014
:1055A000088010BD00380140043801400008014067
:1055B000680000206C04002008B501217020FEF76F
:1055C000AAFD3020ADF8000010208DF80300032064
:1055D0008DF8020069464148FEF7EAFA10213F487B
:1055E000FEF791FB20213D48FEF78DFB4FF48050E4
:1055F000ADF8000010208DF8030003208DF80200A4
:1056000069463748FEF7D4FA4FF480513448FEF724
:105610007CFB0120ADF8000010208DF80300032072
:105620008DF8020069462F48FEF7C2FA4FF4805108
:105630002C48FEF76AFB4FF40C50ADF80000102028
:105640008DF8030003208DF8020069462648FEF716
:10565000AFFA0120254908602549C1F8A401254970
:1056600008604FF00700244908704FF001002349FB
:10567000C1F8B00108BD70B504460D46002622E011
:10568000012C08D11E48006808B9012000E0002064
:105690001B49086009E0022C07D11A48006808B9C4
:1056A000012000E00020174908603220FFF7B3FE18
:1056B0001548006808B9012000E000201249086080
:1056C00006F1010086B2B6EB450FD9DB01200C498B
:1056D00008600E49C1F8940170BD00000018014037
:1056E000001401400008014000100140A0012242C6
:1056F00000002242B40122427000002000802242B9
:105700009001234294012342B081224200002342AF
:1057100008B501212020FEF7FEFC4FF40050ADF843
:10572000000010208DF8030003208DF80200694668
:105730000448FEF73DFA4FF400510248FEF7E5FA3F
:1057400008BD00000014014068B1BF49BF4A1160A4
:105750001146C96801F47F41D1601146C96841F022
:105760003501D1600CE0BA49B84A11601146C968E8
:1057700001F47F41D1601146C96841F0C801D16090
:10578000704708B501211820FEF7C5FC4FF47040A2
:10579000ADF8000048208DF803006946AD48FEF7DB
:1057A00007FA0020FFF7D0FF08BD10B500244FF422
:1057B0008051A848FEF78DFA88B14FF40051A548F2
:1057C000FEF787FA58B14FF48041A248FEF781FAFC
:1057D00028B14FF400419F48FEF77BFAF0BB01204F
:1057E0009D4908604FF00A00FFF715FE4FF4805105
:1057F0009848FEF76EFA08B9012416E04FF40051FC
:105800009448FEF766FA08B902240EE04FF480418E
:105810009048FEF75EFA08B9032406E04FF4004111
:105820008C48FEF756FA00B9042400BF4FF48051AB
:105830008848FEF74EFA0028F8D04FF4005185480A
:10584000FEF747FA0028F1D04FF480418148FEF777
:1058500040FA0028EAD04FF4004100E004E07D481F
:10586000FEF737FA0028E1D000207B490860204687
:1058700010BD10B500240020FFF766FF7348806854
:1058800010F0800F01D0012000E000202043C4B2BE
:105890006E48806810F0400F01D0022000E0002028
:1058A0002043C4B26948806810F0080F01D004207A
:1058B00000E000202043C4B204F00700072875D0A0
:1058C0000A20FFF7A8FD04F0F8046048806810F093
:1058D000800F01D0012000E000202043C4B25B48CB
:1058E000806810F0400F01D0022000E0002020432B
:1058F000C4B25648806810F0080F01D0042000E0C0
:1059000000202043C4B204F0070007284ED0012035
:10591000FFF71AFF0A20FFF77EFD4C48806810F061
:10592000040F01D0102000E000202043C4B24748FB
:10593000806810F0100F01D0202000E000202043EC
:10594000C4B24248806810F0200F01D0402000E02F
:1059500000202043C4B23D48806810F0010F01D000
:10596000802000E000202043C4B204F0F000F028C2
:1059700067D004F00F043548806810F0040F01D0A0
:10598000102000E000202043C4B23048806810F0AE
:10599000100F01D0202000E000202043C4B22B488B
:1059A000806810F0200F02D0402001E049E0002084
:1059B0002043C4B22548806810F0010F01D0802038
:1059C00000E000202043C4B200BF2048806800F0FF
:1059D00035003528F9D1D32C25D00EDCB32C28D0B6
:1059E00006DC732C2BD0752C27D0762C29D122E005
:1059F000B52C1CD0B62C24D117E0E32C0DD004DC40
:105A0000D52C0ED0D62C1CD109E0E52C03D0E62CE9
:105A100017D1312010BD3220FCE73320FAE73420C3
:105A2000F8E73520F6E73620F4E73720F2E73820AC
:105A3000F0E73920EEE72A20ECE73020EAE72320E0
:105A4000E8E70020E6E7000008388833001001404E
:105A500003833388000C0140B481224210B500F06A
:105A6000B7F810BD70B50446002600F0C8F8A020B5
:105A700000F08DF900F00EF9201200F088F900F026
:105A800009F92546E11704EB11610912A4EB012184
:105A9000C8B200F07CF900F0FDF800F0B0F8A120E9
:105AA00000F075F900F0F6F8002000F0A7F90646BE
:105AB00000F0CBF8304670BD70B504460E4600F0DD
:105AC0009EF8A02000F063F900F0E4F8201200F046
:105AD0005EF900F0DFF82546E11704EB11610912C9
