:020000040800F2
:10000000A80C0020E5040008ED020008EF0200083B
:10001000F3020008F7020008FB02000800000000DD
:10002000000000000000000000000000FF020008C7
:100030000103000800000000030300080503000896
:10004000FF040008FF040008FF0400086D430008D7
:10005000FF040008FF040008FF040008FF04000874
:10006000FF040008FF040008FF040008FF04000864
:10007000FF040008FF040008FF040008FF04000854
:10008000FF040008FF040008FF040008FF04000844
:10009000FF040008FF040008FF040008FF04000834
:1000A000FF040008FF040008FF040008FF04000824
:1000B000673F0008654500080B400008FF04000882
:1000C000FF040008FF040008FF040008FF04000804
:1000D000FF040008ED2B00089145000819470008AF
:1000E000FF040008FF040008FF040008FF040008E4
:1000F000FF040008FF040008FF040008FF040008D4
:10010000FF040008FF040008FF040008FF040008C3
:10011000FF040008FF040008FF040008FF040008B3
:10012000FF040008FF040008FF040008FF040008A3
:1001300000F002F800F090F80AA090E8000C824469
:100140008344AAF10107DA4501D100F085F8AFF246
:10015000090EBAE80F0013F0010F18BFFB1A43F0A5
:1001600001031847CC970000EC970000103A24BF19
:1001700078C878C1FAD8520724BF30C830C144BF0C
:1001800004680C607047000000230024002500264E
:10019000103A28BF78C1FBD8520728BF30C148BFEA
:1001A0000B6070476E2904F0A383702904F0EC847F
:1001B000662905F0E785652905F0E485672905F0DE
:1001C000E1856129AFF3008003681B0A28BF41F075
:1001D0008001692904F05083642904F04D83752956
:1001E00004F04A836F2904F07784782904F0B884F6
:1001F000E92904F00F84E42904F00C84F52904F0C3
:100200000984EF2904F07484F82904F0B7840368A2
:10021000DB0928BF41F08001632905F04280732982
:1002200005F04780E32905F05280F32905F0578057
:10023000002070471FB505F0A3F80400002000213E
:1002400005F08AFD401C60600020002105F06EFD75
:10025000E0601FBD10B510BD05F065F81146FFF751
:10026000E9FF00F009F805F041F903B4FFF7F2FFE8
:1002700003BC02F061FC000002F0F0FB02F056FC4F
:1002800002F0FAFC02F012FD04F013F84FF41650DD
:1002900002F060FC4FF4165004F0DFF902F092FD1A
:1002A00002F020FD03F01FF84FF4E15142F210700C
:1002B00003F0E9FD012003F043FE4FF4FC6002F07F
:1002C000FEFF00240BE01421204602F0CAFF06497D
:1002D00008801421204602F0E0FF601CC4B2642CA8
:1002E000F1DB00BFFEE7000036000020704700BFD2
:1002F000FEE700BFFEE700BFFEE700BFFEE7704776
:1003000070477047704700000CB5002001900090C6
:100310006B48006840F480306949086000BF684855
:10032000006800F4003000900198401C0190009893
:1003300018B90198B0F5A06FF1D16148006810F4C8
:10034000003F02D00120009001E0002000900098C2
:10035000012842D15B48006840F01000594908600C
:100360000846006820F0030008600846006840F076
:100370000200086052484068514948600846406899
:1003800048600846406840F480604860084640681D
:1003900020F47C1048600846406840F4E81048604B
:1003A0000846006840F08070086000BF444800685C
:1003B00010F0007FFAD04248406820F00300404926
:1003C00048600846406840F00200486000BF3C4872
:1003D000406800F00C000828F9D10CBD10B5FFF7FB
:1003E00093FF10BD10B53648006840F00100344955
:1003F000086008464068344908403149486008466A
:100400000068324908402E4908600846006820F418
:10041000802008600846406820F4FE0048604FF4E1
:100420001F008860FFF7DAFF4FF00060284908607E
:1004300010BD10B5002100200022214B5B6803F0A5
:100440000C0121B1042906D0082928D107E0214B4D
:10045000214C236027E01F4B1F4C236023E0184BE7
:100460005B6803F47010164B5B6803F48032022360
:1004700003EB904022B9194B4343174C23600DE026
:100480000F4B5B6813F4003F04D0144B4343124CF2
:10049000236003E00F4B43430F4C236003E00D4BFD
:1004A0000D4C236000BF00BF054B5B68C3F3031313
:1004B0000B4CE15C084B1B68CB40074C236010BD24
:1004C00000100240002002400000FFF8FFFFF6FE8F
:1004D00008ED00E000127A000000002000093D0055
:1004E000040000200948804709480047FEE7FEE76E
:1004F000FEE7FEE7FEE7FEE7FEE7FEE7FEE7FEE7D4
:1005000004480549054A064B70470000E50300080A
:1005100031010008A8060020A80C0020A80800202F
:10052000A808002031490143314A1160704770B575
:10053000002100230F22C4780CB32D4C246804F44E
:10054000E064C4F5E064210AC1F10403CA404478C0
:1005500004FA03F18478144021430901254C0678FC
:10056000A155047804F01F050124AC4005786D11F5
:100570004FF0E02606EB8505C5F8004109E0047858
:1005800004F01F050124AC401B4D0678761145F898
:10059000264070BD194A0A400243154B1B1F1A60C2
:1005A000704739B1124A121D12680243104B1B1DCD
:1005B0001A6006E00E4A121D126882430C4B1B1D86
:1005C0001A607047042808D14FF0E021096941F012
:1005D00004014FF0E022116107E04FF0E0210969CA
:1005E00021F004014FF0E022116170470000FA058C
:1005F0000CED00E000E400E080E100E080FFFF1F80
:1006000001684FF6FE7211400160002101604160F7
:100610008160C1608C49884208D18B49083949689A
:1006200041F00F01884A083A51608AE08649143146
:10063000884208D184490839496841F0F001824A6A
:10064000083A51607DE080492831884208D17E49CE
:100650000839496841F470617B4A083A516070E09A
:1006600079493C31884208D177490839496841F4D1
:100670007041754A083A516063E0734950318842CD
:1006800008D171490839496841F470216E4A083A25
:10069000516056E06C496431884208D16A49083992
:1006A000496841F47001684A083A516049E0664976
:1006B0007831884208D164490839496841F070614D
:1006C000614A083A51603CE06049884206D1011F06
:1006D000096841F00F01021F116032E05B491431DB
:1006E000884208D15949091F096841F0F001574A69
:1006F000121F116025E055492831884208D153491D
:10070000091F096841F47061504A121F116018E016
:100710004E493C31884208D14C49091F096841F4CF
:1007200070414A4A121F11600BE04849503188421B
:1007300007D14649091F096841F47021434A121F35
:100740001160704710B50022026847F6F0739A43B3
:100750000C6A8B6823430C6923434C6923438C69DF
:100760002343CC6923434C6A23438C6A23431A43B3
:100770000260CB6843600B6883604B68C36010BD48
:100780000021016041608160C1600161416181615E
:10079000C161016241628162704721B1026842F029
:1007A0000102026004E002684FF6FE731A40026024
:1007B00070471AB103680B43036002E003688B4380
:1007C00003607047416070470146486880B27047D7
:1007D00001460020002211F0805F03D01B4B083B34
:1007E0001A6802E0184B083B1A680A4201D001203F
:1007F00000E00020704710F0805F03D01349091F0C
:10080000086002E01049083948607047014600203E
:10081000002211F0805F03D00C4B083B1A6802E005
:10082000094B083B1A680A4201D0012000E0002071
:10083000704710F0805F03D00449091F086002E090
:100840000149083948607047080002400804024026
:1008500030B943F2DB014FF0204242F8201005E0AE
:1008600043F2D2014FF0204242F820106FF0704264
:10087000411C4FF0204343F8212011461A4602EB59
:100880008002C2F80411704710280AD118214FF0D5
:1008900020421166402151664FF0FC319166D166CD
:1008A00010E01821F84A11604FF040014FF020424B
:1008B000C2F884104FF0FC31F44A11604FF020422E
:1008C000C2F88C1070471820F14908604FF0000002
:1008D0004FF02041C1F8A4004FF0FC30ED49086012
:1008E00001F10401086001F1040108607047D0E9DA
:1008F00001121143C2681143026911434269114355
:1009000082691143C2691143026A1143426A114369
:10091000826A1143C26A1143026B11434FF02043B4
:10092000026843F822108168082908D11A46016834
:1009300052F8211041F04001026843F82210416B47
:100940000968426B526841EA0211426B926841EABF
:100950000221426B928941EA0241426B128A41EACA
:100960000251426B127D41EA0261426B926911436E
:100970000268521C4FF0204343F82210C16AB1F5BF
:10098000804F1AD1816B0968826B526841EA02116B
:10099000826B926841EA0221826B128A41EA02511B
:1009A000826B127D41EA0261826B92691143026897
:1009B00003EB8202C2F8041108E06FF070414FF0BF
:1009C0002043026803EB8202C2F80411704730B57D
:1009D000002100220023446844F0080485682C4369
:1009E000C5682C4305692C43456944EA452485695B
:1009F00044EA4531C4692468C5696D6844EA052440
:100A0000C5692D8944EA0544C5692D7B44EA056220
:100A1000046A2468056A6D6844EA0524056A2D891C
:100A200044EA0544056A2D7B44EA05630468102CFA
:100A300005D14FF020442166A266E36607E0924CA0
:100A400021604FF02044C4F88820934C236030BDCF
:100A5000016841F01001426841EA4221826841EA9E
:100A600042318B4A1160C1680968C268526841EA24
:100A70000221C268128941EA0241C268127B41EA3E
:100A80000261844A1160016909680269526841EA99
:100A900002210269128941EA02410269127B41EA9C
:100AA00002617E4A1160416909684269526841EAFF
:100AB00002214269128941EA02414269127B41EAFC
:100AC00002614FF02042C2F8B0107047002101606F
:100AD0000221416000218160C16001614161816149
:100AE000C16101624FF4805141624900816200217D
:100AF000C16201630F21426B1160426B5160FF21A3
:100B0000426B91600F21426BD160426B1161426B6D
:100B100051610021426B91610F21826B1160826BE8
:100B20005160FF21826B91600F21826BD160826BDB
:100B30001161826B51610021826B916170471021BC
:100B40000160002141608160C1600161416181619A
:100B5000FC21C2691160C2695160C2699160C269B9
:100B6000D160026A1160026A5160026A9160026A91
:100B7000D16070470021016041608160FC21C26842
:100B80001160C2685160C2689160C268D160026938
:100B9000116002695160026991600269D160426925
:100BA000116042695160426991604269D160704749
:100BB00051B14FF0204252F8202042F001024FF094
:100BC000204343F8202009E04FF0204252F8202033
:100BD000334B1A404FF0204343F82020704799B11F
:100BE000102808D14FF02042126E42F004024FF05C
:100BF00020431A661DE0244A126842F004024FF0B6
:100C00002043C3F8802014E0102809D14FF020427F
:100C1000126E234BDB1E1A404FF020431A6608E089
:100C2000194A12681F4B02EA03024FF02043C3F82F
:100C30008020704740B11649096841F004014FF027
:100C40002042C2F8A01008E011490968154A01EADB
:100C500002014FF02042C2F8A010704799B110284D
:100C600008D14FF02042126E42F040024FF0204374
:100C70001A662DE0044A126842F040024FF0204309
:100C8000C3F8802024E00FE0800000A0880000A0CE
:100C9000A00000A0A80000A08C0000A0AC0000A054
:100CA000FEFF0F00FBFF0F00102808D14FF020427D
:100CB000126E684B1A404FF020431A6608E0664AED
:100CC0001268644B02EA03024FF02043C3F880200D
:100CD000704701460020102903D14FF02042506F89
:100CE00001E05E4A1068704710B5F2B1102807D1D4
:100CF0004FF020435B6E0B434FF02044636632E0BD
:100D0000B0F5807F08D1564B1B6843EA01034FF0D2
:100D10002044C4F8843026E0524B1B6843EA0103A8
:100D20004FF02044C4F8A4301DE0102807D14FF044
:100D300020435B6E8B434FF02044636613E0B0F5B5
:100D4000807F08D1464B1B6823EA01034FF0204403
:100D5000C4F8843007E0434B1B6823EA01034FF0DB
:100D60002044C4F8A43010BD10B502460020002372
:100D7000102A03D14FF02044636E07E0B2F5807F64
:100D800002D1374C236801E0364C23680B4201D076
:100D9000012000E0002010BD102807D14FF02042B4
:100DA000526E8A434FF020435A6613E0B0F5807FBD
:100DB00008D12B4A126822EA01024FF02043C3F8FF
:100DC000842007E0274A126822EA01024FF02043FC
:100DD000C3F8A420704770B5024600200023002409
:100DE0000025102A03D14FF02046736E07E0B2F5BC
:100DF000807F02D11A4E336801E01A4E336803EA4D
:100E0000010403EAD10514B10DB1012000E0002076
:100E100070BD102808D14FF02042526E22EAD10254
:100E20004FF020435A6613E0B0F5807F08D10C4A9A
:100E3000126822EAD1024FF02043C3F8842007E071
:100E4000084A126822EAD1024FF02043C3F8A420D6
:100E500070470000BFFF0F00800000A0940000A0BA
:100E6000840000A0A40000A010B50446CA48844233
:100E700008D10121042000F027FB0021042000F00C
:100E800023FB46E0C548844208D10121082000F038
:100E90001BFB0021082000F017FB3AE0C048844209
:100EA00008D10121102000F00FFB0021102000F0DC
:100EB0000BFB2EE0BB48844208D10121202000F02A
:100EC00003FB0021202000F0FFFA22E0B648844214
:100ED00008D10121402000F0F7FA0021402000F065
:100EE000F3FA16E0B148844208D10121802000F0D5
:100EF000EBFA0021802000F0E7FA0AE0AC488442D7
:100F000007D10121801500F0DFFA0021A01500F0C3
:100F1000DBFA10BD10B50121084600F0D5FA00211A
:100F2000012000F0D1FA10BD2DE9F0410246002564
:100F30000026002000230024002791F803C00CF0B5
:100F40000F0591F803C01CF0100F03D091F802C0F8
:100F50004CEA050591F800C0BCF1000F31D01468CF
:100F600000202BE04FF0010C0CFA00F3B1F800C0A8
:100F70000CEA03069E4220D183004FF00F0C0CFABE
:100F800003F7BC4305FA03FC4CEA040491F803C0E0
:100F9000BCF1280F06D14FF0010C0CFA00FCC2F88E
:100FA00014C00AE091F803C0BCF1480F05D14FF01E
:100FB000010C0CFA00FCC2F810C0401C0828D1D368
:100FC0001460B1F800C0BCF1FF0F34DD546800209C
:100FD0002EE000F1080C4FF0010808FA0CF3B1F80C
:100FE00000C00CEA03069E4221D183004FF00F0C93
:100FF0000CFA03F7BC4305FA03FC4CEA040491F82D
:1010000003C0BCF1280F05D100F1080C08FA0CF858
:10101000C2F8148091F803C0BCF1480F07D100F169
:10102000080C4FF0010808FA0CF8C2F81080401CB8
:101030000828CED35460BDE8F0814FF6FF710180DF
:10104000022181700421C17070470246002093681C
:101050000B4201D0012000E0002070470146886863
:1010600080B2704702460020D3680B4201D00120B5
:1010700000E0002070470146C86880B270470161F7
:101080007047416170470AB1016100E041617047FA
:10109000C16070474FF480320A438261816182618E
:1010A00082698269704702460020424B18684FF6F9
:1010B0008073184040EA021008433E4B18607047A6
:1010C0003D49C8617047F0B50A460023002400215D
:1010D000002500F00046B6F1004F02D1354EF1690F
:1010E00001E0344E7168C0F3034583B200F440164A
:1010F000B6F5401F08D121F070612E4E766826F0BB
:1011000070662C4F7E6012E000F48016B6F5801FEA
:1011100006D1032606FA05F4A14341F0706106E00A
:10112000460D360103FA06F6B14341F0706122B173
:10113000460D360103FA06F6314300F00046B6F1DB
:10114000004F02D11B4EF16101E01A4E7160F0BDFB
:1011500030B500228B071C0F0F2303FA04F2154B46
:1011600008338C1053F824309343124C08348D10FC
:1011700044F8253023468C1053F824308C07240F74
:1011800000FA04F423430B4C08348D1044F8253046
:1011900030BD0A490860704700080140000C01405A
:1011A000001001400014014000180140001C0140E3
:1011B000002001400000014000002042DC002042ED
:1011C000DD48006840F00100DB49086008464068DF
:1011D000DA490840D849486008460068D8490840BC
:1011E000D54908600846006820F480200860084659
:1011F000406820F4FE0048604FF41F00886070478C
:10120000CD49096821F48031CB4A11601146096843
:1012100021F480211160B0F5803F03D0B0F5802F1C
:101220000ED106E0C449096841F48031C24A116018
:1012300007E0C149096841F4A021BF4A116000E0FC
:1012400000BF00BF704710B50146002200230020F8
:101250004A11012A02D1B84C236806E0022A02D1C1
:10126000B54C236A01E0B44C636A01F01F0201240B
:1012700094401C4201D0012000E0002010BD38B590
:10128000002000900024002500BF3120FFF7DBFF85
:1012900005460098401C00900098B0F5A06F01D062
:1012A000002DF2D03120FFF7CEFF08B1012400E07D
:1012B0000024204638BD014600209F4A106820F0D7
:1012C000F80040EAC100106070479E49086070470E
:1012D00002460020984B586820F47C1042EA010333
:1012E0001843954B58607047964908667047014609
:1012F0000020914A506820F0030008435060704776
:101300008D48406800F00C007047014600208A4A72
:10131000506820F0F00008435060704701460020FC
:10132000854A506820F4E0600843506070470146E9
:101330000020814A506820F4605040EAC1005060AB
:10134000704729B17C4A527A02437B4B5A7204E0BF
:10135000794A527A8243784B5A7270477A490860C8
:10136000704701460020744A506820F4404008430A
:10137000506070470021754A11706F4A82F8201042
:10138000012802D0042808D103E001216F4A11701E
:1013900004E005216D4A117000E000BF00BF7047F6
:1013A0006B49086070476449096A0143624A1162E7
:1013B0007047674944390860704730B50021002202
:1013C000002400235C4D6D6805F00C0121B1042957
:1013D00005D0082923D105E05E4D056022E05D4D72
:1013E00005601FE0544D6D6805F47012524D6D6834
:1013F00005F48034022505EB92421CB9564D554345
:1014000005600BE04C4D6D6815F4003F03D0524D64
:101410005543056002E04F4D5543056002E04D4DD8
:10142000056000BF00BF444D6D6805F0F00109097B
:101430004A4D6B5C0568DD4045603F4D6D6805F4C5
:10144000E061090A454D6B5C4568DD4085603A4DB9
:101450006D6805F46051C90A404D6B5C4568DD401C
:10146000C560354D6D6805F44041890B3C4D6B5CA2
:10147000C568B5FBF3F5056130BD29B12E4A526947
:1014800002432D4B5A6104E02B4A526982432A4B96
:101490005A61704729B1284A92690243264B9A61E2
:1014A00004E0254A92698243234B9A61704729B12F
:1014B000214AD2690243204BDA6104E01E4AD26914
:1014C00082431D4BDA61704729B11B4AD26802433F
:1014D000194BDA6004E0184AD2688243164BDA608E
:1014E000704729B1144A12690243134B1A6104E090
:1014F000114A12698243104B1A61704714494039EE
:10150000086070470F49C86470470B49C87170473D
:101510000948406A40F080700749486270470146B8
:101520000020054A92680A4201D0012000E0002014
:101530007047014988727047001002400000FFF8B0
:10154000FFFFF6FE00004242D80042422010024057
:101550008004424200127A0000093D00140000207D
:101560002400002010B50446FE48844208D1012121
:10157000C014FFF7A9FF0021E014FFF7A5FFC4E0A6
:10158000B4F1804F08D101210846FFF7AAFF0021DE
:101590000120FFF7A6FFB8E0F348844208D10121FB
:1015A0000220FFF79EFF00210220FFF79AFFACE028
:1015B000EE48844208D101210420FFF792FF002168
:1015C0000420FFF78EFFA0E0E948844208D1012102
:1015D0000820FFF786FF00210820FFF782FF94E034
:1015E000E448844208D101211020FFF77AFF00214E
:1015F0001020FFF776FF88E0DF48844208D1012100
:101600002020FFF76EFF00212020FFF76AFF7CE01B
:10161000DA48844208D101214014FFF755FF002128
:101620006014FFF751FF70E0D548844209D10121D1
:10163000C804FFF749FF00214FF40020FFF744FFE3
:1016400063E0D048844209D101210805FFF73CFF3F
:1016500000214FF48010FFF737FF56E0CA4884425C
:1016600009D101214805FFF72FFF00214FF4001099
:10167000FFF72AFF49E0C548844208D101214020F4
:10168000FFF72FFF00214020FFF72BFF3DE0C04870
:10169000844208D101218020FFF723FF0021802010
:1016A000FFF71FFF31E0BB48844208D101218015BC
:1016B000FFF717FF0021A015FFF713FF25E0B6483D
:1016C000844209D101210804FFF7FEFE00214FF4F6
:1016D0008030FFF7F9FE18E0B048844209D10121BB
:1016E0004804FFF7F1FE00214FF40030FFF7ECFE55
:1016F0000BE0AB48844208D101218804FFF7E4FEE7
:1017000000214FF48020FFF7DFFE10BD0022028889
:10171000944B98420ED0994B98420BD0B0F1804F29
:1017200008D0914B984205D0904B984202D0904BF4
:10173000984204D14FF68F731A404B881A438D4B51
:10174000984207D08C4B984204D04FF6FF431A4082
:10175000CB881A4302808B8883850B880385814B55
:1017600098420BD0854B984208D08B4B984205D0BD
:101770008A4B984202D08A4B984201D10B7A038659
:1017800001238382704770B5002400220023058C5A
:101790004FF6FE7635400584028C8388048B4FF625
:1017A0008F752C40B51E2C400D882C43751E2A4089
:1017B0000D892A434D882A436A4DA8420BD06F4DAC
:1017C000A84208D0744DA84205D0744DA84202D05A
:1017D000734DA84213D14FF6F7752A404D892A431D
:1017E0004FF6FB752A408D882A434FF6FF652B4044
:1017F0004FF6FF552B408D892B43CD892B4383809A
:101800000483CD888586028470BD70B500240022D3
:101810000023058C4FF6EF7635400584028C8388D3
:10182000048B48F6FF752C404FF6FF452C400D8881
:101830004FF6FF7606EA05252C434FF6DF752A4062
:101840000D8906EA05152A434D8806EA05152A433F
:10185000444DA84202D0494DA8421DD14FF67F7594
:101860002A404D894FF6FF7606EA05152A434FF6C2
:10187000BF752A408D8806EA05152A434FF6FF35C5
:101880002B404FF2FF752B408D8906EA85052B43CF
:10189000CD8906EA85052B4383800483CD8805879F
:1018A000028470BD70B5002400220023058C4FF621
:1018B000FF6635400584028C8388848B4FF68F75D4
:1018C0002C404FF6FC752C400D882C434FF6FF55ED
:1018D0002A400D894FF6FF7606EA05252A434D88F2
:1018E00006EA05252A431F4DA84202D0234DA842EF
:1018F0001DD14FF2FF752A404D894FF6FF7606EA5B
:1019000005252A434FF6FF352A408D8806EA05252E
:101910002A434EF6FF752B404DF6FF752B408D89FF
:1019200006EA05152B43CD8906EA05152B4383806E
:101930008483CD888587028470BD70B50022002322
:101940000024058C4EF6FF7635400584038C848890
:10195000828B48F6FF752A404FF6FF452A400D88D6
:1019600020E00000002C014000040040000800407E
:10197000000C004000100040001400400034014002
:10198000004C01400050014000540140001800404C
:10199000001C004000200040004001400044014085
:1019A000004801404FF6FF7606EA05252A434DF62A
:1019B000FF752B400D8906EA05352B434D8806EA55
:1019C00005352B43FA4DA84202D0FA4DA84208D162
:1019D0004BF6FF752C408D894FF6FF7606EA85158C
:1019E0002C4384808283CD88A0F84050038470BD4E
:1019F000828B4FF2FF331A408283828B4FF6FF7344
:101A000003EA01231A4382837047F0B50C4615465A
:101A1000002200210026078C4EF6FF7C07EA0C0707
:101A20000784828B018C4FF6FF7707EA043640F675
:101A3000FF473A404FF6FF7707EA05273A434FF64C
:101A4000FF7707EA03373A43D94FB8420ED0D94F50
:101A5000B8420BD0B0F1804F08D0D74FB84205D074
:101A6000D64FB84202D0D64FB84206D14DF6FF77D6
:101A7000394046F48057394305E047F6FF5739406F
:101A800044F48057394382830184F0BD828B4FF642
:101A9000F3731A408283828B0A4382837047F0B5C6
:101AA0000C461546002200210026078C4FF6FF6CDD
:101AB00007EA0C070784828B018C4FF6FF7707EA51
:101AC00004264FF60C773A404FF6FF7707EA0317E4
:101AD0002F433A43B64FB8420ED0B64FB8420BD060
:101AE000B0F1804F08D0B44FB84205D0B34FB842E0
:101AF00002D0B34FB84206D14FF6FF57394046F4F3
:101B00008077394305E04FF2FF57394044F480773E
:101B1000394382830184F0BD028B4FF2FF331A40B8
:101B20000283028B4FF6FF7303EA01231A430283F9
:101B30007047F0B50C461546002200210026078CA0
:101B40004FF6EF7C07EA0C070784028B018C4FF6F7
:101B5000FF7707EA041640F6FF473A404FF6FF7753
:101B600007EA03373A434FF6FF7707EA05273A4378
:101B70008F4FB8420ED08F4FB8420BD0B0F1804F8C
:101B800008D08D4FB84205D08C4FB84202D08C4F50
:101B9000B84206D14FF6DF77394046F01007394397
:101BA00005E04FF65F77394044F010073943028370
:101BB0000184F0BD028B4FF6F3731A400283028B4F
:101BC0000A4302837047F0B50C46154600220021F7
:101BD000068C4FF6FE773E400684028B018C4FF652
:101BE0000C7632407E1C06EA03162E433243704EBA
:101BF000B0420ED06F4EB0420BD0B0F1804F08D043
:101C00006D4EB04205D06D4EB04202D06C4EB04227
:101C100006D14FF6FD76314044F00106314305E030
:101C20004FF6F576314044F00106314302830184DA
:101C3000F0BD70B505460C465D4885420ED05D4846
:101C400085420BD0B5F1804F08D05B48854205D066
:101C50005A48854202D05A48854200D100E000BF70
:101C6000208850B92389A28861882846FFF7ABFFF6
:101C7000E1882846FFF79EFF25E0208804280AD146
:101C80002389A28861882846FFF753FFE188284608
:101C9000FFF742FF17E0208808280AD12389A2888D
:101CA00061882846FFF7FBFEE1882846FFF7EEFE35
:101CB00009E02389A28861882846FFF7A6FEE1880B
:101CC0002846FFF795FE70BD2DE9F04105460C460C
:101CD00000260127608808B9022600E00026A088B7
:101CE000012801D1022700E001272088A0B923891B
:101CF000A28861882846FFF766FFE1882846FFF73B
:101D000059FF23893A4631462846FFF712FFE188FA
:101D10002846FFF701FF13E02389A288618828463F
:101D2000FFF707FFE1882846FFF7F6FE23893A46CA
:101D300031462846FFF747FFE1882846FFF73AFF7C
:101D4000BDE8F0810A884B881A438B881A43CB88F8
:101D50001A430B891A434B891A438B891A43A0F8FB
:101D6000442070474FF6FF71818000210180C180BF
:101D70004180017270470021018041808180C180D3
:101D8000018141818181C1817047002101804180B1
:101D9000012181800021C1800181704700210180E3
:101DA00041808180C1800181418181817047000033
:101DB000002C0140003401400004004000080040B5
:101DC000000C004021B1028842F00102028004E0D0
:101DD00002884FF6FE731A400280704731B1B0F8A6
:101DE000442042F40042A0F8442005E0B0F844202A
:101DF000C2F30E02A0F8442070471AB183890B4346
:101E0000838102E083898B4383817047818270479D
:101E100041EA0203A0F8483070471AB183890B43A6
:101E2000838102E083898B438381704701894FF668
:101E3000F8721140018170470A46002101894FF66E
:101E40008F73194011430181704730B504460D4628
:101E500029462046FFF7F0FF208940F00700208147
:101E600030BD2DE9F04104460D4616461F46602D53
:101E700006D13B46012231462046FFF75AFE05E0D7
:101E80003B46012231462046FFF79DFE294620466B
:101E9000FFF7D2FF208940F007002081BDE8F081E4
:101EA00030B50C4600210189C9B24FF6FF7505EA2D
:101EB0000325154325432943018130BD2DE9F04118
:101EC00005460E4617469846002443463A46314694
:101ED0002846FFF7E5FF2C894FF6F870044044F0E0
:101EE00007044FF68F70044044F070042C81BDE865
:101EF000F081F0B504460D4616461F463B46324675
:101F000029462046FFF7CCFF208940F480402081FD
:101F1000F0BD0185828270470A46002101884FF694
:101F20008F731940114301807047F0B50C46154678
:101F30001E460021002200230189028B038C4FF6EC
:101F4000F877394021434FF6FC473A4040F20117F9
:101F50003A434FF6DD773B404FF6FF7707EA061727
:101F60002F433B43018102830384F0BD0A460021D5
:101F7000018B4FF68F7319401143018370470A4656
:101F80000021018B48F6FF7319404FF6FF7303EAF7
:101F900002231943018370470A460021818B4FF6C3
:101FA0008F7319401143818370470A460021818B4A
:101FB00048F6FF7319404FF6FF7303EA02231943F3
:101FC0008183704721B1028842F08002028004E0E0
:101FD00002884FF67F731A400280704721B18288D1
:101FE00042F00402828004E082884FF6FB731A40BC
:101FF0008280704721B1828842F00802828004E02A
:1020000082884FF6F7731A408280704721B1828828
:1020100042F00102828004E082884FF6FE731A408B
:10202000828070470A460021018B4FF6F7731940F2
:102030001143018370470A460021018B4FF2FF7361
:1020400019404FF6FF7303EA0223194301837047D7
:102050000A460021818B4FF6F773194011438183A3
:1020600070470A460021818B4FF2FF7319404FF6EB
:10207000FF7303EA02231943818370470A46002154
:10208000018B4FF6FB7319401143018370470A46D9
:102090000021018B4FF6FF3319404FF6FF7303EA1F
:1020A00002231943018370470A460021818B4FF6B2
:1020B000FB7319401143818370470A460021818BCD
:1020C0004FF6FF3319404FF6FF7303EA022319431B
:1020D000818370470A460021018B4FF67F731940B8
:1020E0001143018370470A460021018BC1F30E01A1
:1020F0004FF6FF7303EA02231943018370470A4630
:102100000021818B4FF67F73194011438183704703
:102110000A460021818BC1F30E014FF6FF7303EADB
:1021200002231943818370470A460021018C4FF630
:10213000FD7319401143018470470A460021018C48
:102140004FF6F77319401143018470470A46002186
:10215000018C4FF6DF7319404FF6FF7303EA021349
:102160001943018470470A460021018C4FF67F73A2
:1021700019404FF6FF7303EA0213194301847047B5
:102180000A460021018C4FF6FF5319404FF6FF73AA
:1021900003EA02231943018470470A460021018C97
:1021A0004FF2FF7319404FF6FF7303EA02231943FE
:1021B000018470470A460021018C4DF6FF731940D7
:1021C0004FF6FF7303EA023319430184704730B5B9
:1021D000002301248C40A3B2048C9C430484048C0F
:1021E00002FA01F5ADB22C43048430BD30B50023B2
:1021F00004248C40A3B2048C9C430484048C02FA13
:1022000001F5ADB22C43048430BD70B50346002007
:1022100000241846183001258D40ACB21D8CA54312
:102220001D8409B1082909D100EB6100056825F07A
:10223000700505600568154305600EE00D1FC5F3C8
:102240004E052844056825F4E045056005684FF60D
:10225000FF7606EA02263543056070BD21B102888B
:1022600042F00202028004E002884FF6FD731A4039
:102270000280704721B1028842F00402028004E02B
:1022800002884FF6FB731A400280704721B18288A2
:1022900042F08002828004E082884FF67F731A4009
:1022A0008280704702884FF6F7731A4002800288D6
:1022B0000A430280704782884FF68F731A408280EB
:1022C00082880A438280704702894FF6F8731A4069
:1022D000028102890A430281704702894FF67F73A7
:1022E0001A40028102890A43028170478184704743
:1022F0008185704781867047018770478187704765
:10230000A0F84010704702884FF6FF431A40028041
:1023100002880A43028070470146888E7047014652
:10232000088F70470146888F70470146B1F840001A
:1023300070470146888C70470146088D70470246F9
:102340000020138A0B4201D0012000E000207047DA
:10235000CA430282704730B50246002000230024A1
:10236000158A05EA0103958905EA010413B10CB148
:10237000012000E0002030BDCA4302827047000007
:1023800010B50446FB48844209D101218803FFF7B8
:102390009BF800214FF48040FFF796F832E0F648B2
:1023A000844209D101214804FFF79BF800214FF432
:1023B0000030FFF796F825E0F048844209D101216A
:1023C0008804FFF78EF800214FF48020FFF789F88A
:1023D00018E0EB48844209D10121C804FFF781F8D5
:1023E00000214FF40020FFF77CF80BE0E548844221
:1023F00008D101210805FFF774F800214FF480107F
:10240000FFF76FF810BD2DE9F04786B005460E4680
:102410000024A24600BFA1460027B08900B100BF3A
:102420002F462C8A4CF6FF700440F08804432C821F
:10243000AC894EF6F3100440B088318908437189A5
:1024400008430443AC81AC8A4FF6FF400440B08996
:102450000443AC8201A8FEF7B0FFC648874202D110
:10246000DDF810A001E0DDF80CA0A88910F4004F01
:1024700008D00AEBCA0000EB0A1031684900B0FB33
:10248000F1F807E00AEBCA0000EB0A103168890096
:10249000B0FBF1F86420B8FBF0F0040120096421DE
:1024A00001FB1089A88910F4004F08D0322000EBFE
:1024B000C900B0FBF1F000F00700044308E032204F
:1024C00000EB09106421B0FBF1F000F00F000443B1
:1024D0002C8106B0BDE8F0874FF416510160002151
:1024E0008180C18001810C2141810021818170475F
:1024F00010B502460020108A4FF2FF0318400B88E7
:102500004C8823438C882343CC8823431843108270
:1025100010BD0021018041808180C180704721B1C0
:10252000828942F40052828104E082894DF6FF7371
:102530001A4082817047F0B503460024002600252A
:102540000020A1F510676A3F00D100BF1846C1F313
:10255000421401F01F06012707FA06F5012C01D1EC
:102560000C3004E0022C01D1103000E014301AB11C
:1025700007682F43076002E00768AF430760F0BDBC
:102580001AB1838A0B43838202E0838A8B4383825E
:102590007047028A4FF6F0731A400282028A0A4399
:1025A0000282704782894FF2FF731A4082818289CA
:1025B0000A438281704721B1828942F002028281FE
:1025C00004E082894FF6FD731A4082817047028AC7
:1025D0004FF6DF731A400282028A0A430282704772
:1025E00021B1028A42F48042028204E0028A4BF660
:1025F000FF731A4002827047C1F30802828070475D
:1026000001468888C0F308007047818941F00101C4
:1026100081817047028BD2B20283028B42EA01228F
:1026200002837047028B02F47F420283028B0A43CB
:102630000283704721B1828A42F02002828204E044
:10264000828A4FF6DF731A408282704721B1828AF4
:1026500042F01002828204E0828A4FF6EF731A4041
:102660008282704721B1828A42F00802828204E0AD
:10267000828A4FF6F7731A408282704721B18289AD
:1026800042F40042828103E08289C2F30E02828119
:10269000704721B1828A42F40062828204E0828A19
:1026A0004FF2FF731A4082827047828A4FF6FB73A3
:1026B0001A408282828A0A438282704721B1828ACA
:1026C00042F00202828204E0828A4FF6FD731A40D1
:1026D0008282704702460020B1F5007F00D100BF22
:1026E00013880B4201D0012000E00020704701F464
:1026F0000072B2F5007F00D100BFCA43028070476C
:1027000070B502460024002300250020A1F51066C4
:102710006A3E00D100BFC1F3421501F01F0301263C
:1027200006FA03F3012D02D19689334006E0022D0B
:1027300002D1168A334001E0968A33400C120126FA
:1027400006FA04F41688344013B10CB1012000E0FD
:10275000002070BD10B500220023A1F510646A3C72
:1027600000D100BF0A1201249440A3B2DC430480CC
:1027700010BD000000380140004400400048004007
:10278000004C00400050004010B50120FEF7B6FE9E
:102790000020FEF7B3FE10BD2A49086070472949A2
:1027A000091F086070472749843108607047014657
:1027B0000020254A10884FF67F4210400843224AE5
:1027C00010807047014600201F4A10884FF6807223
:1027D000104008431C4A1080704708B50022009240
:1027E000194A2C3A0092009A02440092009A116011
:1027F00008BD08B501460020009013482C38009011
:102800000098084400900098008808BD0D489C304E
:102810000068C0B270470C480830008840F00100E2
:1028200009490831088070470648A0300068C0B2E6
:10283000704705480830008840F00200024908311E
:102840000880704704860D422C6C004010B50121B1
:102850000807FEF746FE00214FF08050FEF741FECC
:1028600010BD294908627047274908617047014631
:102870000020264A106820F0E000084310607047EE
:1028800023490860704710B5024600201F4B1868A6
:1028900020F00300104318601E4B1B6843F0040334
:1028A0001C4C2360012901D130BF00E020BF194B2F
:1028B0001B6823F00403174C236010BD1348006805
:1028C00040F00400114908600846006840F002002A
:1028D00008601048006840F004000E49086000BF1E
:1028E00000BF30BF704701460020084A52680A42C4
:1028F00001D0012000E0002070470449096841EA46
:102900008001024A1160704700000E4200700040D2
:10291000A0000E4210ED00E029B14F4A1288024398
:102920004D4B1A8004E04C4A128882434A4B1A806D
:1029300070474948001D008840F010004649091DB5
:10294000088070474448001D00884FF6EF7108402A
:102950004149091D0880704700213F481C3001880B
:10296000001F008841EA0040704700B50246FFF7AB
:10297000E0FF100C384918310880091D0A80FFF764
:10298000E1FF00BD00B50246FFF7D3FFC2F30340ED
:10299000314908310880091D0A80FFF7D3FF00BDC7
:1029A00000B50246FFF7C5FF100C2B492031088007
:1029B000091D0A80FFF7C6FF00BD0020264910311F
:1029C00009880907080B244914310988084370470E
:1029D00000BF2148001D008810F0200FF9D070477B
:1029E0001D48001D00884FF6F77108401A49091D5F
:1029F000088000BF1848001D008810F0080FF9D0AB
:102A0000704701460020144A121D12880A4201D064
:102A1000012000E0002070470F49091D098881430B
:102A20000D4A121D11807047014600200A4A121DEE
:102A300012880A40D0B2084A12880A4202D008B16D
:102A4000012000E0002070470349091D09888143E7
:102A5000014A121D118070470028004010B56FF028
:102A60000400FDF7AFFD2D4800682D49B0FBF1F0E3
:102A70002C4908700846007800EB4001C1EBC010FB
:102A80004FF6FF7101EAC0002749088010BD0146DA
:102A9000244A12784A434FF0E0235A6100229A6197
:102AA0001A46126942F001021A6100BF4FF0E0229B
:102AB000106910F0010F02D010F4803FF6D04FF0F3
:102AC000E022126922F001024FF0E0231A61002295
:102AD0009A6170470146144A12884A434FF0E02336
:102AE0005A6100229A611A46126942F001021A6183
:102AF00000BF4FF0E022106910F0010F02D010F477
:102B0000803FF6D04FF0E022126922F001024FF030
:102B1000E0231A6100229A61704700000000002043
:102B200000127A00280000202A00002010B54FF47F
:102B3000A060FDF7F7FC10BD014600BF704700BF65
:102B4000494A128812F0400FFAD0C2B2464B1B1D00
:102B50001A80704710B586B00446012144F2040083
:102B6000FEF798FC4FF40070ADF8140003208DF8C8
:102B7000160018208DF8170005A93C48FEF7D4F977
:102B80004FF48060ADF8140004208DF8170005A9FB
:102B90003648FEF7C9F925208DF8000003208DF88E
:102BA00001008DF8020001208DF803006846FDF752
:102BB000BEFC01940020ADF80800ADF80A00ADF8A5
:102BC0000C00ADF810000C20ADF80E0001A926484D
:102BD000FFF719FC012240F225512348FFF7ABFC17
:102BE00001212148FFF79BFC06B010BD10B540F253
:102BF00025511D48FFF784FD10B31B48FFF700FD6A
:102C0000C4B21B48008810F4004F2BD1184800882C
:102C100010F4804F0CD00A2C03D0002014490880F7
:102C200020E01348008840F400401149088019E072
:102C30000D2C06D10E48008840F480400C490880D5
:102C400010E00B480088C0F30D000A490C540848F6
:102C50000088401C0649088008460088C72801DD16
:102C60000020088010BD000000380140000801402D
:102C70002C0000204800002008B501214020FEF76C
:102C800009FC4020ADF8000010208DF8030003205F
:102C90008DF8020069460348FEF746F90120024913
:102CA000086008BD001801409801234208B50121C1
:102CB0001020FEF7EFFB4FF40060ADF8000010208D
:102CC0008DF8030003208DF8020069460448FEF7E2
:102CD0002BF94FF400610248FEF7D3F908BD00005C
:102CE0000010014008B501214020FEF7D3FB3C2035
:102CF000ADF8000048208DF8030069462F48FEF724
:102D000013F908BD10B5044614B101202C49087010
:102D10002B480078002835D004212848FEF795F983
:102D200070B108212548FEF790F948B110212348D9
:102D3000FEF78BF920B120212048FEF786F908BB69
:102D40000A20FFF7C7FE00201D49087004211B4818
:102D5000FEF77BF908B9012010BD08211748FEF7DE
:102D600074F908B90220F7E710211448FEF76DF94D
:102D700008B90320F0E720211048FEF766F9D8B91A
:102D80000420E9E704210D48FEF75FF9012813D17B
:102D900008210A48FEF759F901280DD110210748EA
:102DA000FEF753F9012807D120210448FEF74DF919
:102DB000012801D1024908700020CDE70018014028
:102DC0003400002010B500F0B7F810BD70B504460F
:102DD000002600F0C8F8A02000F079F900F006F90C
:102DE000201200F074F900F001F92546E11704EB18
:102DF00011610912A4EB0121C8B200F068F900F0DA
:102E0000F5F800F0B0F8A12000F061F900F0EEF85C
:102E1000002000F092F9064600F0C7F8304670BD79
:102E200070B504460E4600F09EF8A02000F04FF961
:102E300000F0DCF8201200F04AF900F0D7F825463F
:102E4000E11704EB11610912A4EB0121C8B200F0F3
:102E50003EF900F0CBF8304600F039F900F0C6F842
:102E600000F0A3F80A20FFF735FE70BD2DE9F04110
:102E700005460E461746002409E0E20026FA02F253
:102E8000D1B22A1990B2FFF7CBFF601CC4B2BC428A
:102E9000F3DBBDE8F0812DE9F04107460C46002642
:102EA000002509E036023919491B491E88B2FFF78F
:102EB0008DFF0644681CC5B2A542F3DB3046BDE871
:102EC000F08110B5FF20FFF781FF0446552C01D19A
:102ED000002010BD5521FF20FFF7A2FFFF20FFF7C4
:102EE00075FF0446552C01D10020F2E70120F0E7E0
:102EF00070B506460C46154608E03046721C96B280
:102F0000FFF764FF04F8010B681E85B2002DF4D1B1
:102F100070BD70B505460C46164606E02178284679
:102F2000FFF77EFF681C85B2641C3000A6F101012A
:102F30008EB2F3D170BD000008B501210820FEF764
:102F4000A9FA0320ADF8000010208DF8030003203B
:102F50008DF8020069469148FDF7E6FF03218F488E
:102F6000FEF78DF808BD10B58C48006820F00F0002
:102F70008A4908600846006840F0030008600120A4
:102F8000874908608749C1F884014FF00400FFF7C2
:102F90007EFD0020824908604FF00400FFF777FDB6
:102FA00000208049C1F8840110BD10B57B4800683D
:102FB00020F00F00794908600846006840F00300DF
:102FC00008600020784908607649C1F880014FF018
:102FD0000400FFF75CFD0120734908607149C1F8E6
:102FE00080014FF00400FFF752FD10BD10B5002422
:102FF0006A48006820F00F006849086008460068C9
:1030000040F008000860012065490860FFF73FFDB7
:1030100001206449C1F88401FFF739FD07E0601C15
:10302000C4B2FA2C03DDFFF7C0FF012010BD5F48DA
:1030300000680028F3D15C49086000BFF6E710B5CE
:103040000020594908605548006820F00F00534996
:1030500008600846006840F0030008604FF0000078
:103060005049C1F880014FF00200FFF710FD012028
:103070004D4908604FF00200FFF709FD0020494963
:10308000C1F8840110BD10B50020474908604348CD
:10309000006820F00F00414908600846006840F0D1
:1030A000030008604FF001003E49C1F880014FF075
:1030B0000200FFF7ECFC01203B4908604FF00200E2
:1030C000FFF7E5FC00203749C1F8840110BD70B559
:1030D00004463248006820F00F0030490860084676
:1030E000006840F00300086000202F490860054692
:1030F00020E0E00903D001202949086002E0002017
:10310000274908604FEA44604FEA10644FF002001C
:10311000FFF7BDFC0120244908604FF00200FFF7D3
:10312000B6FC00201F49C1F884010220FFF7AFFC64
:10313000681CC5B2082DDCDB70BD70B505460024E7
:103140001648006820F00F0014490860084600681F
:1031500040F008000860002616E0002012490860D0
:103160004FF00200FFF793FC01200E49C1F88401E3
:103170006006040E0D48006808B1601CC4B201204E
:10318000FFF785FC701CC6B2082EE6DB15B9FFF709
:103190007AFF01E0FFF753FF204670BD000C0140AD
:1031A000808121420080214284812142008121428C
:1031B000FA4908807047F949891C08807047F74828
:1031C000801C00887047F54A1080921C118070475F
:1031D00010B504462046FFF7EBFF0520FFF757FC2C
:1031E000FFF7EDFF10BD2C20EC4908807047EB493C
:1031F000891C0880704730B5014601F01F04C1F3F7
:103200004513CA0AE50205EB43151544A8B230BDC3
:1032100000BF0100A0F10102D0B2FAD1704700B5A1
:1032200002460B462A20FFF7C3FF1012FFF7C3FF29
:10323000D0B2FFF7C0FF0120FFF7BDFFDF20FFF78F
:10324000BAFF2B20FFF7B4FF1812FFF7B4FFD8B274
:10325000FFF7B1FF0120FFF7AEFF3F20FFF7ABFF05
:1032600000BD70B504460D46002629462046FFF7EE
:10327000D6FF2E20FFF79CFFC848801C06880688D2
:10328000304670BD00B52920FFF792FF00BD00B5A4
:103290002820FFF78DFF00BD704730B504460D466E
:1032A00029462046FFF7BBFF2C20FFF781FFBC48D3
:1032B0000088FFF780FF30BD70477047704730B51A
:1032C0000546002400210846FFF7A9FF2C20FFF740
:1032D0006FFF00BF03E02846FFF76DFF641CB4F5E5
:1032E000163FF8D330BD00B59FB001210802FEF7AC
:1032F000C4F801216120FEF7CDF84820ADF8780030
:1033000010208DF87B0003208DF87A001EA9A548B7
:10331000FDF70AFE4CF6B370ADF8780018208DF872
:103320007B0003208DF87A001EA99E48FDF7FCFD66
:103330004FF68070ADF8780018208DF87B000320E0
:103340008DF87A001EA99848FDF7EEFD022008903E
:10335000002009900F200A9000200B900C900D90F7
:103360000E90022001900020029003200390002084
:1033700004900590069007900F90109011901020E7
:1033800012900020139015901490169017904FF4FF
:1033900080501890002019904FF480401A9000201F
:1033A0001B9008A81C9001A81D900FA8FDF79FFA7C
:1033B00001210020FDF7FCFB01207C4908604FF053
:1033C0000500FFF787FB00207949C1F898016420C8
:1033D000FFF780FB0120754908604FF09600FFF76A
:1033E00079FBF220FFF7E4FE1820FFF7E4FEA320AC
:1033F000FFF7E1FE1220FFF7DEFE0220FFF7DBFE03
:10340000B220FFF7D8FE1220FFF7D5FEFF20FFF70E
:10341000D2FE1020FFF7CFFE0020FFF7CCFEF820F1
:10342000FFF7C6FE2120FFF7C6FE0420FFF7C3FE0C
:10343000F920FFF7BDFE0020FFF7BDFE0820FFF7D3
:10344000BAFE3620FFF7B4FEA820FFF7B4FE3A20FC
:10345000FFF7AEFE0520FFF7AEFEB420FFF7A8FE93
:103460000120FFF7A8FEB620FFF7A2FE0220FFF71B
:10347000A2FE2220FFF79FFEC120FFF799FE412008
:10348000FFF799FEC520FFF793FE0020FFF793FE9C
:103490000720FFF790FEE020FFF78AFE0F20FFF7DE
:1034A0008AFE1F20FFF787FE1C20FFF784FE0C20FA
:1034B000FFF781FE0F20FFF77EFE0820FFF77BFE5F
:1034C0004820FFF778FE9820FFF775FE3720FFF7BA
:1034D00072FE0A20FFF76FFE1320FFF76CFE042038
:1034E000FFF769FE1120FFF766FE0D20FFF763FE70
:1034F0000020FFF760FEE120FFF75AFE0F20FFF7E4
:103500005AFE3220FFF757FE2E20FFF754FE0B2005
:10351000FFF751FE0D20FFF74EFE0520FFF74BFE93
:103520004720FFF748FE7520FFF745FE3720FFF7DD
:1035300042FE0620FFF73FFE1020FFF73CFE03206F
:10354000FFF739FE2420FFF736FE2020FFF733FE79
:103550000020FFF730FE1120FFF72AFE7820FFF74A
:10356000B9FA2920FFF724FE01201149C1F88C0186
:103570004FF6FF70FFF7A3FE1FB000BD2DE9F04F1F
:1035800005460E4617469846DDF824A04FF0000B7E
:10359000781B401C1FFA80FB344620E0FEFF0160D0
:1035A000360000200014014000180140988122429A
:1035B0000080224221462846FFF731FE2C20FFF7EB
:1035C000F7FD4FF0000906E05046FFF7F4FD09F162
:1035D00001001FFA80F9D945F6DB601C84B244452E
:1035E000E8DDBDE8F08F2DE9F84F07460D4690461F
:1035F0009946DDF828B0A8EB0700401C80B2009087
:10360000A9EB0500401C1FFA80FA002416E02819D7
:1036100081B23846FFF703FE2C20FFF7C9FD0026D4
:1036200007E004FB0A603BF81000FE490880701CAC
:1036300086B200988642F4DB601C84B25445E6DB17
:10364000BDE8F88F2DE9FF4F84B081468A460020FF
:10365000039002900698A0EB09050798A0EB0A06D4
:10366000CDF80490CDF800A0002D01DD012705E084
:103670000DB9002702E04FF0FF376D42002E02DD4A
:103680004FF0010806E016B94FF0000802E04FF0D5
:10369000FF387642B54201DD2C4600E034464FF05B
:1036A000000B21E0009A91B2019A90B2FFF7F5FD6C
:1036B0000398284403900298304402900398A04253
:1036C00005DD0398001B039001983844019002988F
:1036D000A04205DD0298001B029000984044009033
:1036E0000BF101001FFA80FB601C8345DADD08B096
:1036F000BDE8F08FF0B504460D4616461F462B4632
:10370000324629462046FFF79DFF3B462246294682
:103710002046FFF797FF3B46324639462046FFF7E3
:1037200091FF3B46324629463046FFF78BFFF0BDFE
:103730002DE9F04306460F469046002445460320F7
:10374000A0EB48093CE07A1B91B2321990B2FFF726
:10375000A4FD3A1B91B2721990B2FFF79EFD3A197F
:1037600091B2721990B2FFF798FD7A1991B232199D
:1037700090B2FFF792FD7A1991B2321B90B2FFF727
:103780008CFD3A1991B2721B90B2FFF786FD7A1B3D
:1037900091B2321B90B2FFF780FD3A1B91B2721BBF
:1037A00090B2FFF77AFD641CB9F1000F03DAA000B4
:1037B000801D814404E0601B80000A3081446D1E3E
:1037C000AC42C0DDBDE8F0832DE9FE4F05468846DA
:1037D00091461C46944807880095102C06D1A9F103
:1037E0002000924901EB00169A4621E0182C09D1DD
:1037F000A9F1200000EB40008D4901EB00164FF0CD
:10380000300A15E0202C07D1A9F12000894901EBED
:1038100080164FF0400A0BE0402C07D1A9F1300090
:10382000854901EB00264FF4807A01E0BDE8FE8F68
:103830000020029081E016F801BB0020019032E0E8
:103840001BF0800F02D07848078005E00C9818B96B
:103850007A4800887449088041462846FFF71DFDD4
:103860004FEA4B604FEA106B681C85B2B5F5F07FEC
:1038700002DB6D480780D9E70099691A04EBD4721E
:10388000B1EB620F0BD1009D08F101001FFA80F827
:10389000B8F5A07F02DB64480780C7E706E001981F
:1038A000401C80B2019001980828C9DB00BF182C89
:1038B0003FD10298401C80B2029016F801BB002054
:1038C000019032E01BF0800F02D05748078005E0DE
:1038D0000C9818B959480088534908804146284631
:1038E000FFF7DBFC4FEA4B604FEA106B681C85B2B8
:1038F000B5F5F07F02DB4C48078097E70099691A1D
:1039000004EBD472B1EB620F0BD1009D08F1010002
:103910001FFA80F8B8F5A07F02DB4348078085E7EF
:1039200006E00198401C80B2019001980428C9DB90
:1039300000BF0298401C80B2029002985045FFF6EA
:103940007AAF3948078000BF70E702463C4913E070
:1039500008781378984205D148785378984201D175
:10396000881C704708781378984204D11078802812
:1039700001DA881CF5E7223108780028E8DC00200D
:10398000EFE702462F4913E008781378984205D1F3
:1039900048785378984201D1881C7047087813788A
:1039A000984204D11078802801DA881CF5E74A3162
:1039B00008780028E8DC0020EFE70246224913E0FF
:1039C00008781378984205D148785378984201D105
:1039D000881C704708781378984204D110788028A2
:1039E00001DA881CF5E7823108780028E8DC00203D
:1039F000EFE72DE9FE4F0646884692461C460A48E8
:103A00000788B3462046E11704EB5171C9106143A2
:103A100089B20091102C19D15046FFF796FF054648
:103A200021E000000000026036000020885D0008F0
:103A30007863000848750008088D000838000020E9
:103A40009C97000808970008BE970008182C04D11E
:103A50005046FFF796FF054605E0202C03D150465F
:103A6000FFF7ABFF05460DB9BDE8FE8F4FF000092B
:103A70003EE015F8010B02900020019030E0029822
:103A800010F0800F02D0B848078005E00C9818B9F4
:103A9000B6480088B449088041463046FFF7FDFB30
:103AA00002984006000E0290701C86B2B6F5F07FB8
:103AB00002DBAD480780D7E7A6EB0B00A0420BD195
:103AC0005E4608F101001FFA80F8B8F5A07F02DB1E
:103AD000A5480780C8E706E00198401C80B2019025
:103AE00001980828CBDB00BF09F101001FFA80F91B
:103AF00000988145BDDB9C48078000BFB4E710B546
:103B00000246012000E050430B00A1F10104E1B2A4
:103B1000F9D110BD2DE9FF4F81B0074691461E46F1
:103B20000E9D4FF0000A002439E0301B401EC1B248
:103B30000A20FFF7E4FFB9FBF0F00A21B0FBF1F235
:103B400001FB1208BAF1000F16D1701EA04213DD5E
:103B5000B8F1000F0ED10020AB4605EBDB71491028
:103B600001FB0471009088B22B4620220299FFF7D6
:103B70002BFE12E04FF0010A0020AB4605EBDB7193
:103B8000491001FB0471009088B208F13001CAB2FB
:103B90002B460299FFF718FE00BF601CC4B2B44266
:103BA000C3DB05B0BDE8F08F2DE9FF4F82B00646BC
:103BB00092461F46DDE90F480020019000254DE0A8
:103BC000781B401EC1B20A20FFF799FFBAFBF0F044
:103BD0000A21B0FBF1F201FB1209019850BB781EDB
:103BE000A84227DDB9F1000F22D118F0800F0FD0C5
:103BF00008F00100A34604EBDB71491001FB0561ED
:103C0000009088B2234630220399FFF7DDFD0EE0D5
:103C100008F00100A34604EBDB71491001FB0561CC
:103C2000009088B2234620220399FFF7CDFD13E0D0
:103C30000120019008F00100A34604EBDB7149105C
:103C400001FB0561009088B209F13001CAB2234638
:103C50000399FFF7B9FD00BF681CC5B2BD42AFDBD9
:103C600006B0BDE8F08FF8B505460F4616461C466F
:103C700021E02078802811DA002000902278334655
:103C800039462846FFF7A0FD304606EBD07105EB1C
:103C900061018DB236480580641C0CE0002033467B
:103CA0002246394600902846FFF7A3FEA81985B2A0
:103CB0002F480580A41C20780028DAD1F8BD2DE912
:103CC000F04F83460E4617469846099C00251DE096
:103CD000701981B25846FFF7A2FA2C20FFF768FA54
:103CE0004FF000090EE014F8011B14F8012B01EB52
:103CF00002201FFA80FA1F48A0F800A009F1010075
:103D00001FFA80F9B945EEDB681C85B24545DFDB5B
:103D1000BDE8F08F2DE9F04306460D46174698465C
:103D20001148B0F800904FF6FF700F49088000244A
:103D300012E0B8F1000F02D000200B4908802819CA
:103D400081B23046FFF7A9FA2A1991B2721C90B2DB
:103D5000FFF7A3FA601CC4B2BC42EADB0248A0F839
:103D60000090BDE8F08300003600002038000020FD
:103D70003A000020000002602DE9F04107460D46A0
:103D800016461C4601210846FDF777FB3846FCF72E
:103D900037FC2F4804802F480560466010202D49CD
:103DA00088600846C46000200861802048610020C7
:103DB0008861C86108624FF48050486200208862C0
:103DC0003846FCF7BFFCBDE8F08110B50446002181
:103DD0002046FCF7E2FC1E4801881F48FCF7F2FC75
:103DE00001212046FCF7D9FC10BD70B504460E46F3
:103DF00015461A48406940F00100184948610520FD
:103E0000FEF745FEA660E56000202060206840F0D7
:103E1000100020602068206020682060206840F04A
:103E2000800020602068206020682060206840F4C6
:103E3000805020602068206070BD026822F001027E
:103E400002604160026842F00102026070470000B7
:103E50003C000020100100208000024000100240C1
:103E600050B14FF08041098841F001014FF080428C
:103E700011800021918405E06D49098821F001013C
:103E80006B4A118070477FB505460C4601210846F4
:103E9000FDF70DFBADF80850ADF804400020ADF87B
:103EA0000A00ADF8060001A94FF08040FDF72EFC96
:103EB000012211469007FDF7A0FF1C208DF800009D
:103EC00003208DF801008DF8020001208DF8030019
:103ED0006846FCF72CFB01218807FDF773FF0120E2
:103EE000FFF7BEFF7FBD7FB505460C4601210220CE
:103EF000FDF7DDFAADF80850ADF804400020ADF84C
:103F00000A00ADF8060001A94948FDF7FFFB0122B0
:103F100011464748FDF771FF1D208DF80000022073
:103F20008DF8010003208DF8020001208DF80300B8
:103F30006846FCF7FCFA01213D48FDF743FF7FBDD1
:103F400050B13B49098841F00101394A11800021F3
:103F5000374A2432118005E03549098821F00101F2
:103F6000334A1180704710B501218807FEF7F3F935
:103F700058B101218807FEF7FFF92E48006808B9FB
:103F8000012000E000202B49086010BD7FB50546E8
:103F90000C4601210420FDF78AFAADF80850ADF86F
:103FA00004400020ADF80A00ADF8060001A922483F
:103FB000FDF7ACFB012211461F48FDF71EFF1E2036
:103FC0008DF8000003208DF8010001208DF802001B
:103FD0008DF803006846FCF7AAFA01211648FDF7A0
:103FE000F1FE7FBD50B11449098841F00101124A28
:103FF00011800021104A2432118005E00E49098801
:1040000021F001010C4A1180704700B50A481030B8
:10401000008810F0010F0AD007481030008820F007
:1040200001000549103108800020FFF7DBFF00BDCB
:1040300000040040980123420008004008B5032016
:104040008DF8000000208DF801008DF8020001209D
:104050008DF803006846FCF76AFA08BDF0B5034620
:104060000C461546642093FBF0F0C6B2642093FB27
:10407000F0F700FB1730C1B2132E02DD01F164002E
:10408000C1B20846CF1701EB977701EBA707BAB289
:10409000072092FBF0F700FB172082B25719601E31
:1040A000DFF8F0C21CF80000384482B2CF1701EBF1
:1040B0009777BF10B1EB870703D1032C01DA501EAD
:1040C00082B2072092FBF0F700FB1720C0B2F0BDD0
:1040D0000146CA1701EB92729210B1EB820212D123
:1040E000642091FBF0F200FB121050B94FF4C8703D
:1040F00091FBF0F200FB121008B90120704700207C
:10410000FCE70120FAE70020F8E770B5002600245C
:104110000025FEF721FC06469F48B6FBF0F49F48B9
:104120000088A0423CD09D490C8040F2B27510E05E
:104130002846FFF7CDFF40B1B4F5B77F02D3A4F511
:10414000B77404E0681C85B206E0A4F26D14681C24
:1041500085B2B4F5B67FEBD800BF914885800025C5
:1041600016E08F498888FFF7B3FF30B1012D04D1E5
:104170001D2C01D31D3C09E00CE08A48405DA042A3
:1041800003D88848405D241A00E003E0681C85B22B
:104190001C2CE6D200BF681C81498871601CC87164
:1041A0007D48B6FBF0F100FB11644FF46160B4FB95
:1041B000F0F07B4908704FF46160B4FBF0F100FB54
:1041C00011403C21B0FBF1F0754948704FF461603B
:1041D000B4FBF0F100FB11403C21B0FBF1F201FB1C
:1041E00012006F4988700B46DA7999799888FFF741
:1041F00035FF6B490872002070BD2DE9F05F06465F
:104200000F4690469946DDE90AAB002440F2B270B1
:10421000864203DB40F63300864202DD0120BDE822
:10422000F09F40F2B2750AE02846FFF751FF10B147
:104230005D48044401E05D480444681C85B2B54211
:10424000F2DB781EC7B2002510E05648405D40F210
:10425000A321484304EBC0143046FFF739FF18B1DF
:10426000012D01D14C480444681C85B2BD42ECDBF1
:10427000A8F1010040F2A321484304EBC014C9EBAC
:104280004910C0EB092004EB0014CAEB0A1004EB40
:1042900080045C4401214FF0C050FDF708F9012073
:1042A000FEF7DFFA2046FEF760FBFEF791FB0020E9
:1042B000B5E71CB500245020FEF79BFAA0F5B441E9
:1042C0005A3945D001214FF0C050FDF7F0F80120D8
:1042D000FEF7C7FA0120FDF74DF804E0601CC4B2F8
:1042E0000A20FEF7F7FB4120FCF7ADFF08B9FA2CD6
:1042F000F4DBFA2C01DB01201CBD4FF48070FDF7CC
:1043000052F80120FDF755F8FEF762FBFEF768FB57
:1043100001210846FEF700FBFEF75AFBFEF709FBFA
:1043200047F6FF70FEF72EFBFEF752FB00200090D1
:104330000F231E220C21019040F2DF70FFF75DFF7A
:10434000FEF700FB45F65A215020FEF746FA07E03B
:10435000FEF746FB01210846FEF7DEFAFEF738FBC2
:10436000FFF76CFEFFF7D1FE0020C5E710B5012076
:10437000FEF75AFB08B1FFF7C8FE0220FEF754FB18
:1043800010B10220FEF760FB0520FEF75DFBFEF793
:104390001FFB10BD40980008805101003E00002026
:1043A0003C0100204C9800080085E2018033E101C7
:1043B000002004E000217B4A1154411C88B280286F
:1043C000F8DB0021784A11807047002004E00021CA
:1043D000764A1154411C88B2B0F5806FF7DB704704
:1043E0000FB408B503A800907048009A029900F035
:1043F000A9F9002000906D4800F0B6F96C490880DA
:1044000008460088B0F5806F02DD4FF480600880B8
:10441000012280216748FEF7B3F86748FFF7D5FC13
:1044200000BF4FF00070FCF7D3F90028F9D04FF02F
:104430000070FCF7E0F9FFF7C8FF01B05DF814FB6E
:1044400070B505460E465A480680008830B3584875
:104450000088B0F5806F03DD4FF480605449088018
:10446000002404E0285D51490855601C84B250487E
:1044700000888442F6DB012280214E48FEF780F856
:104480004D48FFF7A2FC00BF4FF00070FCF7A0F909
:104490000028F9D04FF00070FCF7ADF9FFF795FF59
:1044A00070BD10B586B0044601214804FCF7FFFF3B
:1044B00001210420FCF7EEFF0420ADF814000320D6
:1044C0008DF8160018208DF8170005A93B48FCF759
:1044D0002BFD0820ADF8140004208DF8170005A965
:1044E0003648FCF721FD26208DF8000001208DF8CC
:1044F000010002208DF8020001208DF803006846BB
:10450000FCF715F801940020ADF80800ADF80A009A
:10451000ADF80C00ADF810000C20ADF80E0001A9AC
:104520002448FDF770FF012240F225512148FEF793
:1045300002F801211F48FDF7F2FF40211D48FEF758
:10454000D6F81A4A1B49091D1B48FFF74EFC4FF4C9
:10455000E1514FF47A70FFF7C6FC0020FFF7F0FC42
:1045600006B010BD10B51648008810F0010F0ED02F
:104570000D48008840F400400B490880104800882E
:1045800020F001000E4908800020FFF7D9FC10BD83
:104590000849098811F0200F03D00649091D098830
:1045A000C8B27047480500204200002048010020A2
:1045B0003C00002000440040800002400008014010
:1045C00010040040002004E00021584A1154411C0E
:1045D00088B24028F8DB0021554A1180704700203E
:1045E00004E00021534A1154411C88B24028F8DBF2
:1045F00070470FB438B505A800904E48009A04994A
:1046000000F0A0F8002000904A4800F0ADF885B214
:10461000002410E000BF4848008810F0400FFAD096
:104620002046611C8CB24349085C4349091D08803F
:10463000402C00DB01E0AC42ECDB00BFFFF7CFFF1A
:1046400038BC5DF814FB00BF3B49098811F0400FEE
:10465000FAD03949091D0880704710B586B0044664
:1046600001218804FCF723FF01210820FCF712FF39
:104670004FF48060ADF8140003208DF81600182068
:104680008DF8170005A92D48FCF74EFC4FF400608B
:10469000ADF8140004208DF8170005A92748FCF791
:1046A00043FC27208DF8000002208DF801008DF8D2
:1046B000020001208DF803006846FBF738FF0194E3
:1046C0004FF48050ADF808000020ADF80A004FF418
:1046D0008060ADF80C000020ADF810000C20ADF8A3
:1046E0000E0001A91448FDF78EFE012240F225516B
:1046F0001148FDF720FF01210F48FDF710FF4FF48F
:10470000E1514FF47A70FFF741FC0020FFF76AFC9B
:10471000FFF758FF06B010BD0749098811F0200FB8
:1047200003D00549091D0988C8B270470806002052
:1047300044000020C805002000480040000C014053
:10474000704700001CB50C46064B7B446946009040
:10475000204600F0E8F804460020694600F0F6F82C
:1047600020461CBDFF01000010B5431C02E010F8FC
:10477000011B71B18107FAD14FF0013202C88C1AC6
:104780008C4314EAC211F9D0C01A0A0603D0C01E25
:1047900010BDC01A10BD0A0401D0801E10BD090250
:1047A000FCD0401E10BD704770477047704770B511
:1047B000044685690068C10601D5302600E0202640
:1047C000C00708D070BDD4E9012130469047206A67
:1047D00000F1010020626D1EF5D570BD70B5044674
:1047E00085690078C00708D170BDD4E90121202077
:1047F0009047206A00F1010020626D1EF5D570BD62
:1048000009684A0501D540B27047C905FCD500B218
:10481000704709684A0501D5C0B27047C905FCD583
:1048200080B2704770B50C460546012A05D028783D
:10483000800600D5EA69002302E0012305E05B1C45
:10484000934202D2E05C0028F9D1A869E618C01AA8
:10485000A861286A184428622846FFF7A8FF04E0E8
:10486000D5E9012114F8010B9047B442F8D328464A
:10487000FFF7B4FF70BD00002DE9F04106460024AB
:1048800010687529314616A511D0FFF7B9FF002829
:1048900003DAC0F1000013A507E031688A0701D5EB
:1048A00011A502E0490704D510A5012401E0FFF796
:1048B000B0FF00210A2306F1240707E0B0FBF3F262
:1048C00003FB1200303078541046491C0028F5D103
:1048D00023462A463046BDE8F04100F06CBA00009D
:1048E000000000002D0000002B0000002000000050
:1048F00011680268006A530501D508700BE0D30502
:1049000001D5088007E0130603D5C217C1E90002EC
:1049100001E05206086001207047000001694A1C4E
:1049200002610878704700B58FB0CDE901310021F0
:10493000059105497944CDE903101146684600F018
:104940002FF90FB000BD0000E5FFFFFF0A6802F875
:10495000010B0A60704700002DE9FF5F15468A468B
:104960000446DFF8AC80F8440027D8E900103E4642
:10497000CDE9001011E03AF816106A4602A800F0DE
:10498000B2FC411C07D02178890603D5E2693918A9
:1049900091420ED8074406F101062078800602D520
:1049A000E069B84205DDAE42E5DB3AF816000028C2
:1049B000E1D1A069C01BA0612046FFF7F8FED8E94D
:1049C0000010CDE90010002016E03AF818106A46F1
:1049D00002A800F088FC8146401C0BD000250DF198
:1049E000080B05E0D4E901211BF8050090476D1C78
:1049F0004D45F7D308F10100B0428046E5DB206A5F
:104A0000384420622046FFF7E9FEBDE8FF9F000022
:104A1000EE4E00002DE9F0418046D21D22F0070243
:104A20000025D2E90002F52914A612D0002A06DAE0
:104A30000023D0EB030063EB020211A608E0D8F8D4
:104A400000108B0701D50FA602E0490701D50EA67D
:104A500001251146002408F1240704E000F066F95E
:104A600030323A55641C50EA0102F7D12B463246E7
:104A700021464046BDE8F04100F09DB9000000002D
:104A80002D0000002B0000002000000030B40021A9
:104A900000F124040CE002F0070505F130054FEAAF
:104AA000D20242EA4372655401F101014FEAD30395
:104AB00052EA0305EFD10468002310A2250708D5A8
:104AC00004F020040C4304D0C46901230CA2641E2A
:104AD000C46130BC00F06FB910B5044621461068BF
:104AE000FFF797FE02462046BDE810400023CDE7C1
:104AF000D21D22F00701D1E90023C7E70000000022
:104B000030000000F0B40D460188090502D5234CA1
:104B10007C4402E0214C7C440E34002100F1240648
:104B20000BE002F00F074FEA1212E75D42EA037250
:104B30004FEA1313775401F1010152EA0307F0D150
:104B400002780023120704D5702D06D009B1113464
:104B500002232246F0BC00F02EB910340123F8E7FE
:104B600070B504460D4621461068FFF752FE024616
:104B700029462046BDE870400023C3E7D21D22F03D
:104B80000703D3E90023BDE70368126843F020035D
:104B900003600823C3610023B4E700004C4D00000C
:104BA0002DE9F05F894604464FF0000ADFF878B13E
:104BB000FB44C0F820A02046E1688847002875D053
:104BC000252806D0D4E901219047206A401C2062A4
:104BD000F1E700265F462046E16888472028054621
:104BE00008DB312D06D207EB050010F8200C08B1C8
:104BF0000643F0E7B00701D526F00406C4F81CA070
:104C00000027C4F818A02A2D09D0284601F087F8FB
:104C100038B304EB8708303DC8F8185019E059F84C
:104C2000041B204604EB87029161E1688847012F4D
:104C3000054618D1E069002820DA26F020061DE09C
:104C4000D8F8180000EB800005EB40003038C8F8B9
:104C500018002046E1688847054601F060F8002802
:104C6000EED1012F0AD02E2D08D12046E1688847C9
:104C70007F1C0546022F46F02006C4DBA0690028F1
:104C800003DA404246F00106A061F00701D026F0A9
:104C900010066C2D0BD0682D09D04C2D39D06A2D03
:104CA00035D0742D35D07A2D33D016E038E0E16858
:104CB0002F4620468847B842054609D16C2F26D09A
:104CC0004FF48060E168064320468847054604E0CB
:104CD0006C2F1AD04FF4807006430DB3A5F141003C
:104CE000192802D8203546F400664A46294620464F
:104CF00026604E46FBF756FA80B101280BD0F61D10
:104D000026F0070000F1080955E74020E4E780207D
:104D1000D8E70020D6E706F104094CE7284651E71A
:104D2000206ABDE8F09F0000D44C000030B5B0F11F
:104D30000A024FEA900E71F100034EEA817EB0EB59
:104D40000E0061EB91014FEA101E4EEA017E10EB5E
:104D50000E0041EB11114FEA102E4EEA016E10EBDE
:104D60000E0041EB11214FEA104E4EEA014E10EBBE
:104D70000E0041EB1141401841F100014FEAD00013
:104D800040EA41704FEAD10110EB80054FEA8104FF
:104D900044EA907444EB01046D1944EB0404521B83
:104DA000A3414FF0000348BF0A3200D530BD401C7C
:104DB00041F1000130BD2DE9F0470D46994692467C
:104DC000044600F124080168880604D5E06921F052
:104DD0001001216000E00120A84202DDA0EB0507E0
:104DE00000E00027A16907EB050202EB0900A1EB37
:104DF0000000A0612078C00602D42046FFF7D7FC4F
:104E0000002608E0D4E901211AF806009047206A3C
:104E1000401C761C20624E45F4DB2078C0060AD583
:104E20002046FFF7C4FC06E0D4E90121302090477A
:104E3000206A401C2062381EA7F10107F4DC07E05D
:104E4000D4E9012118F805009047206A401C20622F
:104E5000281EA5F10105F3DC2046FFF7BFFC2078F2
:104E6000000602D50220BDE8F0870120FBE770476D
:104E70002DE9FF4F0C461E464FF0FF378BB0D2E9AD
:104E80000001DDF860800A908A46C1F30A5505B931
:104E90003D46002108464FF00000BAF1000F00F433
:104EA000400005DA00EB80004FF4400101EA5000B9
:104EB0004FEA9059B9F1010F00DDB9460A9850EA5E
:104EC0004A000ED044F61050A5F2FF3545432F148A
:104ED000B8F1000F1ED07542291E1EDDC9F1000277
:104EE0001CE0B8F1010F4FF0000001D0302103E0C9
:104EF000F24305E02154401CB042FBDB3046002267
:104F0000002121540B99C1F80880C1E900200FB09D
:104F1000BDE8F08FBD1B6D1CDEE74A4600DA694232
:104F200006A800F071FA06AB07CB03AB07C35046E7
:104F30000A9900F025FB8DE80700A0F500501F3806
:104F400000900398002D09DD42F21F014A460844F3
:104F500003A90390684600F084FD08E0A0F5005026
:104F60004A461F3803A90390684600F08EFD8DE87D
:104F700007000004000C03D04FF0FF30410800E0B0
:104F80001046B8F1000F03D00022009215461FE032
:104F9000751E06D4FFF7CAFE02F1300262556D1E7F
:104FA000F8D5B3460122084302D000227F1C04E05A
:104FB0002078302801D100227F1E002A099787D04F
:104FC0001DE0112D07DAFFF7B1FE303262556D1C7E
:104FD00050EA0102F5D108430FD10021681E05E017
:104FE000235C625C6354491C2254401E8142F7DBFF
:104FF000AB46A81B401E099001E0009848B1002074
:1050000004F80B000B98099AC0F80880C0E9002B3F
:105010007DE711264FF000085AE72DE9F04F88464A
:105020000446D21D22F0070191B0D1E90001CDE97B
:105030000A0100F060FE02460B98C00F01D02D203F
:1050400007E02068810701D52B2002E0202101EA3A
:10505000C000032A099001D0072A05DB0346414618
:10506000204600F091F90FE12078800601D5E06933
:1050700000E00620B8F1650F814606D0B8F1660F52
:1050800018D0B8F1670F72D132E00020B9F1110FDA
:10509000009001DB112301E009F101030AAA01A933
:1050A0000CA8FFF7E5FEDDE90C70002609F101050B
:1050B000834648E001204B4600904FF000470AAA83
:1050C00001A90CA8FFF7D4FEDDE90DB00C995D46EF
:1050D000002618B909F1010001EB0005B9EB050044
:1050E00003D4C0F1FF3609F10105A5EB09002BE05F
:1050F000B9F1010F01DA4FF001090020B9F1110FE8
:105100000090484601DD112300E003460AAA01A9E8
:105110000CA8FFF7ADFEDDE90C704D460026834676
:10512000207800070AD4AB4500DA5D4601A8012DBE
:1051300004DD411911F8011C302907D04F4502DA6E
:1051400017F1040F04DA0120824610E06D1EEEE72D
:10515000002F02DCED1B3E4403E0781CA84200DD7A
:105160000546A7EB060000F1010A4FF00047207842
:10517000000703D4AA4501DB4FF0FF3A0021B7F145
:10518000004F0DF143088DF8431023D002202B234C
:10519000002F01DA7F422D234FF00A0C011EA0F1EF
:1051A000010000DC4FB197FBFCF10CFB11720F46C4
:1051B00002F1300208F8012DF0E7A8F101000370B8
:1051C0002188090501D5452100E06521A0F10108EC
:1051D00000F8011C09980FA9A1EB080707F10707C0
:1051E00000B1012000EB050101EBEA70A169384430
:1051F000A1EB0000A0F10100A0612078C00602D45C
:105200002046FFF7D4FA099830B1D4E9012190473C
:10521000206A00F1010020622078C00620D52046D7
:10522000FFF7C5FA1CE0002E04DBB34502DD01A840
:10523000805D00E03020D4E901219047206A761C8F
:10524000401CBAF1010A20620AD100F099F8C06846
:105250000168405CD4E901219047206A401C20622B
:10526000281EA5F10105DEDC07E0D4E9012118F8CC
:10527000010B9047206A401C2062381EA7F10107ED
:10528000F3DC2046FFF7AAFA022011B040E610B581
:10529000436913B1AFF3008001E0FFF7C3FA0120C7
:1052A00010BD127800F124010A7000224A70012218
:1052B000EDE711684FF0FF32E9E710B5436913B12C
:1052C000AFF3008001E0FFF747FB012010BD12881B
:1052D00000F1240182840022C2840122EDE71168DA
:1052E0004FF0FF32E9E770B516460C46054600F070
:1052F0003FF8036893F80101012806D0FF2C0FD86E
:10530000185D68B101202C7070BDD3F807013246DA
:10531000214603442846BDE8704003F207131847AE
:105320004FF0FF3070BD754600F0E6F8AE46050060
:105330006946534620F00700854618B020B5FBF7B4
:10534000DFF8BDE820404FF000064FF000074FF0B7
:1053500000084FF0000B21F00701AC46ACE8C00993
:10536000ACE8C009ACE8C009ACE8C0098D4670479C
:1053700010B500F005F8001D10BD00BFDD090000EC
:1053800000487047680600202DE9F0411F4604469A
:1053900003260168072A01F4006004DB08B116A5A2
:1053A00005E016A503E008B115A500E015A521F05C
:1053B00010002060A069C01EA0610FB1401EA06156
:1053C0002046FFF7F4F94FB1D4E901213846904760
:1053D000206A401C2062C01C206206E0206AFAE7B6
:1053E000D4E9012115F8010B9047761EF8D220462A
:1053F000FFF7F4F9BDE8F0814E414E006E616E009A
:10540000494E4600696E66002DE9F0478146164612
:105410008AB035487844D0E9002380680092CDE90D
:105420000130314878440C38D0E9022300690392F6
:105430004FF03702CDE9043041F69B30014491FB37
:10544000F2F0A0F1800502FB10141B3C02D564426F
:10545000012000E00020DFF890A080460027FA44F9
:10546000AAF1C60A0DE0E00709D03246684607EB0C
:1054700047010AEB810100F008FB8DE8070064108A
:105480007F1C002CEFD1184F7F44B43F17E0E80792
:1054900013D007EB04100DF1180A90E80E00AAE8EB
:1054A0000E00C068F04201D198190890324606A952
:1054B00003A800F0EAFA03AB07C36D10641C002DCB
:1054C000E5D132466946B8F1000F03A802D000F0DA
:1054D000C8FA01E000F0D9FAC9E90001C9F80820CA
:1054E0000AB0BDE8F0870000004500000446AFF3B5
:1054F00000802046FAF7B9FE0048704748060020B1
:105500004FF0013C50F8042B51F8043B9A4221D152
:10551000A2EB0C03934313EACC1317D150F8042BDE
:1055200051F8043B9A4215D1A2EB0C03934313EAC2
:10553000CC130BD150F8042B51F8043B9A4209D1FB
:10554000A2EB0C03934313EACC13DBD04FF0000023
:10555000704700BFD01A01BAB1FA81F101F0180109
:1055600022FA01F0CB40C1F12001DBB2C0B2C01A77
:105570002CFA01F3D11A914311EAC311E6D1704715
:105580005FEA400C08BF91F0000F4FEA8C234FEA0E
:10559000C12243EA51514FEA1C5018BF00F5F040B8
:1055A0004FEA300018BF41F000415FEA6C5C00F048
:1055B0002980BCF1FF3F08BF40F080407047130CCA
:1055C00006BF12044FF0100C4FF0000C130E04BF76
:1055D00012020CF1080C130F04BF12010CF1040CA1
:1055E000930F04BF92000CF1020CD30F04BF5200C2
:1055F0000CF1010C11464FF00002A0F11F00A0EBCE
:105600000C00704711F0004F08BF704731F00041A7
:105610003FF4D5AF0B0C06BF09044FF0100C4FF050
:10562000000C0B0E04BF09020CF1080C0B0F04BF99
:1056300009010CF1040C8B0F04BF89000CF1020C62
:10564000CB0F04BF49000CF1010CCCF12003A0EBFF
:105650000C0022FA03F302FA0CF241EA030100F112
:105660000100704720F07F4C80EA030023F07F4761
:10567000ACEB070303F57C5300F0004003F1FF039C
:105680002DE980494FEA154B09B44FEA144325EA46
:105690000B4E24EA03480FF2042606EB13274908B1
:1056A0003E785FEA320203FB0667C7F5000707FB97
:1056B00006F64FEA54374FEAD64606F1020607FBD4
:1056C000066CCCF1005C4FEA1C472CEA074C07FB48
:1056D00006F40CFB06F504EB15464FEA961634BFAC
:1056E00000204FF000404FEAD13706FB07FC4FEA9D
:1056F0001C4C0CFB0BF7D21B03FB0CF761EB0701F7
:105700000CFB0EF7B0EB074072EB17420CFB08F7EF
:1057100034BFA2EB0742B2EB074261EB17414FEAFD
:105720000C444FEA910706FB07FC4FEA1C4C0CFBAC
:105730000BF7B0EBC74072EB573203FB0CF734BFEB
:10574000A2EBC742B2EBC74261EB57310CFB0EF73D
:10575000B0EBC70072EB57720CFB08F734BFA2EB3B
:10576000C702B2EBC70261EB5771039F4FEA816139
:1057700041EA921104EBCC044FEAD1374FEA82623E
:1057800006FB07FC42EA90124FEA80604FEA1C4C8D
:105790000CFB0BF7D21B03FB0CF761EB07010CFBB7
:1057A0000EF7B0EB074072EB17420CFB08F734BF63
:1057B000A2EB0742B2EB074261EB17414FEA8C556F
:1057C0004FEA910704EB9C2406FB07FC4FEA1C4CB4
:1057D0000CFB0BF7B0EBC74072EB573203FB0CF737
:1057E00034BFA2EBC742B2EBC74261EB57310CFBAF
:1057F0000EF7B0EBC70072EB57720CFB08F734BF23
:10580000A2EBC702B2EBC70261EB577115EB4C2557
:105810004FEA816141EA92114FEA82624FEAD13741
:1058200042EA901206FB07FC44F100044FEA806054
:105830004FEA1C4C0CFB0BF7D21B03FB0CF761EB84
:1058400007010CFB0EF7B0EB074072EB17420CFBA5
:1058500008F734BFA2EB0742B2EB074261EB1741F6
:1058600015EB1C154FEA813141EA92414FEA823231
:1058700042EA90424FEA80304FEA0C7644F100044D
:1058800048EA03434EEA0B484FF0000EB2EB080C17
:1058900071EB030724BF624639464EEB0E0E4FF004
:1058A000000B0018524149414BEB0B0BB2EB080CBB
:1058B00071EB03077BF1000B24BF624639464EEBC8
:1058C0000E0E4FF0000B0018524149414BEB0B0BF1
:1058D000B2EB080C71EB03077BF1000B24BF6246AF
:1058E00039464EEB0E0E51EA020718BF46F001068C
:1058F00016EB0E7655F1000254F1000103D5BDE818
:105900008901BDE80088BDE88901BDE80048B619F5
:10591000524141EB0101A3F10103704780807F7E7A
:105920007D7C7B7A79787776767574737271717015
:105930006F6E6E6D6C6C6B6A6A69686867666665C7
:105940006464636362616160605F5F5E5E5D5D5C55
:105950005C5B5B5A5A5959585857575656555555C6
:105960005454535352525251515050504F4F4F4E26
:105970004E4D4D4D4C4C4C4B4B4B4A4A4A49494974
:1059800048484847474747464646454545444444B6
:10599000444343434342424242414141002B26D4C7
:1059A000770021D01CB54FEA370703B44FF0100041
:1059B0004FF010014FF000000FBCBDE810400BF19C
:1059C000010BBBF1010F08BF5FEA170722BF12F1FD
:1059D000010211F101014FF0004143F1000300F019
:1059E000004043EA00007047F9D35708DAE746EA77
:1059F000064613F1400F4FEA16461FDD13F1200F44
:105A0000DFBF16430A46002120335B42C8D0C3F1F2
:105A1000200746EA064602FA07F74FEA164646EA24
:105A20000706C3F1200722FA03F201FA07F721FA69
:105A300003F14FF0000342EA0702B1E746EA02062B
:105A400046EA06464FEA164646EA0106BCBF46EA63
:105A50000646360C4FF000034FF000024FF00001F5
:105A60009EE72DE9C048934630B491E8380007C856
:105A700031EA400C48BF34EA430C03D5FFF7F2FD8E
:105A8000FFF78CFFF0BCBDE800882DE9C0489346C5
:105A900030B491E8380007C810F0804F08BF13F009
:105AA000804F03D100F005F8FFF778FFF0BCBDE8A8
:105AB000008820F07F4780EA030023F07F4C07EB4B
:105AC0000C03A3F57C5300F00040A3F1FE0392F019
:105AD000000F00F0B38095F0000F00F077802DE903
